:020000040800F2
:10000000D0110020C10100088D3F00089939000877
:100010006D3E0008B5110008894C00080000000082
:100020000000000000000000000000004141000846
:100030009915000800000000AF3F00083343000896
:10004000DB010008DB010008DB010008DB01000820
:10005000DB010008DB010008DB010008DB01000810
:10006000E9160008DB010008DB010008DB010008DD
:10007000DB010008611400086D1400087914000801
:10008000DB01000885140008DB010008DB01000823
:10009000B9110008DB010008DB01000805170008A2
:1000A000DB010008DB010008DB010008DB010008C0
:1000B000DB010008C1440008DB010008DB01000887
:1000C000DB010008DB010008DB010008DB010008A0
:1000D000DB010008634C0008DB010008694C0008E4
:1000E000DB010008DB010008DB010008DB01000880
:1000F000DB010008DB010008DB010008DB01000870
:10010000DB010008DB010008D5440008DB01000822
:10011000DB010008DB010008DB010008DB0100084F
:10012000DB010008911400089D140008DB010008A1
:10013000DB010008DB010008DB010008DB0100082F
:10014000DB010008DB010008DB010008DB0100081F
:10015000A9140008E9140008DB010008854C000818
:10016000DB010008DB010008DB010008DB010008FF
:10017000DB010008DB010008DB01000800000000D3
:10018000DB010008DB0100088F47000893470008E7
:10019000DB010008DB010008DB010008DB010008CF
:1001A0000000000000000000DB010008DFF80CD0B8
:1001B00000F056FF00480047CD510008D011002044
:1001C0000648804706480047FEE7FEE7FEE7FEE7F1
:1001D000FEE7FEE7FEE7FEE7FEE7FEE7E143000895
:1001E000AD01000870B405880E884468D1F804C0D9
:1001F0005368B54208D140884988884201BF1188B8
:100200008D425188884203D070BC6FF00200704765
:1002100005FB00F1880827D094ED001ADCED000AF8
:1002200094ED010ADCED011A31EE201AD4ED020A38
:1002300070EE211A9CED020A83ED001AC3ED011A3B
:1002400094ED031ADCED031A30EE800A401E71EEC5
:10025000210A83ED020A04F11004C3ED030A03F13D
:1002600010030CF1100CD7D111F0030030D0B0F115
:10027000004F30D200282BDD211F1B1FACF10402E0
:1002800010F0010F0AD091ED010AD2ED010A091D0B
:10029000121D30EE200A83ED010A1B1D400817D005
:1002A00091ED010AD2ED010A401E30EE200A83EDE5
:1002B000010A91ED020AD2ED020A01F1080102F1F0
:1002C000080230EE200A83ED020A03F10803E7D1A9
:1002D00070BC00207047B4EC010A401EFCEC010A1F
:1002E00030EE200AA3EC010AF5D1F1E7018042804B
:1002F000436070472DE9F34F84B004984068009044
:10030000486801900498B0F800E04588DFEDFE0AE7
:1003100000200290B0EE600AAE4506D108884988F8
:10032000884204BF7146864504D06FF0020006B0D3
:10033000BDE8F08F01985FEA010C18BFB7EE001A14
:100340003DD000BFBEEB0C0117D0B1F1004F80F0E3
:100350001F82002911DD021F11F0010F1CBFC2ED29
:10036000010A121D4B1006D0C2ED010AC2ED020AAD
:1003700008325B1EF8D100EB8100BCF10102A0EC59
:10038000011A19D0B2F1004F80F00882002A13DD63
:10039000031F12F0010F1CBFC3ED010A1B1D5110FA
:1003A00008D000BFC3ED010AC3ED020A491E03F1E4
:1003B0000803F7D100EB8200BCF1010CC2D14FF071
:1003C00000080395002D14BFB0EE602A002000F055
:1003D000BF8100BF009908FB05F001EB800B01997C
:1003E000DBED002A01EB80000346F0EE421AC64521
:1003F00052D9AEEB0802ABEB850112F0010F17D01A
:1004000001EB850191ED000AB5EEC00AF1EE10FA9C
:1004100007DDB4EEE10AF1EE10FA09DDF0EE401A64
:1004200006E0B1EE400AF4EEC01AF1EE10FAF5D390
:10043000521031D001EB850C9CED000AB5EEC00ADC
:10044000F1EE10FA05DDB4EEE10AF1EE10FA09DD85
:1004500006E0B1EE400AF4EEC01AF1EE10FA01D255
:10046000F0EE401A01EBC50191ED000AB5EEC00AAD
:10047000F1EE10FA05DDB4EEE10AF1EE10FA09DD55
:1004800006E0B1EE400AF4EEC01AF1EE10FA01D225
:10049000F0EE401A521ECDD1F5EEC01AF1EE10FA70
:1004A00000F07381F5EEC02A0126F1EE10FA0099F2
:1004B000D4BFB1EE620AB0EE620AB4EE610AF1EEA8
:1004C00010FA1CBFAEEB0802B2F1010C47D005FBDD
:1004D00008F201EB820292ED001A00BFB0EE410A71
:1004E00005FB06F4B5EEC00A00EB8404F1EE10FA49
:1004F000CCBFF0EE400AF1EE400AF4EE610AF1EEF4
:1005000010FA28D1B5EB080C11D0BCF1004F7DD208
:10051000BCF1000F0BDD00BF92ED000AD1ED000A27
:10052000BCF1010CE2EC010AA1EC010AF4D12900B2
:100530000ED0B1F1004F6AD2002909DD94ED000A16
:10054000D0ED000A491EE4EC010AA0EC010AF5D145
:10055000012002900BE0761CBCF1010CBED1029888
:10056000012804D0F5EEC02AF1EE10FA7ED09BED02
:10057000000AB5EB08009A465946064622D0B0F16B
:10058000004F74D200281DDD091F10F0010F06D0A6
:10059000F0EE400A80EEA01A81ED011A091D40100C
:1005A00010D000BFD1ED010A401E80EE801A81ED0F
:1005B000011A91ED021AC1EE000AC1ED020A01F121
:1005C0000801EFD1280026D0B0F1004F7ED20028DC
:1005D00021DDAAF1040110F0010F06D0D1ED010ACE
:1005E00080EE801A81ED011A091D401013D000BF62
:1005F000D1ED010A401E80EE801A81ED011AD1ED85
:10060000020A80EE801A81ED021A01E0CBE0D6E00A
:1006100001F10801ECD1DDE900124FF000095FEAB9
:100620000E0773D0C14504BF01EB860102EB8502C2
:1006300074D091ED000ADC465046331E35D01C467E
:10064000B6F1004F7ED2002C2FDD0B1FABF1040C56
:1006500016F0010F0FD0F0EE400ADCED011AB0EEFB
:10066000601A00EEE11A83ED011A01E08DE0B1E0BD
:100670001B1D0CF1040C741015D000BFD3ED010A42
:100680009CED011A40EE410AC3ED010AD3ED020AC6
:100690009CED021A0CF1080C40EE410AC3ED020A6F
:1006A0000833641EEAD101EB86012B0036D0B3F18A
:1006B000004F72D2002B31DDA2F1040CAAF104002C
:1006C00013F0010F0CD0DCED010A00E08BE090ED9F
:1006D000011A001D40EE410ACCED010A0CF1040C98
:1006E0005C1019D0DCED010A90ED011A40EE410AD0
:1006F000CCED010ADCED020A90ED021A083040EE62
:10070000410ACCED020A03E0000000000DE005E024
:10071000641E0CF1080CE5D102EB830201EB8801A9
:100720007F1E09F101097FF47DAF009808F10108EF
:10073000001D00900398401E03907FF44BAE029979
:10074000012900E058E004BF06B0BDE8F08F00BF0B
:10075000B5EEC00AF1EE10FA7FF4E9AD04990EFB94
:1007600005F3002B4A684FF000010BD902EB810C16
:100770009CED000AB5EEC00AF1EE10FA02D1491C58
:100780008B42F3D88B427FF4D2AD6FF00400CEE5FC
:10079000E0EC010A491EFBD1EFE538E0E0EC010A8C
:1007A000521EFBD108E692ED000AD1ED000ABCF121
:1007B000010CE2EC010AA1EC010AF4D1B7E694EDD8
:1007C000000AD0ED000A491EE4EC010AA0EC010A7F
:1007D000F5D1BDE6D1ED000A401E80EE801AA1ECF5
:1007E000011AF7D1EEE6D3ED000A401E80EE801A22
:1007F000A3EC011AF7D10EE7BCEC011AD1ED000A07
:100800005B1E40EE410AE1EC010AF5D14DE7B0EC88
:10081000011AD2ED000A5B1E40EE410AE2EC010A29
:10082000F5D17BE72DE9F04F82B04668536801931C
:10083000058847884B88002000900888874201BFC0
:10084000B2F800C06545528893421EBF6FF00200A7
:1008500002B0BDE8F08F9FED412A4FEA970EC7F333
:10086000400B00BFDDE9000202EB800A4A689846AF
:100870004FF00009B0EE420AB4465FEA0E0025D000
:1008800092ED001ADCED001A02EB8302DCED010AA6
:1008900001EE810A92ED001A02EB8302401ED2EDB6
:1008A000001A02EB830200EE810A9CED021ADCEDD5
:1008B000030A00040CF1100C000C01EE210A92ED69
:1008C000001A02EB830200EE810AD9D117F003006F
:1008D00026D0ACF10404A2EB830210F0010F08D083
:1008E00002EB8302D4ED010A92ED001A241D00EE02
:1008F000810A5FEA0B0013D002EB830CD4ED010AEE
:100900009CED001A02EBC302401E00EE810AD4EDFA
:10091000020A92ED001A04F1080400EE810AEBD1FC
:1009200009F10100AAEC010A1FFA80F9486800EBFE
:100930008902A8F101001FFA80F8B8F1000F99D1DF
:10094000009806EB8706184480B20090681E0504E4
:100950002D0C87D102B00020BDE8F08F0000000010
:1009600070B405880E884468D1F804C05368B54255
:1009700008D140884988884201BF11888D4251883A
:10098000884203D070BC6FF00200704705FB00F195
:10099000880827D094ED001ADCED000A94ED010AD6
:1009A000DCED011A31EE601AD4ED020A70EE611A24
:1009B0009CED020A83ED001AC3ED011A94ED031AAF
:1009C000DCED031A30EEC00A401E71EE610A83EDC1
:1009D000020A04F11004C3ED030A03F110030CF141
:1009E000100CD7D111F0030030D0B0F1004F30D24D
:1009F00000282BDD211F1B1FACF1040210F0010F9A
:100A00000AD091ED010AD2ED010A091D121D30EE46
:100A1000600A83ED010A1B1D400817D091ED010A01
:100A2000D2ED010A401E30EE600A83ED010A91ED1D
:100A3000020AD2ED020A01F1080102F1080230EEC9
:100A4000600A83ED020A03F10803E7D170BC0020BD
:100A50007047B4EC010A401EFCEC010A30EE600A5B
:100A6000A3EC010AF5D1F1E72DE9F04F02884768C0
:100A7000B0F802804888D1F8049082B04FF0000AA4
:100A80001646824207BF098888456FF0020002B00F
:100A900018BFBDE8F08F4FEA980B02EB42000190BF
:100AA000C8F34000CDF8000009EB8A01BBF1000F4C
:100AB00033D0019801EB820C01EB80043B46E64603
:100AC00001EBC2054FEA0B0093ED000A401E81EDD9
:100AD000000A93ED010A01EB02118CED000A93ED7F
:100AE000020A0CEB021C85ED000A93ED030A05EBEC
:100AF000021584ED000A04EB021403F11003E3D1A4
:100B00000EEB820000EB820000EB8201ABF10100F2
:100B1000504307EB0B1701EB001118F0030C21D029
:100B20003B1FA1EB82011CF0010F06D093ED010ADF
:100B300001EB82011B1D81ED000A009880B100BF0E
:100B400093ED010A01EB820401EBC20184ED000A7E
:100B500093ED020A401E81ED000A03F10803EFD174
:100B600007EB8C070AF101001FFA80FA701E0604D9
:100B7000360C99D102B00020BDE8F08F40EA0103A5
:100B80009B0703D009E008C9121F08C0042AFAD243
:100B900003E011F8013B00F8013B521EF9D2704707
:100BA0002DE9FE4F804681EA0300C00F0C460090FD
:100BB00021F0004123F00045B8EB0200A94105D225
:100BC0004046214690461C460B46024623F0004014
:100BD000104347D0270DC7F30A00C3F30A51029010
:100BE000401A019040286BDAC3F3130040F4801BD5
:100BF0000098924620B10023D2EB030A63EB0B0B63
:100C000001985946C0F14002504600F022F90646CC
:100C10000D4650465946019A00F02AF910EB08009B
:100C20006141002487EA115284EAE7731A4340D0F5
:100C3000009A62B3019A012A4FEA075215DC001BA1
:100C400061EB02014FF0004202EA0752CDE9004297
:100C5000001C41F5801132462B4600F061F903B0CB
:100C6000BDE8F08F40462146F9E7001B61EB020129
:100C7000001C41F5801300185B412018A2F50017F5
:100C800047EB030140EAD570B6196D4111E06D08DC
:100C90004FEA360645EAC0754FEA0752001B61EB82
:100CA0000201001C41F5801149084FEA300000198B
:100CB000514132462B4603B0BDE8F04F00F021B958
:100CC0000098012240000023D0EB020263EBE073A6
:100CD000009821464FEAE074B8EB000061EB040194
:100CE000E9E783F000435BE781F0004158E72DE935
:100CF000FE4F81EA030404F0004421F00041009417
:100D00004FF0000B23F0004350EA01045ED052EA9A
:100D100003045BD0C3F30A54C1F30A552C44A4F274
:100D2000F3340194A0FB0254C1F3130141F4801188
:100D3000C3F3130343F4801301FB024400FB034E8F
:100D4000840A970A44EA815447EA8357A4FB076858
:100D500002958D0A05FB07854FEA932C04FB0C5482
:100D60002705029D4FEA065847EA1637B5EB0805F6
:100D70006EEB070C870E920E47EA811742EA831248
:100D8000A7FB0201B6EB0B0164EB00042B0D43EA59
:100D90000C335E1844EB1C50DA465146E7FB020167
:100DA000C5F313044FEA0B3343EA14534FEA0432FA
:100DB000019C43EA0603A4F10C040294009CCDE9D3
:100DC00000B400F0ADF803B0BDE8F08F002001469C
:100DD000F9E70EB5C10F80EAE0700844CA070021A8
:100DE00040F233438DE80E000A460B4600F098F8B7
:100DF00003B000BD00F0004230F000400AD0C10D49
:100E000001F56071C0F3160042EA0151C2084007C3
:100E10001143704700200146704701F0004330B491
:100E200021F0004150EA010206D00A0DA2F56072DD
:100E3000C1F31301002A02DC30BC00207047440FCC
:100E400044EAC104C100E01830BC00EBC25000F01D
:100E500021B8202A04DB203A00FA02F10020704772
:100E60009140C2F1200320FA03F3194390407047E8
:100E7000202A06DBCB17203A41FA02F043EAE0735E
:100E800006E041FA02F3D040C2F12002914008434B
:100E9000194670470029A8BF7047401C490008BF89
:100EA00020F00100704710B4B0FA80FC00FA0CF09A
:100EB00050EA010404BF10BC704749B1CCF12004D2
:100EC00021FA04F411FA0CF118BF0121214308435F
:100ED000A3EB0C01CB1D4FEA00614FEA102042BF8B
:100EE000002010BC704700EBC35010440029A4BF81
:100EF00010BC7047401C490008BF20F0010010BC26
:100F0000704710B5141E73F1000408DA401C41F15B
:100F1000000192185B411A4301D120F0010010BD7D
:100F20002DE9F04D92469B4611B1B1FA81F202E0F3
:100F3000B0FA80F220329046FFF78BFF04460F464E
:100F400040EA0A0041EA0B0153465A46084313D0CF
:100F5000114653EA010019D0C8F14002504600F092
:100F600091F805460E46504659464246FFF771FF36
:100F7000084305D0012004E020463946BDE8F08D45
:100F80000020054346EAE0762C4337430A98630580
:100F9000E40AA0EB08000022FD0A44EA47540A30A4
:100FA00002D500200146E9E7010510196941DDE994
:100FB000084500196941BDE8F04DA2E72DE9F04D63
:100FC00000231A461B1A8A4103DB00200146BDE8B4
:100FD000F08DC1F30A52C1F3130141F480154FF0B3
:100FE000000BD10702D100186D41521E00270446A4
:100FF00040F2FF11384601EB620A3E468046024647
:1010000000204FF4801100F03DF8C2197141BB1867
:1010100046EB0100B4EB030C75EB000C04D3E41AAF
:1010200065EB000517460E46241908F101006D41D5
:1010300080463428E3DDF91946EB0600091BA84178
:1010400003D24FF0FF32134601E0002213461BEBA0
:10105000070046EB0A51BDE8F04DFFF752BF000014
:10106000064C074D06E0E06840F0010394E80700F5
:1010700098471034AC42F6D3FFF79CF83C61000867
:101080005C610008202A04DB203A21FA02F00021EA
:10109000704721FA02F3D040C2F120029140084388
:1010A0001946704790ED052A70EE420AC0ED080A15
:1010B00090ED0D0A90ED001A60EE201A90ED070AEF
:1010C00001EE210A80ED070AD0ED0C1AD0ED0F2AAF
:1010D00001EEA00AD0ED0E1A01EEA20AD0ED061A1A
:1010E00041EE001AC0ED061A90ED0B0A40EE201AF0
:1010F00001EE212A80ED052A7047000023489FED6C
:10110000220ADFED230A80ED020A9FED220AC0EDDC
:10111000030A80ED040A9FED200AB6EE001A80ED66
:10112000060A80ED071A9FED1D1A80ED081AB5EE2C
:10113000001A80ED091A80ED0A0A9FED190A80ED68
:10114000120A9FED180A80ED130A9FED170A80ED31
:10115000140A9FED160A80ED0E0A80ED0F0A80ED4D
:101160000B0A80ED0C0A80ED0D0AB1EE000A80ED4D
:10117000230A9FED0F0A80ED220AC0ED210AB7EE87
:10118000000A80ED150A7047000016438C04002009
:10119000CDCC4C3D6F12833A0AD7233C6F12033CEF
:1011A0000000C8420000FA4300001644000000009E
:1011B00000004843FEE70000014800F03DBC00008D
:1011C000E407002000B58BB000210122CDE9061212
:1011D000039108920491019102910E2205910992C6
:1011E000044901631C314163694600F0B1FB0BB057
:1011F00000BD0000A407002070B5164C40F2FF159A
:10120000266B3560266B7560266B0025B560266BF6
:10121000F560266B08253561266B050A3575256B4B
:101220006875256B080AA875206BC175216B100ABB
:101230000876206B4276216B180A8876206B002195
:10124000C376204600F0C4FD08B1002070BD012027
:1012500070BD0000E40700201D4A12687AB191EDCC
:10126000160A81ED170A426B928A52BA12B200EE48
:10127000102AB8EEC00A81ED160A81ED110A426B00
:10128000D28A52BA12B200EE102AB8EEC00A81ED2C
:10129000030A426B928A52BA12B200EE102AB8EEDA
:1012A000C00A81ED120A426B128B52BAA1F88C204F
:1012B000406B0168A1F50072053A07D1807E00EE0F
:1012C000100A0448B8EE400A80ED000A704700009A
:1012D0000C0000201400002010B54FF4D8720368F1
:1012E00002EB01129B5813F00404436B9C600468EA
:1012F000436BA45854D0E4085C6003689A58436B6D
:1013000002F00202DA604FF4DA72036802EB0112B3
:101310009B58446B03F00F03236103689A58436B97
:10132000C2F30722DA614FF4DC72036802EB0112A8
:101330009B58446B237503689B58446B1B0A637569
:1013400003689B58446B1B0CA37503689A58436B46
:10135000120EDA754FF4DE72036802EB01129B582D
:10136000446B237603689B58446B1B0A63760368BF
:101370009B58446B1B0CA37603689A58436B120E60
:10138000DA762022002901680DD00A6101684A69D5
:1013900022F010024A6190F83810222909D021E089
:1013A000640D1C60A9E7CA6001684A6922F0020264
:1013B000F0E701684A6922F480724A6101684A696B
:1013C00022F400724A6101684A6922F480624A612B
:1013D00001684A6922F400624A6101684A6922F49C
:1013E00000424A6190F83810322907D05FF00101BD
:1013F00080F8381000F0AEFC002010BD1221F7E795
:1014000010B501684A6922F001024A6190F838106B
:10141000122918D101684A6922F480724A61016870
:101420004A6922F400724A6101684A6922F48062C2
:101430004A6101684A6922F400624A6101684A69A6
:1014400022F400424A6190F83810322906D0012176
:1014500080F8381000F086FD002010BD2221F7E74B
:10146000014800F0D9BD0000D8080020014800F074
:10147000D3BD0000580C0020014800F0CDBD000095
:1014800038090020014800F0C7BD0000B80C00205A
:10149000014800F0C1BD0000F80B0020014800F039
:1014A000BBBD0000D80A00200C480D4A0168D014CA
:1014B000914202D90A494C3904E00A4A914203D9BF
:1014C0000749503908607047064B064A603BB83AF6
:1014D000994201D9D060704790607047700D00202C
:1014E00058640240B8600240014800F095BD000019
:1014F000980B002001681823CAB2103AB2FBF3F22D
:10150000054B6FF30901032A9B5CC36500D9091DD4
:101510008165084670470000CC5C000810B50146A4
:1015200000208B698A6A4FF0C07453B1B3F5005F35
:1015300015D072B1012A0CD0022A0AD0032A09D18F
:1015400004E01AB1012A06D0022A03D1C96AC901EE
:1015500000D5012010BDC96AA142FAD010BD002AF1
:10156000F7D0012AF2D0022AF3D0032AF3D010BD1B
:1015700030B50468256825F480252560046863601B
:101580008368402B036803D099600068C26030BD57
:101590009A600068C16030BD7047000090ED081A85
:1015A00030EE412AB5EEC02AF1EE10FA01DD01213C
:1015B00000E0002190F834209FED463A91420CD093
:1015C000B5EEC02A80ED0E3AF1EE10FA01DD0121F0
:1015D00000E0002180F8341005E090ED0E0A30EEB6
:1015E000200A80ED0E0AD0ED003A9FED3B0A9FEDF8
:1015F0003B4A3C4AC0EE231A90ED0E0A20EE001A38
:1016000061EE002AB7EE001AB0EE410A02EE840A3B
:101610009FED334A02EE841A10EE101AF2EE0E2AF3
:10162000914201DDB0EE620A11EE101A914201DD25
:10163000B0EE621AB4EEE10AF1EE10FA01DDB0EE9E
:10164000610A23EE800A60EE021A90ED010A20EE94
:10165000010A20EE021AB1EE002A60EE822A81EE23
:10166000A20AF0EEC12AF0EEC03AF4EEE32AF1EE5F
:1016700010FA04DDB0EE401AF0EE431A03E021EE5A
:10168000020A40EE601AB0EE602A002100EB8102EF
:10169000491C92ED090AC9B2032930EE210A02EE73
:1016A000010A32EE202A82ED080AEFD390ED060AF5
:1016B00042EE011A30EE010A80ED060AD0ED052A4D
:1016C00032EEA11A80ED051A80ED0B1AC0ED0C0A5E
:1016D00070470000000000006666663F0000FA43A5
:1016E00000409C450000704110B503F059FB0449CF
:1016F0000020C1F8B802BDE81040042000F010BE80
:10170000008042424FF4807000F00ABE10B558B11C
:10171000084C491E0BD310F8013B5340DBB234F8A0
:10172000133083EA1222F4E74FF6FF7010BD104623
:1017300010BD00003C5F000810B5054C04E000BF80
:1017400010F8013B5340E25C491EF9D2104610BD2F
:101750003C5E00082DE9F04103F0EEFF6E4DA5F16F
:10176000BC0095ED1F0A02F087FEA5F1BC006B4995
:1017700090ED000A2C1D85ED020AD5ED0B0AC5ED92
:101780000C0AD5ED040A30EE600A85ED0B0AD5EDA2
:101790000C0A30EE601AD5ED0A0A30EE800A10EE1F
:1017A000100A85ED0A0A884202D39FED5D0A06E021
:1017B00010EE100A5B49884201DB9FED5B0A84ED65
:1017C000090AD4ED060AD4ED0A1A60EEA10AD4ED96
:1017D000071A41EE800A94ED080A40EE010AC4EDB2
:1017E0000C0A94ED0D0AF4EEC00AF1EE10FA06D9D7
:1017F00094ED0E0AF4EEC00AF1EE10FA01DBF0EE01
:10180000400AC4ED0C0A03F033FF434F9037A7F5AD
:10181000987097ED1F0A02F02FFE97ED030AA7F5C7
:101820008A70FFF73FFCA7F58A70A0F11C0190EDCC
:10183000070AD0ED0E0A3D4CD1ED011A80EE202AA8
:10184000D1ED000A90ED050A94ED011A384930EE09
:10185000C00A20EE010A90ED061A71EEC12A94ED3D
:10186000021A01EE220A30EE420A80ED0F0A10EE53
:10187000100A884202D99FED2F0A06E010EE100AE6
:101880002D49884201DD9FED2D0A41EE810A2C4E43
:1018900087ED0D0A301DC7ED020A02F029FB96ED17
:1018A0000D0A284910EE100A884204DA10EE100AD8
:1018B0002549884209D3D6ED030AF5EEC00AF1EEB8
:1018C00010FA02D10020207002E02078322806D2DF
:1018D000B1EE400AC0B286ED0D0A401C2070BDEE8C
:1018E000C00ADFED1A0A002310EE100A97ED0D0A68
:1018F00002B230EE200ABDEEC00A10EE100A95EDDD
:101900000D0ABDE8F041BDEEC00A01B210EE100AAA
:1019100000B2FFF771BC00006C02002000007AC525
:1019200000007AC500007A4500007A4534000020A6
:1019300000409CC600409CC600409C4600409C461F
:101940008C0300200000FA450000FAC500007A442C
:10195000F0B50A7D01209040344A136843F001033A
:101960001360136823F47C53136013684C6A43EAD2
:10197000042313602D4B1C331C6884431C602B4DC7
:101980002B4CCE690C35A6B92E6886432E608F8904
:101990004E6867F31F464F6904EBC707C7F84066F8
:1019A0000F890E6867F31F464F6904EBC707C7F836
:1019B0004466CE69012E14D12E6806432E600E882F
:1019C0004D6866F31F454E6904EBC606C6F84056DF
:1019D0000E89CD6866F31F454E6904EBC604C4F852
:1019E0004456124C8D69241D002D256806D00543F0
:1019F00025600E4C0D69143415B104E08543F7E7FA
:101A00002568854325600D69012D02D125680543B0
:101A10002560096A012902D119680143196010681B
:101A200020F0010010600020F0BD000000660040C2
:101A3000006000407047000010B50446006841692E
:101A4000C943C90714D182685849914368D000211D
:101A50008368574A9A4365D0002283685548984363
:101A600062D000201143014302D02046FFF7C8FC9A
:101A70002068C168406911F0030FC0F3400004D032
:101A800018B100212046FFF727FC21680869496941
:101A900010F0030FC1F3001104D019B10121204649
:101AA000FFF71AFC20688169426911F0010FC2F347
:101AB00000234269C2F3C03205D023B11AB1E16BF1
:101AC00041F00101E1638169C1F340034169426969
:101AD000C1F34021C2F3C0322BB121B11AB1E16B85
:101AE00041F00201E16381694269C1F38001C2F3FF
:101AF00080234269C2F3C03229B123B11AB1E16B2C
:101B000041F00401E163816911F0700F0ED00021F2
:101B100042694369C2F3C022C3F3C03341B127E035
:101B2000012195E7012298E701209BE70121EFE7DA
:101B3000F2B1EBB1816901F07001402929D006DCD6
:101B4000102909D020290BD030290DD11DE05029B2
:101B500023D0602908D124E0E16B41F0080102E0C4
:101B6000E16B41F01001E163816921F07001816155
:101B7000E06B002808D0216804204860012084F828
:101B800038002046FFF756FF10BDE16B41F0200101
:101B9000E9E7E16B41F04001E5E7E16B41F08001ED
:101BA000E1E7E16B41F48071DDE700000300000430
:101BB00000030008000003102DE9F041040004D0E8
:101BC00094F83800002518B107E00120BDE8F08145
:101BD00084F83950204600F093F8022084F8380049
:101BE0002068016821F0020101602068016841F06D
:101BF0000101016000F08CFC0746032605E000BFF0
:101C000000F086FCC01B0A2863D820684068C00723
:101C1000F6D020684168C90768D0A1690129016828
:101C20003FD021F080010160E0690128206801684F
:101C30003AD021F040010160206A01282068016843
:101C400035D021F020010160606A01282068016818
:101C500030D021F010010160A06A012820680168DD
:101C60002BD021F008010160E06A0128206801689A
:101C700026D021F004010160D4E902010843D4E92F
:101C80000412114308436168491E08432168C86172
:101C90002068016821F00101016000F039FC07466D
:101CA0001CE041F08001BEE741F04001C3E741F094
:101CB0002001C8E741F01001CDE741F00801D2E76B
:101CC00041F00401D7E700BF00F022FCC01B0A2846
:101CD00004D904F8386F0320657077E720684068FE
:101CE000C007F1D120684068C00703D0042084F801
:101CF00038006AE7E563012084F83800002065E7D2
:101D000010B504460068104986B088421AD10F48C1
:101D10000021026842F0007202600068022200F0B6
:101D2000007005900320CDE90210CDE900020920E2
:101D300004906946064800F0FFFA2068416941F0C6
:101D40000201416106B010BD00640040403802400D
:101D5000000C024003461A4800B583422FD1586B4D
:101D6000816839BBC16829BB0168A1F500710539DB
:101D700004D0012904D002291CD103E0114916E046
:101D8000114914E0808A40BA00B200EE100A0F48F0
:101D9000B8EEC00A80ED160A596BC98A49BA09B271
:101DA00000EE101A0146B8EEC00A80ED030A18468C
:101DB000FFF752FA1868416941F00201416100BD24
:101DC000E40700206C020020FC0200208C030020AD
:101DD0002DE9F05F0E46016804468868400105D48D
:101DE0008868000102D48868C00067D594F839007B
:101DF00001280ED0012784F8397094F83800222881
:101E00000AD0122084F838008868400106D50025E1
:101E10000AE00220BDE8F09F3220F3E78868000165
:101E200001D5012500E002254FF4C07000EB05103C
:101E30000A5802F001020A50216B8A68EAB3D4F80A
:101E400000C05CF800301343CA68496842EAC10127
:101E50000B434CF80030216B0A7C02F00F020A6140
:101E60004FF4C271226801EB0511535823F00F03A0
:101E7000535022685358D4F830C0DCF810C043EAFD
:101E80000C035350216B4FF4C47303EB05130A7D0D
:101E9000D1F8151042EA01212268D150216B4FF48C
:101EA000C67303EB05130A7ED1F8191042EA01212B
:101EB0002268D15021680A5801E00DE046E042F066
:101EC00001020A5000F024FB81464FF00008DFF8C1
:101ED00088A0DFF888B019E022681358D1F80CC048
:101EE000098843EA0C0343EA41511150B3E7701CDF
:101EF0000CD02EB100F00CFBA0EB0900B04205D9CC
:101F0000032084F8380084F8398083E795B120688D
:101F1000012D816813D0124888430028E7D194F836
:101F2000380032280ED084F8387000BF84F8398029
:101F300000206FE7206881682AEA0100EDE72BEABC
:101F40000100EAE7222084F83800EFE7042084F853
:101F5000380001205EE700000300000400030008D1
:101F60000000031070472DE9F0410446876D00F032
:101F7000CFFA064694F835000025022806D08020C6
:101F8000606584F834500120BDE8F0812068016864
:101F900021F0160101602068416921F08001416152
:101FA000206C08B9A06C20B12068016821F00801FC
:101FB00001602068016821F0010101600BE000F080
:101FC000A7FA801B052806D92020606504F8345F35
:101FD00003206070D8E720680068C007EFD194F84C
:101FE0005C103F208840B86004F8345F01206070C6
:101FF0000020C9E790F83510022903D080214165FF
:1020000001207047052180F835100068016821F033
:1020100001010160002070472DE9F84304464FF0AC
:102020000008CDF8008064484FF41651A56D006893
:10203000B0FBF1F72E6894F85C10082000FA01F16B
:1020400031420FD021680A6852070BD50A6822F086
:1020500004020A6094F85C108840A860606D40F04B
:102060000100606594F85C1054488840304208D004
:1020700021684969090604D5A860606D40F0020036
:1020800060654E4894F85C10C01C8840304208D00F
:1020900021680968890704D5A860606D40F00400D4
:1020A000606594F85C1010208840304218D0216898
:1020B0000968090714D5A86020680168490304D598
:1020C0000068000308D5A16C07E00168C90503D4C6
:1020D000016821F008010160216C09B120468847A0
:1020E00094F85C102020884030424FF0010631D037
:1020F00021680968C9062DD5A86094F8350005281F
:102100002068016806D0490347D5006800031DD444
:10211000616C1CE021F0160101602068416921F02A
:1021200080014161206C08B9A06C20B12068016871
:1021300021F00801016094F85C103F208840A860FD
:1021400084F8348084F83560216D1FE0E16B09B1BB
:1021500020468847606D00282BD0606DC00714D0E2
:10216000052084F835002068016821F00101016034
:102170000098401C0090B84203D820680068C0074F
:10218000F6D184F8348084F83560E16C002910D0F1
:1021900001B02046BDE8F04308470168C905D5D421
:1021A000016821F01001016084F8348084F8356002
:1021B000CCE7BDE8F88300000800002001008000A3
:1021C0002DE9F041044600F0A3F906465CB1002574
:1021D00084F83450022084F835002068016821F02A
:1021E000010101600DE00120BDE8F08100F090F9EF
:1021F000801B052805D920206065032084F8350060
:10220000F2E720680068C007F0D1226811681F4813
:102210000140D4E901031843D4E90336334318439A
:1022200063691843A3691843E3691843236A184391
:102230000843616A042903D1D4E90B131943084305
:10224000106020684069666A20F0070130460E433E
:10225000012704280AD1A06A06432046FFF75EF949
:1022600020B14020606584F83570BCE72068466185
:102270002046FFF73FF994F85C203F2191408160B0
:10228000656584F835700020AEE700003F8010F0EF
:102290002DE9F0410446866D90F8340000250128B0
:1022A0000DD0012084F8340094F835700020012FFF
:1022B00007D084F8340002252846BDE8F0810220CA
:1022C000FBE7022784F8357060652046FFF750F978
:1022D00094F85C103F208840B0602068016841F0AD
:1022E000160101602068416941F080014161206C64
:1022F00020B12068016841F0080101602068016890
:1023000041F001010160D7E731B500F001F9044661
:1023100000F0FEF80099001B8842F9D338BD7047E1
:10232000044910B50A68024202D00860FFF7F7FFBF
:1023300010BD0000143C01402DE9F84FDFF890B1CA
:1023400000224FF001084FF0030A4FF00F090BF184
:10235000040E00BF0B6808FA02F42340A3426ED1BA
:102360004D68022D01D0122D0ED1D50800EB850C41
:10237000DCF820505607F70E09FA07F6B5430E6948
:10238000BE402E43CCF82060066855000F790AFA4B
:1023900005FC07F0030726EA0C06AF403743076049
:1023A0004E68012E05D0022E03D0112E01D0122E20
:1023B0000ED18768CE6827EA0C07AE403E438660A0
:1023C0004668A6430C79C4F3001494403443446037
:1023D000C4688E6824EA0C04AE402643C6604C688C
:1023E000E4006FD53B4C256845F4804525602468A2
:1023F00022F0030504F480440094374C2E19D6F8DB
:10240000084895072F0F09FA07F5AC43334DA8424A
:1024100001D100252EE0324DA84201D1012529E04D
:10242000304DA84201D1022524E02F4DA84201D110
:1024300003251FE02D4DA84202D104251AE041E0FA
:102440002B4DA84201D1052514E02A4DA84201D107
:1024500006250FE0284DA84201D107250AE0274DA7
:10246000A84201D1082505E0254DA84201D1092542
:1024700000E00A25BD402543C6F80858DBF80040B7
:102480005D464E689C43F60300D51C432C60DEF885
:10249000004075464E689C43B60300D51C432C6033
:1024A0000B4D08352C684E689C43F60200D51C4342
:1024B0002C60074D0C352C684E689C43B60200D545
:1024C0001C432C60521C102AFFF444AFBDE8F88F67
:1024D000003C01404438024000300140000002400E
:1024E0000004024000080240000C024000100240BC
:1024F0000014024000180240001C0240002002406C
:10250000002402400AB1816170470904FBE7000022
:102510000148006870470000000000200248016880
:10252000491C016070470000000000200B4810B5F6
:10253000016841F400710160016841F4806101604B
:10254000016841F480710160032000F091F80020DF
:1025500000F006F800F018F8002010BD003C024022
:1025600010B5044607484FF47A710068B0FBF1F0EB
:1025700000F03DFB00222146501E00F059F80020DB
:1025800010BD00000800002070472DE9F0411646FC
:102590000F46040004D094F83900002518B107E074
:1025A0000120BDE8F08184F83850204600F0CEFFCD
:1025B000242084F839002068C16821F40051C160EA
:1025C000204602F095F92068016921F490410161EB
:1025D0002068416921F02A0141612068016921F0E8
:1025E0000F01016120680169394301612068C168F8
:1025F00021F40061C1602068C1683143C160206876
:10260000C16841F40051C160E563202084F83900BD
:1026100084F83A000020C4E700F01F020121914035
:102620004009800000F1E020C0F800117047000070
:10263000F0B40E4B1B680C46C3F30223C3F107052D
:10264000042D00D90425191D072901D2002300E01B
:10265000DB1E012606FA05F1491E214099409E40E5
:10266000761E16403143F0BC01F091BC0CED00E049
:10267000064900F0070208684FF6FF03184040EAD9
:102680000220034A10430860704700000CED00E090
:102690000000FA052DE9F047DFF8649105460F4682
:1026A000D9F8000000F00F01F8B28046B94208D214
:1026B000014689F80010D9F8000000F00F00B84278
:1026C00074D128784F4C800705D52068A96820F080
:1026D000F000084320602878C00759D0494968684D
:1026E000083901281AD002281BD0032819D00968FC
:1026F000890700295ADA216821F00301014321608A
:10270000FFF706FF6968064641F28830012911D0BB
:1027100002291DD00329824627D035E009688903A4
:10272000E7E709688901E4E7FFF7F2FE811B5145FD
:1027300001D926E082462068C0F381000128F3D148
:1027400026E000BFFFF7E4FE811B514501D918E0E8
:1027500082462068C0F381000228F3D118E000BF50
:10276000FFF7D6FE811B51450BD82068C0F38100CE
:102770000328F5D10CE000BFFFF7CAFE811B5145CD
:1027800002D90320BDE8F087206810F00C0FF3D1C8
:10279000D9F80010484601F00F01B94208D980F875
:1027A0000080006800F00F00B84201D00120E9E786
:1027B0002878400705D52068E96820F4E0500843F0
:1027C00020602878000706D52068296920F4604039
:1027D00040EAC100206000F051F82168F02292FA2E
:1027E000A2F201F0F001B2FA82F2D140064A515C45
:1027F000C840064908600020FFF7B2FE0020C1E78C
:10280000003C024008380240BC5C00080800002080
:102810000148006870470000080000200848094986
:10282000006809684FF4E05292FAA2F201F4E05114
:10283000B2FA82F2D140044A515CC84070470000AD
:102840000800002008380240BC5C0008084809491C
:10285000006809684FF4604292FAA2F201F4604104
:10286000B2FA82F2D140044A515CC840704700007D
:102870000800002008380240BC5C000830B5194848
:10288000006810F00C01184812D0184C04290ED022
:1028900008290DD11349091F0A6802F03F030A688D
:1028A000550247F6C07204D5B4FBF3F003E02046AE
:1028B00030BDB0FBF3F00B680968134092FAA2F246
:1028C000B2FA82F2D34058434FF4403292FAA2F265
:1028D00001F44031B2FA82F2D140491C4900B0FB08
:1028E000F1F030BD083802400024F400001BB700AE
:1028F0002DE9F84F0446DFF8CC820078A8F1040BEC
:10290000C007ABF1040537D0D8F800104046C1F33A
:102910008101012908D00068C0F3810002280AD192
:10292000DBF80000400206D52868800324D56068E3
:10293000002878D020E0A3492079891F08706068BA
:1029400068B1FFF7E5FD064605E000BFFFF7E0FDD3
:10295000801B642868D828688003F7D50CE0FFF74F
:10296000D7FD064605E000BFFFF7D2FD801B6428B7
:10297000F0D828688003F7D42078934E80074FF072
:10298000010A4FF0000742D5D8F80010404611F078
:102990000C0F08D00068C0F3810002280AD1DBF8D0
:1029A0000000400206D42868800714D5E06801289A
:1029B00039D110E0E068D8B1C6F800A0FFF7A8FD53
:1029C000814605E0FFF7A4FDA0EB09000228C1D86D
:1029D00028688007F6D52868F82292FAA2F22169C1
:1029E000B2FA82F220F0F8009140084328600EE02D
:1029F0003760FFF78DFD814606E000BFFFF788FDD9
:102A0000A0EB090002280FD828688007F6D42078A8
:102A1000000728D56D486169A1B1C0F800A0FFF793
:102A200077FD814608E0CAE079E000BFFFF770FD5E
:102A3000A0EB0900022872D862486C300068800759
:102A4000F4D510E00760FFF763FD814606E000BFA4
:102A5000FFF75EFDA0EB0900022860D859486C30F2
:102A600000688007F4D42078400749D555483830AD
:102A7000016841F080510160006800F080500090D2
:102A80005348016841F480710160FFF741FD8146C0
:102A900006E000BFFFF73CFDA0EB090002283ED88E
:102AA0004B480068C005F5D5DFF81891207A09F188
:102AB000680989F80000A06888B1FFF729FD009037
:102AC00008E000BFFFF724FD0099411A41F2883069
:102AD00081426CD8D9F800008007F3D510E0FFF7E9
:102AE00017FD009008E000BFFFF712FD0099411AA2
:102AF00041F2883081425AD8D9F800008007F3D4D7
:102B0000A069E0B3D8F80010C1F38101022956D0C2
:102B10000228376604D0FFF7FBFC04464AE046E093
:102B2000FFF7F6FC074604E0FFF7F2FCC01B0228A3
:102B30003DD828688001F7D4D4E90701084347F657
:102B4000C07292FAA2F2616AB2FA82F29140A26A6B
:102B50004FF0FF3303EB52024FF4403393FAA3F3E9
:102B6000B3FA83F39A40114308434FF0706292FA2C
:102B7000A2F2E16AB2FA82F29140084300E01CE05E
:102B8000CBF80000C6F860A0FFF7C2FC044604E0E2
:102B9000FFF7BEFC001B022809D828688001F7D582
:102BA0000BE000BFFFF7B4FC001B022802D9032092
:102BB000BDE8F88F28688001F4D40020F8E70120F0
:102BC000F6E700000838024000004742800E474206
:102BD000007000404FF0E0210428086903D020F085
:102BE00004000861704740F00400FAE7704710B530
:102BF000401EB0F1807F01D3012010BD4FF0E024D2
:102C000060610F21601701F0C2F90020A061072068
:102C10002061002010BD10B5FFF7E8FF10BD704720
:102C2000704730B590F83820012A20D0012280F872
:102C30003820022380F8393003685C6824F070047F
:102C40005C6003685C680D682C435C6003689C688A
:102C500024F080049C6003689C6849680C439C6075
:102C600080F83920002180F83810084630BD022055
:102C700030BD10B5040003D094F8390010B107E05E
:102C8000012010BD002084F83800204600F00CF828
:102C9000022084F83900211D206801F021FC012068
:102CA00084F83900002010BD00B5144A01681448AA
:102CB00087B0914209D1016841F0020101600068CA
:102CC00000F00200059007B000BD0E4A9142FAD113
:102CD000016841F0080101600068694600F00800E1
:102CE00005904FF440600090022001900290039004
:102CF00004900548FFF720FBE5E7000000040040D2
:102D000040380240000C0040001C02400168CA68C4
:102D100042F00102CA600068016841F001010160EF
:102D20000020704770B5044690F83800012817D08D
:102D3000012584F83850022084F839002068826820
:102D400022F0770222F47F4282600868502837D050
:102D50000DDC202859D005DC88B3102841D151E082
:102D6000022070BD302853D040283AD13FE060287F
:102D70002ED070280BD0B0F5805F03D0B0F5005F87
:102D80002FD110E02068816821F0070115E0CB68A1
:102D9000D1E90121206801F00EFC2168886840F02B
:102DA000770088601DE0CB68D1E90121206801F03F
:102DB00002FC2068816841F48041816011E01EE0DE
:102DC000CA684968206801F0BFFC5021206806E00D
:102DD000CA684968206801F0C8FC6021206801F0D9
:102DE000F4FB84F83950002084F8380070BDCA68BC
:102DF0004968206801F0A8FC40212068EFE7002125
:102E00002068ECE710212068E9E720212068E6E748
:102E100030212068E3E700002DE9F04107462DED61
:102E2000088B0068664988427ED1387E9FED65BA7E
:102E30009FED658AF7EE008A9FED649AF1EE0C9A99
:102E40009FED63AA0026634DF1EE04AA012856D136
:102E5000614C0021614894ED000A84ED010A00F004
:102E60006AFA00EE100A00215C48B8EE400A84EDD0
:102E7000000A00F0B5F894ED010AB5EEC00AF1EED3
:102E800010FA02D184ED02BA39E0D4ED000AF4EE72
:102E9000C00AF1EE10FA02DD30EEC00A05E070EE75
:102EA000880A30EEC00A30EE280A4B4884ED020A48
:102EB000F0EE400A696889EE200A303800EB8102A2
:102EC000491C0529C0EE290A20EE8A0A82ED000A73
:102ED000696090EC020A30EE200AD0ED020A30EE72
:102EE000200AD0ED030A30EE200AD0ED040A30EEBD
:102EF000200AC0EE2A0AC0ED050A00D16E60387EB5
:102F000002281ED1344C04210C34344894ED000ABC
:102F100084ED010A00F00FFA00EE100A0021B8EE6D
:102F2000400A84ED000A00E00BE02C4800F058F85D
:102F300094ED010AB5EEC00AF1EE10FA05D184ED68
:102F400002BABDEC088BBDE8F081D4ED000AF4EEC6
:102F5000C00AF1EE10FA02DD30EEC00A05E070EEB4
:102F6000880A30EEC00A30EE280A1B4884ED020AB7
:102F7000F0EE400AA96889EE200A183800EB8102B9
:102F8000491C0529C0EE290A20EE8A0A82ED000AB2
:102F9000A96090EC020A30EE200AD0ED020A30EE71
:102FA000200AD0ED030A30EE200AD0ED040A30EEFC
:102FB000200AC0EE2A0AC0ED050AC2D1AE60C0E701
:102FC000000C00400000000000FF7F47002474490F
:102FD0000000704244000020740600209C0800207D
:102FE00010B50268044631B1042908D0082915D06B
:102FF0000C2908D116E0D06840F0020002E0D06849
:1030000040F00400D0600122206801F0C9FA206875
:10301000016841F001010160002010BDD06840F05E
:103020000800EFE7D06840F01000EBE770B5044609
:10303000006801694FF00005C943890715D4C168CC
:10304000C943890711D4E91E016101202076206857
:1030500080698007204602D0FFF7DEFE04E000F022
:10306000B3F8204600F048F9257620680169C94385
:10307000490717D4C168C943490713D46FF0040145
:103080000161022020762068806910F4407F20468C
:1030900002D0FFF7C1FE04E000F096F8204600F0F1
:1030A0002BF9257620680169C943090716D4C16840
:1030B000C943090712D46FF008010161042020768A
:1030C0002068C0698007204602D0FFF7A5FE04E013
:1030D00000F07AF8204600F00FF9257620680169A3
:1030E000C943C90617D4C168C943C90613D46FF0D0
:1030F00010010161082020762068C06910F4407F2B
:10310000204602D0FFF788FE04E000F05DF820467C
:1031100000F0F2F8257620680169C943C90708D193
:10312000C168C943C90704D1891E0161204600F066
:1031300001F920680169C943090609D4C168C94376
:10314000090605D46FF0800101612046FFF767FD95
:1031500020680169C943490609D4C168C9434906C1
:1031600005D46FF040010161204600F006F92068A7
:103170000169C94389060BD4C168C943890607D4CC
:103180006FF0200101612046BDE87040FFF748BDA7
:1031900070BD000000B50068094985B088420CD1B7
:1031A0004FF44050009002200021CDE90101CDE90B
:1031B000031069460348FFF7BFF805B000BD0000E3
:1031C00000080040000C0240704770B5044690F8BB
:1031D00038000D4601280DD0012684F83860022001
:1031E00084F8390042B1042A18D0082A2AD00C2ABF
:1031F0004DD139E0022070BD206801F0EFF9206860
:10320000816941F0080181612068816921F0040130
:103210008161206881692A69114311E0206801F009
:1032200009FA2068816941F400618161206881693F
:1032300021F480618161206881692A6941EA022163
:10324000816124E0206801F027FA2068C16941F01B
:103250000801C1612068C16921F00401C1612068D1
:10326000C1692A69114311E0206801F045FA20681C
:10327000C16941F40061C1612068C16921F48061C4
:10328000C1612068C1692A6941EA0221C16184F8EB
:103290003960002084F8380070BD10B5040003D0F8
:1032A00094F8390010B107E0012010BD002084F827
:1032B0003800204600F00CF8022084F83900211D67
:1032C000206801F00DF9012084F83900002010BDBC
:1032D00008B500680649884208D10648016841F0EF
:1032E00004010160006800F00400009008BD0000C7
:1032F00000080040403802407047000010B5044606
:103300000068012201F04CF908492068884202D087
:103310000749884203D1416C41F40041416420686F
:10332000016841F001010160002010BD0000014072
:1033300000040140704790F838300022012B0AD079
:10334000012380F8383041B1042909D008290AD076
:103350000C290DD10AE00220704701684A6B07E092
:1033600001688A6B04E00168CA6B01E001680A6CBD
:10337000002180F8381010467047704710B5044699
:103380000068416994F83920C1F3C011212A0BD19A
:1033900051B1416921F080014161206B08B1FEF714
:1033A000E2FD204601F055FA2068416994F83A2080
:1033B000C1F38011222A0BD151B1416921F04001A2
:1033C0004161606B08B1FEF7CEFD204601F033FA93
:1033D000002010BD7047000070B5026804461068F8
:1033E000D168536910F00F0F50D003F0010501F4BC
:1033F000907635435DD0C20705D0CA0503D5E26B90
:1034000042F00102E263420705D5DA0703D0E26B1E
:1034100042F00202E263820705D5DA0703D0E26BCD
:1034200042F00402E263020705D5DA0703D0E26B3B
:1034300042F00802E263E26B002A33D0800604D532
:10344000880602D5204601F00DFA20684069E16B3C
:10345000C0F38010090700D428B3204601F0EBF92F
:103460002068416949061AD5416921F0400141614E
:10347000606BA0B11B490165606BFEF7BBFD0028C6
:1034800010D0606B016DBDE870400847830610D511
:103490008B060ED52046BDE8704001F0E3B920460A
:1034A000FFF798FF70BD2046FFF794FF0020E06310
:1034B00070BD030606D50B0604D52046BDE8704056
:1034C00001F06CBB4006F3D54806F1D5D168204623
:1034D00021F04001D160202184F8391000F05BFA1E
:1034E00070BD00009747000870B5040004D094F840
:1034F0003900002510B106E0012070BD84F8385075
:10350000204600F023F8242084F839002068C168A0
:1035100021F40051C160204601F0EAF920680169F8
:1035200021F4904101612068416921F02A01416143
:103530002068C16841F40051C160E563202084F82F
:10354000390084F83A00002070BD00002DE9F04FEA
:103550000546AA4A0221D0F800C0DFF8A4B2012330
:10356000032000244E0287B04FF008094FF0206777
:10357000944555D1DBF800C0A2464CF0200CCBF8A6
:1035800000C0DBF80020CDE9023002F020020592F5
:103590004FF48442CDE90021CDF810906946994856
:1035A000FEF7CAFEDFF8649297494846C9F8001052
:1035B000C0E90174C0E90346B846C9F81440B70130
:1035C000C9F81840C9E90747C9F82440FEF7F8FDD3
:1035D00018B196218EA001F08FFB8C4C8A48C5F85B
:1035E0003490603C7830C9F83850C4E90008402075
:1035F000A060C4E903A6C4F814A0C4F818A0C4E9E4
:1036000007A72046C4F824A0FEF7DAFD18B1A821C8
:103610007FA001F071FB2C63A56307B0BDE8F08FBC
:10362000774ADFF80082121F4FF0070AC4452ED1F7
:10363000176847F4802717601268CDE9023002F45A
:10364000802205924FF44072CDE90021CDF810A000
:1036500069467548FEF770FE6C4F7448C03F38608D
:103660004FF00060C7E90104C7E903467C61C0125E
:10367000BC61C7E9074038467C62FEF7A1FD18B17E
:10368000CC2163A001F038FB6F63BD63C5E7DFF8B1
:10369000A081DFF8A0E1C44538D1136843F080432E
:1036A00013601268CDE9024002F0804205924FF4A7
:1036B000C072CDE90021CDF8109069467046FEF742
:1036C0003BFEDFF84881594908F160083031404637
:1036D000C8F80010C0E90174C0E90346C8F81440F6
:1036E000C8F81840C8F81C40C8F82040C8F8244062
:1036F000FEF766FD20B14FF48A7145A001F0FCFA97
:10370000C5F834804C48C8F838503AE0DFF82C81CE
:10371000C4453CD1D2F800C04CF0004CC2F800C007
:10372000126802F0004205928DE80B00CDE9030912
:1037300069467046FEF700FEDFF8D0803B4908F18D
:10374000C00878314046C8F80010C0E90174C0E9EB
:103750000346C8F81440C8F81840C8F81C40C8F818
:103760002040C8F82440FEF72BFD20B14FF49D7196
:1037700027A001F0C1FA3048C5F834804030C8F8BD
:1037800038500068C16841F01001C16045E72C4A1B
:103790009445FBD1DBF8003043F01003CBF8003048
:1037A000DBF80020CDE9024002F010020592C022B1
:1037B000CDE90021CDF810A069462248FEF7BCFDF6
:1037C0001D4F11488037183038604FF00060C7E94E
:1037D0000104C7E903467C61BC61FC613C62384678
:1037E0007C62FEF7EDFC20B140F2611108A001F00F
:1037F00083FA11486F63C038BD63C2E7001401400B
:10380000443802400018024028640240F80B0020AF
:103810002E2E5C4150505C5372635C757361727400
:103820002E63000000480040000C02402860024067
:103830000078004000100240580A0020007C004040
:10384000001001400004024070B5044690F83A00B0
:10385000202839D1A9B3A2B394F83800012833D075
:10386000012084F83800A162A2850025E5632220AA
:1038700084F83A00636B1548D863636B1448186486
:10388000636B1448D864606B134605650846666B25
:10389000216802463046091DFEF7FAFC2068C1681F
:1038A00041F48071C1602068416941F001014161CA
:1038B0002068416941F04001416184F8385000209E
:1038C00070BDFFE70120FBE70220F9E7F1470008A0
:1038D0002D480008A7470008704770472DE9F843B6
:1038E000044690F839001E4617460D46202850D150
:1038F00035B32FB394F8380001284AD0012084F85A
:1039000038004FF00008C4F83C80212084F83900CA
:10391000FEF7FEFDA784E78481464FF48057E08CD4
:103920004B46401EE084A0684FF00002B8424FF0C2
:1039300080012046009611D101F061F900BB02E040
:103940000120BDE8F8832888C0F3080120684160A1
:10395000206908B16D1C08E0AD1C06E001F04FF9CC
:1039600070B9216815F8010B4860E08C0028D6D1A9
:103970004B46002240212046009601F040F908B154
:103980000320DEE7202084F8390084F83880002006
:10399000D7E70220D5E77047FEE7000038B51B489F
:1039A00000680168C943C9062ED401684068184CF4
:1039B0000090184A21684FF40010914202D915492D
:1039C0004C3904E0144A914203D912495039086035
:1039D00008E0114B104A603BB83A994201D9D060D7
:1039E00000E090600948FFF7C9FC20684068282281
:1039F000C0F1280409490548FFF726FF1A2C03D116
:103A0000BDE8384000F00CB838BD0000980A00202E
:103A1000B80C002058640240B86002408C060020B8
:103A20000C4801785A2914D14178A52911D18179FE
:103A3000B02902D1B0F809104185417BD92908D1BC
:103A4000D0F80E100163D0F812104163D0F81610B0
:103A5000816370478C06002080ED0E0A9FED060AF8
:103A600080ED002A80ED070A80ED060A80ED050A48
:103A70002C30C0EC030A704700000000114810B55C
:103A80000F4901600221416000214FF45022816002
:103A9000C0E903124FF4A002C0E905210122C1616F
:103AA000C0E90812C0E90A12FEF786F8002805D01E
:103AB000BDE810401A2104A001F01EB910BD00009D
:103AC00000640040E40700202E2E5C4150505C53FF
:103AD00072635C63616E2E6300000000094808B5E4
:103AE000016841F480010160016801F480010091E6
:103AF000016841F400110160006800F400100090BA
:103B000008BD0000303802402DE9F041374886B04A
:103B10000024016841F001010160016801F0010128
:103B20000591016841F002010160016801F00201A4
:103B30000591016841F004010160016801F0040190
:103B40000591016841F008010160016801F0080178
:103B50000591016841F010010160016801F0100158
:103B60000591016841F020010160016801F0200128
:103B70000591016841F040010160016801F04001D8
:103B80000591016841F08001016000684FF4005523
:103B900000F08000059001260227DFF85480CDE96F
:103BA0000274CDE9005669464046FEF7C5FB002287
:103BB00029464046FEF7A6FC6D0003948DE8E00020
:103BC0000C4E69463046FEF7B7FB012229463046C7
:103BD000FEF798FC042000900748CDE901046946EF
:103BE0000648FEF7A9FB06B0BDE8F0813038024078
:103BF00000180240001402400000111000040240AE
:103C000010B5174886B01549016042F2CF01002473
:103C1000C0E901140921C0E90314FFF72AF818B11B
:103C20001C2110A001F068F84FF480500090694604
:103C30000B48FFF777F818B122210AA001F05CF8D1
:103C4000049404A906480594FEF7EBFF002803D06E
:103C5000292104A001F050F806B010BD0004004076
:103C6000240800202E2E5C4150505C5372635C741B
:103C7000696D2E630000000010B524488AB0224907
:103C8000016053210024C0E9011440F2CF71C0E962
:103C90000314FFF702FB18B13B211DA001F02CF823
:103CA000079407A919480894FEF7BBFF18B14221F1
:103CB00017A001F021F8602000904FF47A70CDE950
:103CC00001040022694611480494FFF77EFA18B1F6
:103CD0004C210FA001F010F8042269460B48FFF7B1
:103CE00074FA18B151210AA001F006F80748FFF74D
:103CF00051FA00210548FFF701FB04210348FFF7B3
:103D0000FDFA0AB010BD0000000800406008002065
:103D10002E2E5C4150505C5372635C74696D2E634F
:103D2000000000000D4810B50B4901604FF4E1316F
:103D30004160002181600C22C160C0E904128161F0
:103D4000C161FFF7D1FB002805D0BDE810405D211F
:103D500003A000F0D1BF10BD00780040580A002039
:103D60002E2E5C4150505C5372635C7573617274AB
:103D70002E6300000D4810B50B4901604FF4E1318E
:103D80004160002181600422C160C0E904128161A8
:103D9000C161FFF7A9FB002805D0BDE810406F21E5
:103DA00003A000F0A9BF10BD007C0040980A0020CD
:103DB0002E2E5C4150505C5372635C75736172745B
:103DC0002E6300000E4810B50C4901600D4941609A
:103DD00000214FF480628160C0E903120422C0E92F
:103DE00005210A46C161FEF7D0FB002805D0BDE8D9
:103DF0001040242104A000F07FBF10BD001001403E
:103E000098090020A08601002E2E5C4150505C5382
:103E100072635C75736172742E6300000D4810B597
:103E20000B4901604FF4E1314160002181600C22B7
:103E3000C160C0E904128161C161FFF755FB002830
:103E400005D0BDE81040382103A000F055BF10BDDB
:103E500000480040D80900202E2E5C4150505C5391
:103E600072635C75736172742E630000FEE7D0EDBF
:103E7000001A31EE800A80ED000AB4EEE00AF1EE9D
:103E800010FA01DDC0ED000A90ED000AB4EEC10A9F
:103E9000F1EE10FA01D280ED001A7047D0ED001A51
:103EA00031EE800A80ED000AB4EEE00AF1EE10FA7D
:103EB00001DDC0ED000A90ED000AB4EEC10AF1EE9A
:103EC00010FA01D280ED001A704780ED010A7047A8
:103ED000C0ED0F1A80ED0E2A80ED214AC0ED204A78
:103EE00000F11C0181EC030A4831C1EC032A704740
:103EF00090ED0A0A214A80ED0B0AD0ED010A90EDFF
:103F0000021A70EEC10AC0ED0A0A30EEC01A90ED36
:103F1000090A30EE200A10EE101A80ED090A9142CB
:103F200002D39FED170A06E010EE101A154A9142CF
:103F300001DB9FED150A80ED090AD0ED061A61EE4E
:103F4000A00AD0ED071A41EE800A90ED080A40EE73
:103F5000010AC0ED0C0A90ED0D0AF4EEC00AF1EE74
:103F600010FA06D990ED0E0AF4EEC00AF1EE10FA3E
:103F700001DBF0EE400AC0ED0C0A704700007AC584
:103F800000007AC500007A4500007A4570470907AD
:103F9000090E002806DA00F00F0000F1E02080F89A
:103FA000141D704700F1E02080F80014704770473E
:103FB00030B500284AD0264901230B700288C2F38D
:103FC0000A04244A148044788578E40844EA4514B5
:103FD000C4F30A0454808478C578A40944EA8504AB
:103FE000057944EA8524C4F30A0494800479457968
:103FF000640844EAC514C4F30A04D4804479A409CB
:1040000094724479C4F30114D472C48894810489ED
:10401000D48144891482047B94744C782CB9447BF9
:10402000D474447B012C03D14B708B785B1C8B7058
:104030008B78322B02D900234B708B70817BC1F3BC
:1040400000119175C1899182008A108130BD0000F4
:10405000400000202A060020F8B506460024305D06
:10406000A52806D130190546052100F02DFE0128AE
:1040700001D0641C0DE0B5F80100ADF80000BDF8FA
:10408000001028460F46093100F000FE012802D03A
:10409000641DE4B206E0B5F80500ADF80000E019D3
:1040A0000930C4B2802CDAD3F8BD000038B51E4800
:1040B00000680168C943C9062DD40168002440681E
:1040C0001A4D00901A4A29684FF40010914202D903
:1040D00017494C3904E0174A914203D91449503921
:1040E000086008E0134B134A603BB83A994201D983
:1040F000D06000E090600C48FFF740F92868406805
:104100001E22C0F11E050C490748FFF79DFB0B4816
:10411000122D01D0047038BD01210170BDE8384076
:104120000548FFF745BF000098090020D80A002085
:1041300058640240B86002400C0600204000002095
:104140007047000010B5194CFF2204F11C01E07803
:10415000401CE070C870164890ED000AB8EEC00A26
:1041600010EE100AC4F80D001248807D6076A1F1AF
:104170003800C16901600421FDF7DEFA2071214693
:104180001A22A1F11C00FCF7F9FC4FF6FF721A216C
:10419000A4F11C00FDF7BAFA60832146BDE8104087
:1041A0001C22A1F11C00FCF7E9BC000078070020EC
:1041B000440000202A0600202DE9F0411F4800227B
:1041C0001F4CC17C012907D12168491C21600229AB
:1041D00000DD00212160C274C17A0126194D022937
:1041E00012D0206802280FD0032914D0012812D041
:1041F0004FF47A70E060C5F8B4221349E0680860B3
:10420000091D0860BDE8F081E06840F21451884261
:1042100010DA401C0DE0E06840F2E247B84204DAF0
:10422000401CE0600120FEF76FF8E068B84201DD55
:104230000A38E060C5F8B462DFE700002A06002013
:1042400044000020000043423408004010B5022220
:1042500001211420FEF7ECF91420FEF7DDF900220D
:1042600001212520FEF7E4F92520FEF7D5F90122EA
:1042700002212720FEF7DCF92720FEF7CDF90322E3
:1042800001214720FEF7D4F94720FEF7C5F90422A3
:1042900001215220FEF7CCF95220FEF7BDF9012290
:1042A00011465320FEF7C4F95320FEF7B5F9012259
:1042B00000211D20FEF7BCF91D20FEF7ADF90622F6
:1042C00001210E20FEF7B4F90E20FEF7A5F9012218
:1042D00011461120FEF7ACF91120FEF79DF90122DD
:1042E00002213920FEF7A4F93920FEF795F90822BA
:1042F00001213A20FEF79CF93A20FEF78DF90022C1
:1043000001213A20FEF794F93A20FEF785F90522BB
:1043100001211720FEF78CF91720FEF77DF9042202
:1043200001210820FEF784F9BDE810400820FEF7BF
:1043300073B910B5FEF7F2F8BDE81040FEF76BBC9C
:1043400030B5254893B00025016841F080510160E7
:10435000006800F0805011902048016841F440410D
:1043600001600068022400F4404011900120009098
:1043700001908005CDE906400C2008904FF4A8700C
:10438000CDE9090404200B906846FEF7B1FA00B1AC
:10439000FEE70CA90F2081E831004FF4A0500F90E8
:1043A0004FF48050109005210CA8FEF773F900B16E
:1043B000FEE7FEF72DFA4FF47A71B0FBF1F0FEF74D
:1043C00016FC0420FEF706FC00221146501EFEF7E4
:1043D0002FF913B030BD000040380240007000409B
:1043E0001048016841F4700101600F48016841F014
:1043F000010101600C4A00210832116002680B4B78
:104400001A400260031D0A4A1A60026822F48022E0
:10441000026005480C300160024958068039086086
:104420007047000088ED00E000380240FFFFF6FE14
:104430001030002400F1140181EC040A9FED0C0AF5
:1044400080ED0E0A80ED0D0A80ED0C0A80ED0B0A5E
:1044500080ED0A0A80ED090A9FED060A80ED040A44
:1044600080ED030A80ED020A80ED010A704700002A
:10447000A5D468530000000010B590ED002A90ED1F
:10448000031AD0ED010A044601EE202A80ED002A2D
:10449000D0ED041A32EE400A61EE211A90ED021AB4
:1044A00000F0C2FCD4ED010A94ED031A41EE000ABB
:1044B000C4ED010A10BD083080EC030A704700000B
:1044C00010B501F001FABDE810400148FEF7AEBD9D
:1044D000240800200148FEF7A9BD00009C08002028
:1044E000F0B50268234B244D244E254F254C4FF048
:1044F000804C984209D0604507D0A84205D0B04210
:1045000003D0B84201D0A04204D122F0700E4A6814
:1045100042EA0E0298421BD0604519D0A84217D03B
:10452000B04215D0B84213D0A04211D0164DA842C7
:104530000ED0164DA8420BD0154DA84208D0154DEF
:10454000A84205D0144DA84202D0144DA84203D170
:1045500022F44075CA682A4302608A68C2620A6807
:104560008262984201D0A04201D109690163012110
:104570004161F0BD0000014000040040000800401F
:10458000000C004000040140004001400044014094
:104590000048014000180040001C0040002000407E
:1045A00010B50123046A8B409C430462036A8A406D
:1045B0001343036210BD10B5846842EA032224F459
:1045C0007F440A432243826010BD826822F0700259
:1045D0000A4342F0070181607047000030B5026A6B
:1045E00022F001020262026A436884690D6824F0C5
:1045F0007304254322F002048A6822430B4CA04234
:1046000002D00B4CA0420BD122F00804CA6823F45C
:10461000407322434C6922F004021C438B692343FC
:104620004360856149684163026230BD000001401A
:104630000004014030B5026A22F010020262026AF0
:10464000436884690D6824F4E64444EA05248D68CF
:1046500022F0200242EA05120D4DA84202D00D4D73
:10466000A8420ED1CD6822F0800242EA05124D69BF
:1046700023F4406343EA85038D6922F0400243EA54
:1046800085034360846149688163026230BD000034
:10469000000001400004014030B5026A22F480723B
:1046A0000262036A4268C46923F4007324F073054C
:1046B0000C682C438D6843EA05230D4DA84202D0B7
:1046C0000C4DA8420ED1CD6823F4006343EA0523C4
:1046D0004D6922F4405242EA05128D6923F4806349
:1046E00042EA05124260C4614968C163036230BD99
:1046F000000001400004014030B5026A22F48052FB
:104700000262046A4268C3690D6823F4E64343EA1F
:1047100005238D6824F4005444EA0534084DA8426A
:1047200002D0084DA84204D14D6922F4804242EAE9
:1047300085124260C36149680164046230BD0000B3
:10474000000001400004014010B5036A046A24F02F
:1047500001040462846924F0F00444EA021423F0A2
:104760000A020A438461026210BD10B5036A23F095
:10477000100303628369046A23F4704343EA02323C
:1047800024F0A00343EA01118261016210BD01F02F
:1047900041B8FFF703B910B5806B0021C185C18412
:1047A000FEF718FE10BD70B5846B2068406994F860
:1047B0003910C0F3C0100025212904D118B1E584B7
:1047C000204600F046F82068406994F83A10C0F39B
:1047D0008010222904D118B1E585204600F02BF87D
:1047E000E06B40F01000E0632046FEF7F3FD70BD83
:1047F00010B50146806B09680968C90513D400210A
:10480000C1850168CA6822F48072CA6001684A6979
:1048100022F001024A6101684A6922F040024A61BD
:10482000202180F83A10FFF757F810BD10B5806BC3
:10483000FFF753F810BD0168CA6822F49072CA608D
:1048400001684A6922F001024A61202180F83A1089
:1048500070470168CA6822F0C002CA60202180F84F
:104860003910704710B590F83A10222901D0022073
:1048700010BD8168B1F5805F11D001690029016820
:104880001FD0496801F07F03816A4A1C82620B7065
:10489000C18D491E0904090CC18518D026E00269A2
:1048A000816A002A0268526805D0D2B20A80816A01
:1048B000491C8162ECE7C2F308020A80816A891C04
:1048C000F7E74A68816A4B1C83620A70E0E7016877
:1048D000CA6822F49072CA6001684A6922F0010233
:1048E0004A61202180F83A10FEF7F6FF002010BD43
:1048F0002DE9F04104460068016921F44052E16865
:10490000114301612168C86849F20C629043236930
:10491000A268E5691A4363692B431A430243CA60DC
:104920002168486920F44072A06910434861E16938
:104930006425B1F5004F9748974A21684FF0320837
:104940003FD0914201D081427CD1FDF77FFF00EB47
:10495000C00101EB001061688900B0FBF1F6FDF7C2
:1049600075FF00EBC00101EB001061688900B0FB2E
:10497000F1F0B0FBF5F06FF01801484306EB800151
:1049800008EB0110B0FBF5F000F0F006FDF75EFF5C
:1049900000EBC00101EB001061688900B0FBF1F091
:1049A000B0FBF5F006EB0016FDF750FF00EBC00181
:1049B00001EB001061688900B0FBF1F7FDF746FFDD
:1049C000D2E0914201D081423DD1FDF73FFF00EBA3
:1049D000C00101EB001061684900B0FBF1F0B0FBD1
:1049E000F5F00601FDF732FF00EBC00101EB00100E
:1049F00061684900B0FBF1F7FDF728FF00EBC0014B
:104A000001EB001061684900B0FBF1F0B0FBF5F07C
:104A10006FF01801484307EB800108EBC100B0FBC1
:104A2000F5F000F0F80006EB4006FDF70FFF00EB95
:104A3000C00101EB001061684900B0FBF1F7FDF720
:104A400005FF3CE055E0FDF7E9FE00EBC00101EB9E
:104A5000001061684900B0FBF1F0B0FBF5F0060111
:104A6000FDF7DCFE00EBC00101EB001061684900BE
:104A7000B0FBF1F7FDF7D2FE00EBC00101EB001037
:104A800061684900B0FBF1F0B0FBF5F06FF0180180
:104A9000484307EB800108EBC100B0FBF5F000F0E4
:104AA000F80006EB4006FDF7B9FE00EBC00101EB94
:104AB000001061684900B0FBF1F7FDF7AFFE00EBB5
:104AC000C00101EB001061684900B0FBF1F0B0FBE0
:104AD000F5F06FF01801484307EB800108EBC100C7
:104AE000B0FBF5F000F00700216830448860BDE8B5
:104AF000F081FDF793FE00EBC00101EB001061684F
:104B00008900B0FBF1F6FDF789FE00EBC00101EB77
:104B1000001061688900B0FBF1F0B0FBF5F06FF0B8
:104B20001801484306EB800108EB0110B0FBF5F0DB
:104B300000F0F006FDF772FE00EBC00101EB001083
:104B400061688900B0FBF1F0B0FBF5F006EB0016F0
:104B5000FDF764FE00EBC00101EB00106168890005
:104B6000B0FBF1F7FDF75AFE00EBC00101EB0010BE
:104B700061688900B0FBF1F0B0FBF5F06FF018014F
:104B8000484307EB800108EB0110B0FBF5F000F0A3
:104B90000F00A9E7001401400010014090F83910FF
:104BA000212901D0022070478168B1F5805F016A38
:104BB0000BD04A1C0262026809785160C18C491E00
:104BC0000904090CC1840ED017E009880268C1F3FA
:104BD0000801516001690029016A02D0491C016283
:104BE000ECE7891CFBE70168CA6822F08002CA6012
:104BF0000068C16841F04001C160002070472DE9A4
:104C0000F041984617460E460446069D1DE0681C76
:104C10001BD02DB1FDF77CFCA0EB0800A84214D9F5
:104C20002068C16821F4D071C1602068416921F019
:104C300001014161202084F8390084F83A00002005
:104C400084F838000320BDE8F0812068006836EA67
:104C5000000004D00020B842D9D00020F3E70120A2
:104C6000F9E7FFF723BA000010B50448FFF7F4F99D
:104C7000BDE810400248FEF7AFBB0000DC06002094
:104C8000D809002000F042B9FEE7000030B50C461C
:104C9000050014D0022C12D90A48A11E42882846C9
:104CA000FCF734FD2919C2B211F8023C9A4206D130
:104CB00011F8011CB1EB102F01D1012030BD0020F3
:104CC00030BD00006000002030B50C4605000ED05D
:104CD000022C0CD90748611E02782846FCF72CFDEF
:104CE000291911F8011C814201D1012030BD002099
:104CF00030BD000060000020FEE700B52DED048B04
:104D0000B0EE409AF0EE609A83B051EC190BFCF7CC
:104D100055F941EC180B18EE100A18EE901A8DEDAB
:104D2000008B002818BF0120084320F00040C0F18C
:104D30007F6000F1E040C00F14D019EE101A19EE98
:104D4000900A8DED009B002918BF0121084320F037
:104D50000040C0F17F6000F1E040C00F04BF0120BF
:104D600000F018F8B0EE480A03B0F0EE680ABDECA7
:104D7000048B00BD02E008C8121F08C1002AFAD146
:104D800070477047002001E001C1121F002AFBD1CB
:104D9000704700000149086070470000680000206B
:104DA00007494FF48B701122A1F80B001020A1F8D5
:104DB00009001C31A1F80B20A1F809007047000080
:104DC0007807002010B504460420FDF703FF0148D2
:104DD000046010BD6400002070B5054600244FF447
:104DE0007A7603E0304600F005F8641CAC42F9D353
:104DF00070BD000070B54FF0E024002265690949DC
:104E0000A36909684843A1699942FCD002D2A3EB87
:104E1000010302E0A5EB010633441A440B4682422B
:104E2000F1D370BD6400002010B52DED088BF0EEBD
:104E3000619AB0EE609AB0EE408AB0EE41AA09EEF7
:104E4000898A6AEE298A09EE890AF2EE000A69EE79
:104E5000A8BA6AEE200AB5EEC08AF1EE40AAF1EED9
:104E600010FA02DDB0EE480A01E0B0EE6A0A20EE68
:104E7000800A08EEA80A10EE100AFBF7BBFF41EC0F
:104E8000100BFFF73AFF51EC100BFBF7C6FF0BEED0
:104E9000100AB5EEC08AF1EE10FA01DDF0EE48AA74
:104EA000F4EEEBAAF1EE10FA0EDDB0EE480A00F0D7
:104EB000F5FC7BEE680AB6EE001A60EE200AB0EE52
:104EC000490A00EE810A03E088EE290A30EE090A59
:104ED000B5EEC00AF1EE10FA02DDF0EE400A01E094
:104EE000F1EE400AF4EEE80AF1EE10FA08DD00F007
:104EF000D5FCF1EE4A0A20EE200ABDEC088B10BD6D
:104F00006AEE400A80EEA80AF7E7000038B52248AA
:104F100000680168C943C9063DD4016840681F4C58
:104F200000901F4A2168D014914202D91C494C3983
:104F300004E01C4A914203D919495039086008E03D
:104F4000184B184A603BB83A994201D9D06000E04A
:104F500090601148FEF712FA206840680422C0F100
:104F6000040411491148FEF76FFC042C13D10E48BC
:104F70000378427881789C18C0780C4484420AD126
:104F8000B12B08D101EB022000EE100A0848B8EE60
:104F9000400A80ED120A38BD180A0020F80B0020E4
:104FA00058640240B86002400400002098090020C4
:104FB000FC0200202DE9F04F04462DED028B93B04A
:104FC00000200C900D900E900F90109002221190E6
:104FD000B0EE608AF0EE408A0CAB114606A8FBF7F3
:104FE00085F910AB012202210AA8FBF77FF9206A9C
:104FF00004F1140204F10C01C0ED008A206A164687
:105000008B4680ED018A04F124000746FBF70AFC79
:1050100004F15C0204F1540115468A463846FBF758
:1050200001FC06AA04F134012846FBF7FBFB04F15E
:1050300044012A46894606A8FBF7D4F804F1640225
:1050400004F12C00904629460746FBF7EBFB04F1E0
:105050003C0106AA40460891FBF7E4FB424604F1F6
:105060004C0106A8FBF7BEF851464046FBF742F953
:1050700006AA28460899FBF7D5FB4246514606A8E2
:10508000FBF7D0FB0AAA31463846FBF7CBFB5A4662
:105090000AA904F11C00FBF763FC0AAA5946404622
:1050A000FBF7C0FB5A460AA93046FBF79BF852466D
:1050B00039464046FBF7B6FB06AA51464846FBF781
:1050C0004FFC5246294606A8FBF7ACFB206990ED41
:1050D000000A84ED010A90ED010A84ED020A13B082
:1050E000BDEC028BBDE8F08F2DE9F0410C46054682
:1050F00001F10C03012202210C30FBF7F7F804F157
:1051000014030122022105F11400FBF7EFF804F16A
:105110001C030122022105F11C00FBF7E7F8022223
:1051200005F1240004F1740311460746FBF7DEF88D
:10513000022205F12C0004F1840311468046FBF79E
:10514000D5F8022204F19403114605F14400FBF75F
:10515000CDF8022204F1A403114605F14C00FBF73F
:10516000C5F8022204F14403114605F15400FBF78F
:10517000BDF8022204F12403114605F15C00FBF79F
:10518000B5F8022204F13403114605F16400FBF77F
:10519000ADF8022205F1340004F15403114606462D
:1051A000FBF7A4F831463846FBF75EFC04F16403D4
:1051B000022205F13C0011460446FBF797F8214610
:1051C0004046BDE8F041FBF74FBC00002DED088BD9
:1051D000DAB0FDF7ABF9FFF7B3F8A820FFF7F2FD5F
:1051E000FEF792FCFEF77AFCFEF748FCFEF7EAFDBC
:1051F000FEF714FEFEF796FDFEF7BCFDFEF73CFD44
:10520000FEF7FEFCDC48FBF7DDFFFFF71FF84FF46D
:10521000FA742046FFF7E0FD9FEDD81ADFEDD80ABB
:105220009FEDD80AD848FEF739FE9FEDD81ADFED7A
:10523000D80A9FEDD80AD848FEF730FE0021DFEDEE
:10524000D74A9FEDD74AF3EE043A9FEDD63AF0EEF7
:10525000002ADFEDD58AB0EE682A9FEDD49AB3EE2E
:10526000041AF0EE491ADFEDD2AAC748B1EE080AD7
:10527000F0EE6A0A4038FEF72BFE0021DFEDCD4A42
:105280009FEDCD4ADFEDCD9AF0EE693A9FEDCC8AE5
:10529000F0EE002AB0EE682AB0EE483AF0EE491A75
:1052A000B0EE481ADFEDC70ABB48B1EE040A403839
:1052B000FEF70EFEFBF722FF0021F0EE484AB0EEAB
:1052C000484AF0EE483AB0EE483AF0EE482A9FEDF0
:1052D000BE2ADFEDBE1AB0EE481AF0EE480AB1EE73
:1052E000080ABB48FEF7F4FD9FEDBAAAF0EE6A0A81
:1052F000B0EE4A1A9FEDB8BAB848B0EE4B0AFFF7C5
:10530000DAF8B0EE001AF0EE6A0A9FEDB50AB54879
:10531000FFF7D1F8B0EE4A1AF0EE6A0AB0EE4B0A87
:10532000B148FFF7C8F8B0EE4A1AF0EE6A0AB0EEDC
:105330004B0AAE48FFF7BFF8B0EE4A1AF0EE4A0A41
:10534000DFEDABAAAB48B0EE6A0AFFF7B4F8B0EEF7
:105350004A1AF0EE4A0AB0EE6A0AA748FFF7ABF81D
:10536000B0EE692ADFEDA51A9FEDA51AF2EE0E0A3E
:105370009FEDA40AA448FEF76FFBF2EE0E1AB2EE00
:105380000E1AF2EE0E0AB2EE0E0AA048FFF752F81D
:10539000F2EE0E1AB2EE0E1AF2EE0E0AB2EE0E0A8D
:1053A0009B48FFF747F8F2EE0E1AB2EE0E1AF2EE35
:1053B0000E0AB2EE0E0A9748FFF73CF8F2EE0E1A0C
:1053C000B2EE0E1AF2EE0E0AB2EE0E0A9248FFF795
:1053D00031F89249F6EE000AB1EE080AC1ED000A72
:1053E00081ED010A81ED048A81ED068A81ED058A4D
:1053F00081ED0E8A81ED028A9FED890A5FF000023D
:1054000081ED030A81ED0F8A81ED108A01EB8200A4
:10541000521CD2B280ED088A042AF7D3B422814903
:105420002DA8FBF7ABFB7F49B422B4316846FBF7EC
:10543000A5FB2DA97C48FFF757FE69467B48FFF77F
:1054400053FE69467A48FFF74FFE2046FFF7C4FC3B
:105450007848FDF75BFC2046FFF7BEFCDFF828919B
:105460004D4D754F754E764C4FF00008A9F140092F
:10547000403D6068401C6060B84209D1C4F80480B7
:10548000FEF760FE0A231C226E496F48FEF726FADB
:10549000D5ED160A95ED101A30EEC10AB5EEC00A28
:1054A000F1EE10FA01DC31EE600A10EE100AB042A3
:1054B0005EDAD9ED160A99ED101A30EEC10AB5EE92
:1054C000C00AF1EE10FA01DC31EE600A10EE100AAB
:1054D000B0424DDA2068E0B3DFF870A1C4F8008074
:1054E00000219AED040A85ED160A85ED110A85ED75
:1054F000100ADFED579AF0EE694A9FED56AAFAEED0
:10550000043AB0EE483AB0EE4A4ADFED532AB0EE24
:10551000682AF0EE491AB1EE041ADFED500A9FED49
:10552000500A1D484038FEF7D3FC9AED030A0021CB
:1055300089ED100A89ED110A89ED160AF0EE694A23
:10554000B0EE4A4AF0EE483AB0EE483ADFED452A6E
:1055500000E00DE0B0EE682AF0EE491A9FED421A25
:10556000F0EE480A9FED410A07484038FEF7B0FCCC
:10557000FEF722FE7DE70000E40700200000FA4469
:1055800000409C4500C028453C0300200080544555
:105590000080BB4500089845AC020020000061C4B3
:1055A000000061440AD7233C00409CC600409C4652
:1055B000CDCC4C3D000016C4000016440AD7A33CD5
:1055C00000000000CDCCCC3D00A00CC600A00C46D5
:1055D0008C0300200AD7A33B00001643B001002033
:1055E00000009643CC0100201C0400203804002059
:1055F0000000C84254040020700400200000FA4259
:10560000000096420AD7233DE80100201C05002037
:105610005805002094050020D00500202802002015
:105620000000807FD45C00086C000020D8000020BF
:10563000440100202408002040420F000000C8421E
:105640000C0000205C070020D8090020B4060020D0
:10565000000048C400004844666666C08FC2F53C3E
:105660000000024300005C42000048420000A042EB
:1056700010B52B4C2B492DED028B94ED1D1A84EDAA
:105680001E1A94ED100AD4ED160A70EE600AC4EDED
:105690001D0A94ED1C0A30EE200A10EE100A84ED6B
:1056A0001C0A884202D39FED200A06E010EE100A81
:1056B0001E49884201DB9FED1E0A30EEC18A184860
:1056C00084ED1C0ADFED1B0AB0EE480AD438FBF764
:1056D00065FF94ED190AD4ED1D0A94ED1C1A60EED5
:1056E000200A94ED1A0A40EE010A94ED1B0A40EEDE
:1056F000080AC4ED1F0A94ED200AF4EEC00AF1EE88
:1057000010FA06D994ED210AF4EEC00AF1EE10FA6F
:1057100001DBF0EE400AC4ED1F0ABDEC028B10BDA8
:10572000FC02002000409CC500409CC500409C45F8
:1057300000409C450AD7A33B2348244A90ED1D1AFC
:1057400080ED1E1A90ED100AD0ED110A70EE600A7D
:10575000C0ED1D0A90ED1C0A30EE200A10EE101A62
:1057600080ED1C0A914202D39FED190A06E010EE6B
:10577000101A184A914201DB9FED170A30EEC11A48
:1057800080ED1C0AD0ED191A61EEA00AD0ED1A1AAC
:1057900041EE800A90ED1B0A40EE010AC0ED1F0A9F
:1057A00090ED200AF4EEC00AF1EE10FA06D990ED61
:1057B000210AF4EEC00AF1EE10FA01DBF0EE400A25
:1057C000C0ED1F0A704700006C02002000409CC51D
:1057D00000409CC500409C4500409C450A490B4840
:1057E0000A78A52A02D14A785A2A06D09FED080ADB
:1057F00080ED010A80ED020A704751F8022F4260E5
:105800004968816070470000C806002054000020ED
:105810000000000038B51B48002400680168C94337
:10582000C9062CD401684068174C0090174A2168BB
:105830004FF40010914202D914494C3904E0144A43
:10584000914203D911495039086008E0104B104AC1
:10585000603BB83A994201D9D06000E090600948B5
:10586000FDF78CFD206840681422C0F1140409493A
:105870000448FDF7E9FF0C2C01D1FFF7AFFF064804
:10588000046038BD580A0020580C002058640240BB
:10589000B8600240C806002054000020B5EEC00ADF
:1058A000F1EE10FA02DDB7EE000A7047B5EEC00A5D
:1058B000F1EE10FA02D2BFEE000A70479FED010A26
:1058C00070470000000000002DE9F05FD7482DED83
:1058D000088B007800286FD0D548DFEDD6AA9FED61
:1058E000D6AADFF858A3DFF858B3D64C9FEDD68A76
:1058F000D64D0168E1B32089A0F5806000EE100A62
:10590000B8EEC00A20EE2A0A85ED050A9FEDD01AEE
:10591000DFEDD08A5046F0EE680AFEF7BFFA6088E5
:10592000A0F5806000EE100AB8EEC00A20EE0A0A68
:1059300085ED040A9FEDC81AF0EE680A5846FEF796
:10594000ADFAE088F2EE040AA0F5806000EE100ADD
:10595000C24EB8EEC00A301D20EE200A85ED060AC0
:10596000FEF7B3FA85ED068AA07C01287DD039E1E7
:10597000FFE7B24FBA48403F97ED030AFEF77CFDC0
:10598000B748B84EB84990ED000A87ED040A97ED84
:10599000160A87ED170A96ED041A87ED161A71EEAE
:1059A000401AB7EE000A11EE900A884205DDD7EDE5
:1059B000150A30EEC00A0CE02EE111EE900AAB4958
:1059C000884202D897ED150A05E0D7ED150A30EEAA
:1059D000800A87ED150ADFEDA68A00EE281A87ED0A
:1059E000111AB4F90C00FBF7F4F99FEDA2BB53ECCC
:1059F0001B2BFBF77CF941EC190B2088A0F580608C
:105A000000EE100AB8EEC00A20EE2A0A10EE100AC4
:105A1000FBF7F0F953EC192BFBF763F9FBF7FDF9F2
:105A200000EE100A85ED050A9FED941ADFED940A49
:105A30005046FEF71CFA824896ED030A403880ED86
:105A4000160AB4F90E00FBF7C4F953EC1B2BFBF755
:105A50004EF941EC190B6088A0F5806000EE100A49
:105A6000B8EEC00A20EE0A0A00E0B2E010EE100A1A
:105A7000FBF7C0F953EC192BFBF733F9FBF7CDF922
:105A800000EE100A85ED040A9FED7EAAF3EE040AEB
:105A90005846B0EE4A1AFEF7EAF9A07A7A4FDFF8D4
:105AA000EC91DFF8EC81022868D17A4E7A4896EDC5
:105AB000000AFEF7E1FC97ED000A4846FEF7DCFC21
:105AC000F0EE480A96ED000AA8F16C00FFF772FAB2
:105AD000F0EE480A97ED000A4046FFF76BFA6E4871
