:020000040800F2
:10000000E8080020C1010008712A0008B123000897
:10001000A127000809020008813400080000000040
:10002000000000000000000000000000A12B0008FC
:100030008D05000800000000932A0008872C0008A6
:10004000DB010008DB010008DB010008DB01000820
:10005000DB010008DB010008DB010008DB01000810
:10006000DB010008DB010008DB010008DB01000800
:10007000DB010008C5040008DB010008D10400080A
:10008000DB010008DB010008DB010008DB010008E0
:100090000D020008DB010008DB010008DB0100089D
:1000A000DB010008DB010008DB010008DB010008C0
:1000B000DB010008892D0008DB010008DB010008D6
:1000C000DB010008DB010008DB010008DB010008A0
:1000D000DB0100087D340008DB010008DB010008BB
:1000E000DB010008DB010008DB010008DB01000880
:1000F000DB010008DB010008DB010008DB01000870
:10010000DB010008DB0100089D2D0008DB01000871
:10011000DB010008DB010008DB010008DB0100084F
:10012000DB010008DB010008DD040008DB0100083A
:10013000DB010008DB010008DB010008DB0100082F
:10014000DB010008DB010008DB010008DB0100081F
:10015000DB010008DB010008DB010008DB0100080F
:10016000DB010008DB010008DB010008DB010008FF
:10017000DB010008DB010008DB01000800000000D3
:10018000DB010008DB010008DB010008DB010008DF
:10019000DB010008DB010008DB010008DB010008CF
:1001A0000000000000000000DB010008DFF80CD0B8
:1001B00000F018F800480047E9340008E80800207B
:1001C0000648804706480047FEE7FEE7FEE7FEE7F1
:1001D000FEE7FEE7FEE7FEE7FEE7FEE7352D000857
:1001E000AD010008064C074D06E0E06840F0010351
:1001F00094E8070098471034AC42F6D3FFF7DAFFD3
:100200005C3700087C370008FEE70000014800F07A
:1002100033BA00008400002000B58BB00021012219
:10022000CDE90612039108920491019102910E22E8
:1002300005910992044901631C314163694600F04C
:10024000A7F90BB000BD00004400002091ED120A98
:100250001F4A81ED130A436BF7EE001A9B8A5BBAC3
:100260001BB200EE903AF8EEE00AC1ED120A436BC1
:1002700030EEC00ADB8A5BBA1BB201EE103AB8EE70
:10028000C11A81ED031A406B008B40BAA1F87C00C3
:1002900082ED020A10EE100A0E4A91ED111A9042F8
:1002A00002DD31EE610A09E010EE100A0A4A9042BE
:1002B00002D891ED110A03E031EE210A81ED110A15
:1002C0009FED061A40EE010AC1ED100A70470000CA
:1002D0002800002000409C4500409CC500000046CE
:1002E00070B5066B0D0A049C3575056B6975056B59
:1002F000110AA975016BCA75026B190A1176016B97
:100300004B76026B210A9176006BC47670BD0000BB
:1003100010B54FF4D872036802EB01129B5813F02A
:100320000404436B9C600468436BA45854D0E408F5
:100330005C6003689A58436B02F00202DA604FF483
:10034000DA72036802EB01129B58446B03F00F034F
:10035000236103689A58436BC2F30722DA614FF4B2
:10036000DC72036802EB01129B58446B237503682F
:100370009B58446B1B0A637503689B58446B1B0CAA
:10038000A37503689A58436B120EDA754FF4DE7248
:10039000036802EB01129B58446B237603689B5859
:1003A000446B1B0A637603689B58446B1B0CA37653
:1003B00003689A58436B120EDA76202200290168EE
:1003C0000DD00A6101684A6922F010024A6190F872
:1003D0003810222909D021E0640D1C60A9E7CA6009
:1003E00001684A6922F00202F0E701684A6922F4D2
:1003F00080724A6101684A6922F400724A610168A8
:100400004A6922F480624A6101684A6922F4006202
:100410004A6101684A6922F400424A6190F8381042
:10042000322907D05FF0010180F8381000F0B2FAED
:10043000002010BD1221F7E710B5026B1160026BAE
:100440005160026B00219160026BD160026B082148
:1004500011610A2100F06AFB08B1002010BD0120E3
:1004600010BD10B501684A6922F001024A6190F896
:100470003810122918D101684A6922F480724A6141
:1004800001684A6922F400724A6101684A6922F4EB
:1004900080624A6101684A6922F400624A61016827
:1004A0004A6922F400424A6190F83810322906D095
:1004B000012180F8381000F003FC002010BD22213B
:1004C000F7E70000014800F043BC0000580200209C
:1004D000014800F03DBC0000B8020020014800F0D7
:1004E00037BC00004401002001681823CAB2103A4A
:1004F000B2FBF3F2054B6FF30901032A9B5CC36562
:1005000000D9091D8165084670470000543700086E
:1005100010B5014600208B698A6A4FF0C07453B150
:10052000B3F5005F15D072B1012A0CD0022A0AD0AF
:10053000032A09D104E01AB1012A06D0022A03D104
:10054000C96AC90100D5012010BDC96AA142FAD00B
:1005500010BD002AF7D0012AF2D0022AF3D0032AD4
:10056000F3D010BD30B50468256825F480252560DA
:10057000046863608368402B036803D09960006857
:10058000C26030BD9A600068C16030BD7047000035
:10059000F0B50A7D01209040344A136843F001030E
:1005A0001360136823F47C53136013684C6A43EAA6
:1005B000042313602D4B1C331C6884431C602B4D9B
:1005C0002B4CCE690C35A6B92E6886432E608F89D8
:1005D0004E6867F31F464F6904EBC707C7F84066CC
:1005E0000F890E6867F31F464F6904EBC707C7F80A
:1005F0004466CE69012E14D12E6806432E600E8803
:100600004D6866F31F454E6904EBC606C6F84056B2
:100610000E89CD6866F31F454E6904EBC604C4F825
:100620004456124C8D69241D002D256806D00543C3
:1006300025600E4C0D69143415B104E08543F7E7CD
:100640002568854325600D69012D02D12568054384
:100650002560096A012902D11968014319601068EF
:1006600020F0010010600020F0BD00000066004096
:10067000006000407047000010B504460068416902
:10068000C943C90714D182685849914368D00021F1
:100690008368574A9A4365D0002283685548984337
:1006A00062D000201143014302D02046FFF7D9FE5B
:1006B0002068C168406911F0030FC0F3400004D006
:1006C00018B100212046FFF723FE21680869496917
:1006D00010F0030FC1F3001104D019B1012120461D
:1006E000FFF716FE20688169426911F0010FC2F31D
:1006F00000234269C2F3C03205D023B11AB1E16BC5
:1007000041F00101E1638169C1F34003416942693C
:10071000C1F34021C2F3C0322BB121B11AB1E16B58
:1007200041F00201E16381694269C1F38001C2F3D2
:1007300080234269C2F3C03229B123B11AB1E16BFF
:1007400041F00401E163816911F0700F0ED00021C6
:1007500042694369C2F3C022C3F3C03341B127E009
:10076000012195E7012298E701209BE70121EFE7AE
:10077000F2B1EBB1816901F07001402929D006DCAA
:10078000102909D020290BD030290DD11DE0502986
:1007900023D0602908D124E0E16B41F0080102E098
:1007A000E16B41F01001E163816921F07001816129
:1007B000E06B002808D0216804204860012084F8FC
:1007C00038002046FFF756FF10BDE16B41F02001D5
:1007D000E9E7E16B41F04001E5E7E16B41F08001C1
:1007E000E1E7E16B41F48071DDE700000300000404
:1007F00000030008000003102DE9F041040004D0BC
:1008000094F83800002518B107E00120BDE8F08118
:1008100084F83950204600F093F8022084F838001C
:100820002068016821F0020101602068016841F040
:100830000101016000F0FCFC0746032605E000BF53
:1008400000F0F6FCC01B0A2863D820684068C00787
:10085000F6D020684168C90768D0A16901290168FC
:100860003FD021F080010160E06901282068016823
:100870003AD021F040010160206A01282068016817
:1008800035D021F020010160606A012820680168EC
:1008900030D021F010010160A06A012820680168B1
:1008A0002BD021F008010160E06A0128206801686E
:1008B00026D021F004010160D4E902010843D4E903
:1008C0000412114308436168491E08432168C86146
:1008D0002068016821F00101016000F0A9FC0746D1
:1008E0001CE041F08001BEE741F04001C3E741F068
:1008F0002001C8E741F01001CDE741F00801D2E73F
:1009000041F00401D7E700BF00F092FCC01B0A28A9
:1009100004D904F8386F0320657077E720684068D1
:10092000C007F1D120684068C00703D0042084F8D4
:1009300038006AE7E563012084F83800002065E7A5
:1009400010B504460068104986B088421AD10F4895
:100950000021026842F0007202600068022200F08A
:10096000007005900320CDE90210CDE900020920B6
:1009700004906946064800F06FFB2068416941F029
:100980000201416106B010BD0064004040380240E1
:10099000000C02402DE9F84F07465E4887427DD1A2
:1009A000786B816800297AD1C168002977D1006805
:1009B000DFF864810026594DA0F5007008F1800A27
:1009C00040F2FF1B08F58079053804D0012824D0B7
:1009D000022850D150E050493846FFF737FC4E48C6
:1009E0003C3001F0F9FE98ED1B0A444688ED020AFE
:1009F000201D01F0C9FF009699ED0C0ABDEEC00A5A
:100A000010EE100A9AED0C0A03B2BDEEC00A10EE09
:100A1000100A94ED0C0A02B221E03F4938468031B9
:100A2000FFF714FC3C48BC3001F0D6FE9AED1B0ADF
:100A300054468AED020A201D01F0A6FF009699EDAA
:100A40000C0ABDEEC00A10EE100A94ED0C0A03B2B7
:100A5000BDEEC00A10EE100A98ED0C0A02B2BDEE0F
:100A6000C00A10EE100A01B23846FFF739FC5946A9
:100A70003846FFF7E1FC40E029493846FFF7E6FB3E
:100A80004C46201D01F080FF94ED0C0A254910EE24
:100A9000100A884207D010EE100A01E037E031E07A
:100AA0002149884208D1D4ED030AF5EEC00AF1EEDF
:100AB00010FA01D16E6002E06868322806DAB1EE01
:100AC000400A84ED0C0A6868401C6860BDEEC00AEC
:100AD000009610EE100A9AED0C0A03B2BDEEC00AA1
:100AE00010EE100A98ED0C0A02B2BDEEC00A10EE2C
:100AF000100A01B23846FFF7F3FB95F900001E28F3
:100B000000DB2E703868416941F002014161BDE8A7
:100B1000F88F0000840000206403002028000020DB
:100B20006404002000A00C4600A00CC62DE9F05F74
:100B30000E46016804468868400105D488680001B3
:100B400002D48868C00067D594F8390001280ED017
:100B5000012784F8397094F8380022280AD012202E
:100B600084F838008868400106D500250AE0022094
:100B7000BDE8F09F3220F3E78868000101D5012528
:100B800000E002254FF4C07000EB05100A5802F097
:100B900001020A50216B8A68EAB3D4F800C05CF8FD
:100BA00000301343CA68496842EAC1010B434CF85C
:100BB0000030216B0A7C02F00F020A614FF4C2710F
:100BC000226801EB0511535823F00F03535022689C
:100BD0005358D4F830C0DCF810C043EA0C0353502B
:100BE000216B4FF4C47303EB05130A7DD1F8151084
:100BF00042EA01212268D150216B4FF4C67303EB06
:100C000005130A7ED1F8191042EA01212268D15059
:100C100021680A5801E00DE046E042F001020A5066
:100C200000F006FB81464FF00008DFF888A0DFF8EF
:100C300088B019E022681358D1F80CC0098843EA3B
:100C40000C0343EA41511150B3E7701C0CD02EB194
:100C500000F0EEFAA0EB0900B04205D9032084F8B9
:100C6000380084F8398083E795B12068012D8168C8
:100C700013D0124888430028E7D194F8380032286E
:100C80000ED084F8387000BF84F8398000206FE7F8
:100C9000206881682AEA0100EDE72BEA0100EAE713
:100CA000222084F83800EFE7042084F8380001207F
:100CB0005EE70000030000040003000800000310CA
:100CC00070472DE9F0410446876D00F0B1FA064601
:100CD00094F835000025022806D08020606584F84D
:100CE00034500120BDE8F0812068016821F0160130
:100CF00001602068416921F080014161206C08B9E0
:100D0000A06C20B12068016821F008010160206812
:100D1000016821F0010101600BE000F089FA801BFD
:100D2000052806D92020606504F8345F0320607030
:100D3000D8E720680068C007EFD194F85C103F2026
:100D40008840B86004F8345F012060700020C9E773
:100D50002DE9F84304464FF00008CDF800806448C0
:100D60004FF41651A56D0068B0FBF1F72E6894F8AA
:100D70005C10082000FA01F131420FD021680A68A6
:100D800052070BD50A6822F004020A6094F85C103E
:100D90008840A860606D40F00100606594F85C10C8
:100DA00054488840304208D021684969090604D572
:100DB000A860606D40F0020060654E4894F85C10D9
:100DC000C01C8840304208D021680968890704D5D2
:100DD000A860606D40F00400606594F85C1010201D
:100DE0008840304218D021680968090714D5A860E6
:100DF00020680168490304D50068000308D5A16C88
:100E000007E00168C90503D4016821F00801016009
:100E1000216C09B12046884794F85C102020884056
:100E200030424FF0010631D021680968C9062DD53E
:100E3000A86094F8350005282068016806D04903A9
:100E400047D5006800031DD4616C1CE021F0160139
:100E500001602068416921F080014161206C08B97E
:100E6000A06C20B12068016821F00801016094F8AD
:100E70005C103F208840A86084F8348084F8356096
:100E8000216D1FE0E16B09B120468847606D0028A5
:100E90002BD0606DC00714D0052084F83500206881
:100EA000016821F0010101600098401C0090B842E7
:100EB00003D820680068C007F6D184F8348084F82D
:100EC0003560E16C002910D001B02046BDE8F04348
:100ED00008470168C905D5D4016821F010010160F7
:100EE00084F8348084F83560CCE7BDE8F8830000EE
:100EF00004000020010080002DE9F041044600F0CC
:100F000097F906465CB1002584F83450022084F835
:100F100035002068016821F0010101600DE0012029
:100F2000BDE8F08100F084F9801B052805D9202058
:100F30006065032084F83500F2E720680068C00788
:100F4000F0D1226811681F480140D4E90103184319
:100F5000D4E903363343184363691843A36918433C
:100F6000E3691843236A18430843616A042903D1DB
:100F7000D4E90B1319430843106020684069666A7E
:100F800020F0070130460E43012704280AD1A06A49
:100F900006432046FFF7BCFA20B14020606584F884
:100FA0003570BCE7206846612046FFF79DFA94F84B
:100FB0005C203F2191408160656584F83570002098
:100FC000AEE700003F8010F02DE9F0410446866D49
:100FD00090F83400002501280DD0012084F8340059
:100FE00094F835700020012F07D084F834000225D2
:100FF0002846BDE8F0810220FBE7022784F835701F
:1010000060652046FFF7AEFA94F85C103F208840F8
:10101000B0602068016841F01601016020684169F4
:1010200041F080014161206C20B12068016841F0ED
:10103000080101602068016841F001010160D7E703
:1010400031B500F0F5F8044600F0F2F80099001B05
:101050008842F9D338BD00002DE9F84FDFF890B190
:1010600000224FF001084FF0030A4FF00F090BF177
:10107000040E00BF0B6808FA02F42340A3426ED1AD
:101080004D68022D01D0122D0ED1D50800EB850C34
:10109000DCF820505607F70E09FA07F6B5430E693B
:1010A000BE402E43CCF82060066855000F790AFA3E
:1010B00005FC07F0030726EA0C06AF40374307603C
:1010C0004E68012E05D0022E03D0112E01D0122E13
:1010D0000ED18768CE6827EA0C07AE403E43866093
:1010E0004668A6430C79C4F300149440344344602A
:1010F000C4688E6824EA0C04AE402643C6604C687F
:10110000E4006FD53B4C256845F480452560246894
:1011100022F0030504F480440094374C2E19D6F8CD
:10112000084895072F0F09FA07F5AC43334DA8423D
:1011300001D100252EE0324DA84201D1012529E040
:10114000304DA84201D1022524E02F4DA84201D103
:1011500003251FE02D4DA84202D104251AE041E0ED
:101160002B4DA84201D1052514E02A4DA84201D1FA
:1011700006250FE0284DA84201D107250AE0274D9A
:10118000A84201D1082505E0254DA84201D1092535
:1011900000E00A25BD402543C6F80858DBF80040AA
:1011A0005D464E689C43F60300D51C432C60DEF878
:1011B000004075464E689C43B60300D51C432C6026
:1011C0000B4D08352C684E689C43F60200D51C4335
:1011D0002C60074D0C352C684E689C43B60200D538
:1011E0001C432C60521C102AFFF444AFBDE8F88F5A
:1011F000003C014044380240003001400000024001
:101200000004024000080240000C024000100240AE
:101210000014024000180240001C0240002002405E
:10122000002402400AB1816170470904FBE7000015
:101230000148006870470000000000200248016873
:10124000491C016070470000000000200B4810B5E9
:10125000016841F400710160016841F4806101603E
:10126000016841F480710160032000F0D1F8002092
:1012700000F006F800F018F8002010BD003C024015
:1012800010B5044607484FF47A710068B0FBF1F0DE
:1012900000F07DFB00222146501E00F099F800204E
:1012A00010BD0000040000201F4808B5016841F48B
:1012B00080410160006800F4804000901A48001FDF
:1012C000016841F080510160006800F0805000909A
:1012D000052000F09DF8002211466FF00B0000F091
:1012E00077F8002211466FF00A0000F071F8002232
:1012F00011466FF0090000F06BF800221146501FF4
:1013000000F066F800221146101F00F061F800227C
:101310001146901E00F05CF80022BDE8084011461E
:10132000501E00F055B80000443802402DE9F0414D
:1013300016460F46040004D094F83900002518B171
:1013400007E00120BDE8F08184F83850204600F025
:1013500077FF242084F839002068C16821F4005107
:10136000C160204601F034FF2068016921F49041FA
:1013700001612068416921F02A0141612068016909
:1013800021F00F0101612068016939430161206882
:10139000C16821F40061C1602068C1683143C16047
:1013A0002068C16841F40051C160E563202084F8E1
:1013B000390084F83A000020C4E700F01F02012140
:1013C00091404009800000F1E020C0F80011704712
:1013D000F0B40E4B1B680C46C3F30223C3F10705A0
:1013E000042D00D90425191D072901D2002300E08E
:1013F000DB1E012606FA05F1491E214099409E4058
:10140000761E16403143F0BC01F033BB0CED00E01A
:10141000064900F0070208684FF6FF03184040EA4B
:101420000220034A10430860704700000CED00E002
:101430000000FA052DE9F047DFF8649105460F46F4
:10144000D9F8000000F00F01F8B28046B94208D286
:10145000014689F80010D9F8000000F00F00B842EA
:1014600074D128784F4C800705D52068A96820F0F2
:10147000F000084320602878C00759D049496868BF
:10148000083901281AD002281BD0032819D009686E
:10149000890700295ADA216821F0030101432160FC
:1014A000FFF7C6FE6968064641F28830012911D06F
:1014B00002291DD00329824627D035E00968890317
:1014C000E7E709688901E4E7FFF7B2FE811B5145B0
:1014D00001D926E082462068C0F381000128F3D1BB
:1014E00026E000BFFFF7A4FE811B514501D918E09B
:1014F00082462068C0F381000228F3D118E000BFC3
:10150000FFF796FE811B51450BD82068C0F3810080
:101510000328F5D10CE000BFFFF78AFE811B51457F
:1015200002D90320BDE8F087206810F00C0FF3D13A
:10153000D9F80010484601F00F01B94208D980F8E7
:101540000080006800F00F00B84201D00120E9E7F8
:101550002878400705D52068E96820F4E050084362
:1015600020602878000706D52068296920F46040AB
:1015700040EAC100206000F051F82168F02292FAA0
:10158000A2F201F0F001B2FA82F2D140064A515CB7
:10159000C840064908600020FFF772FE0020C1E73E
:1015A000003C024008380240443700080400002094
:1015B00001480068704700000400002008480949FD
:1015C000006809684FF4E05292FAA2F201F4E05187
:1015D000B2FA82F2D140044A515CC8407047000020
:1015E0000400002008380240443700080848094930
:1015F000006809684FF4604292FAA2F201F4604177
:10160000B2FA82F2D140044A515CC84070470000EF
:1016100004000020083802404437000830B519485B
:10162000006810F00C01184812D0184C04290ED094
:1016300008290DD11349091F0A6802F03F030A68FF
:10164000550247F6C07204D5B4FBF3F003E0204620
:1016500030BDB0FBF3F00B680968134092FAA2F2B8
:10166000B2FA82F2D34058434FF4403292FAA2F2D7
:1016700001F44031B2FA82F2D140491C4900B0FB7A
:10168000F1F030BD083802400024F400001BB70020
:101690002DE9F84F0446DFF8CC820078A8F1040B5E
:1016A000C007ABF1040537D0D8F800104046C1F3AD
:1016B0008101012908D00068C0F3810002280AD105
:1016C000DBF80000400206D52868800324D5606856
:1016D000002878D020E0A3492079891F087060682D
:1016E00068B1FFF7A5FD064605E000BFFFF7A0FDC6
:1016F000801B642868D828688003F7D50CE0FFF7C2
:1017000097FD064605E000BFFFF792FD801B6428A9
:10171000F0D828688003F7D42078934E80074FF0E4
:10172000010A4FF0000742D5D8F80010404611F0EA
:101730000C0F08D00068C0F3810002280AD1DBF842
:101740000000400206D42868800714D5E06801280C
:1017500039D110E0E068D8B1C6F800A0FFF768FD05
:10176000814605E0FFF764FDA0EB09000228C1D81F
:1017700028688007F6D52868F82292FAA2F2216933
:10178000B2FA82F220F0F8009140084328600EE09F
:101790003760FFF74DFD814606E000BFFFF748FDCB
:1017A000A0EB090002280FD828688007F6D420781B
:1017B000000728D56D486169A1B1C0F800A0FFF706
:1017C00037FD814608E0CAE079E000BFFFF730FD51
:1017D000A0EB0900022872D862486C3000688007CC
:1017E000F4D510E00760FFF723FD814606E000BF57
:1017F000FFF71EFDA0EB0900022860D859486C30A5
:1018000000688007F4D42078400749D5554838301F
:10181000016841F080510160006800F08050009044
:101820005348016841F480710160FFF701FD814672
:1018300006E000BFFFF7FCFCA0EB090002283ED841
:101840004B480068C005F5D5DFF81891207A09F1FA
:10185000680989F80000A06888B1FFF7E9FC0090EA
:1018600008E000BFFFF7E4FC0099411A41F288301C
:1018700081426CD8D9F800008007F3D510E0FFF75B
:10188000D7FC009008E000BFFFF7D2FC0099411A96
:1018900041F2883081425AD8D9F800008007F3D449
:1018A000A069E0B3D8F80010C1F38101022956D035
:1018B0000228376604D0FFF7BBFC04464AE046E046
:1018C000FFF7B6FC074604E0FFF7B2FCC01B022896
:1018D0003DD828688001F7D4D4E90701084347F6CA
:1018E000C07292FAA2F2616AB2FA82F29140A26ADE
:1018F0004FF0FF3303EB52024FF4403393FAA3F35C
:10190000B3FA83F39A40114308434FF0706292FA9E
:10191000A2F2E16AB2FA82F29140084300E01CE0D0
:10192000CBF80000C6F860A0FFF782FC044604E094
:10193000FFF77EFC001B022809D828688001F7D534
:101940000BE000BFFFF774FC001B022802D9032044
:10195000BDE8F88F28688001F4D40020F8E7012062
:10196000F6E700000838024000004742800E474278
:10197000007000404FF0E0210428086903D020F0F7
:1019800004000861704740F00400FAE7704710B5A2
:10199000401EB0F1807F01D3012010BD4FF0E02444
:1019A00060610F21601701F064F80020A06107203A
:1019B0002061002010BD10B5FFF7E8FF10BD704793
:1019C000704730B590F83820012A20D0012280F8E5
:1019D0003820022380F8393003685C6824F07004F2
:1019E0005C6003685C680D682C435C6003689C68FD
:1019F00024F080049C6003689C6849680C439C60E8
:101A000080F83920002180F83810084630BD0220C7
:101A100030BD10B5040003D094F8390010B107E0D0
:101A2000012010BD002084F83800204600F00CF89A
:101A3000022084F83900211D206801F0B5F9012049
:101A400084F83900002010BD00B5154B0268002154
:101A5000144887B09A4209D1016841F0020101603F
:101A6000006800F00200059007B000BD0E4B9A42DE
:101A7000FAD1026842F0080202600068012200F018
:101A8000080005904FF4406000900220CDE901026B
:101A9000CDE9031069460548FFF7DEFAE4E70000E8
:101AA0000004004040380240000C0040001C02408E
:101AB0000168CA6842F00102CA600068016841F02A
:101AC000010101600020704770B5044690F83800AD
:101AD000012817D0012584F83850022084F83900F5
:101AE0002068826822F0770222F47F4282600868D0
:101AF000502837D00DDC202859D005DC88B31028B9
:101B000041D151E0022070BD302853D040283AD155
:101B10003FE060282ED070280BD0B0F5805F03D056
:101B2000B0F5005F2FD110E02068816821F0070137
:101B300015E0CB68D1E90121206801F0A0F9216806
:101B4000886840F0770088601DE0CB68D1E901210A
:101B5000206801F094F92068816841F48041816037
:101B600011E01EE0CA684968206801F051FA50216E
:101B7000206806E0CA684968206801F09DFA602183
:101B8000206801F086F984F83950002084F8380084
:101B900070BDCA684968206801F03AFA402120689F
:101BA000EFE700212068ECE710212068E9E7202119
:101BB0002068E6E730212068E3E7000070B50646BC
:101BC0002DED068B007EDFED44AA9FED448AF7EEF3
:101BD000008A9FED439AF1EE0C9A9FED42AA424D86
:101BE000012838D1414C0021414894ED000A84ED90
:101BF000010A00F0D4FA00EE100A00213C48B8EEC9
:101C0000400A84ED000A00F020F994ED010AB5EED7
:101C1000C00AF1EE10FA02D1C4ED02AA1BE0D4ED25
:101C2000000AF4EEC00AF1EE10FA02DD30EEC00A4E
:101C300005E070EE880A30EEC00A30EE280A84ED26
:101C4000020AF0EE400A89EE200AC0EE290A20EED0
:101C50008A0A85ED040A307E02281CD1234C042117
:101C60000C34234894ED000A84ED010A00F097FA41
:101C700000EE100A00211E48B8EE400A84ED000A6A
:101C800000F0E3F894ED010AB5EEC00AF1EE10FAA7
:101C900004D1C4ED02AABDEC068B70BDD4ED000AE0
:101CA000F4EEC00AF1EE10FA02DD30EEC00A05E0F3
:101CB00070EE880A30EEC00A30EE280A84ED020A7F
:101CC000F0EE400A89EE200AC0EE290A20EE8A0AC8
:101CD00085ED050ADFE700000000000000FF7F47F8
:101CE00000247449000070420C0000204C030020C6
:101CF0001C0200202DE9F041044690F838000D4602
:101D000001283DD0012684F83860022084F839008B
:101D1000AAB3042A46D02068082A55D0D5E900275E
:101D2000E968036A23F480530362D0F81CC0036A95
:101D30002CF4407C4CEA07274FF6FF7C27F47047D1
:101D40000CEA013139434FF4204723F4204307EADA
:101D500002321A43C16102622068C16921F4406104
:101D6000C1612068C169AA6841EA0221C0F81C105B
:101D700084F83960002084F83800BDE8F08101E083
:101D80000220FAE7D5E90012EB68206801F052F969
:101D90002068816921F00C01816120688169AA684D
:101DA00011430FE0D5E90012EB68206801F096F9C5
:101DB0002068816921F44061816120688169AA6895
:101DC00041EA02218161D3E7D5E9002C2F7B016A2A
:101DD00021F480710162C169036A21F0030141EAC3
:101DE0000C0121F0F00C39074FF420674CEA116127
:101DF00023F4206307EA02221A43C16102622068C9
:101E0000C16921F00C01C1612068C169AA68114350
:101E1000ACE710B5040003D094F8390010B107E026
:101E2000012010BD002084F83800204600F00CF896
:101E3000022084F83900211D206800F0B5FF012040
:101E400084F83900002010BD704710B502680446C0
:101E500031B1042908D0082915D00C2908D116E081
:101E6000D06840F0020002E0D06840F00400D0608A
:101E70000122206800F0F8FF2068016841F00101AC
:101E80000160002010BDD06840F00800EFE7D06886
:101E900040F01000EBE770B50446006801694FF0B0
:101EA0000005C943890715D4C168C943890711D4FE
:101EB000E91E0161012020762068806980072046A4
:101EC00002D0FFF77BFE04E000F0B2F8204600F0FD
:101ED00047F9257620680169C943490717D4C168C5
:101EE000C943490713D46FF0040101610220207631
:101EF0002068806910F4407F204602D0FFF75EFE24
:101F000004E000F095F8204600F02AF925762068D4
:101F10000169C943090716D4C168C943090712D426
:101F20006FF008010161042020762068C0698007F5
:101F3000204602D0FFF742FE04E000F079F8204688
:101F400000F00EF9257620680169C943C90617D447
:101F5000C168C943C90613D46FF01001016108209C
:101F600020762068C06910F4407F204602D0FFF739
:101F700025FE04E000F05CF8204600F0F1F825763C
:101F800020680169C943C90708D1C168C943C907A5
:101F900004D1891E0161204600F000F92068016922
:101FA000C943090609D4C168C943090605D46FF0BD
:101FB000800101612046FFF702FD20680169C943E5
:101FC000490609D4C168C943490605D46FF04001E8
:101FD0000161204600F005F920680169C9438906BE
:101FE0000BD4C168C943890607D46FF02001016191
:101FF0002046BDE87040FFF7E3BC70BD00B5006847
:10200000094985B088420CD14FF44050009002201D
:102010000021CDE90101CDE9031069460348FFF72E
:102020001BF805B000BD000000080040000C024095
:10203000704770B5044690F838000D4601280DD061
:10204000012684F83860022084F8390042B1042A5D
:1020500018D0082A2AD00C2A4DD139E0022070BDB0
:10206000206800F01FFF2068816941F0080181614C
:102070002068816921F004018161206881692A69F1
:10208000114311E0206800F039FF2068816941F4B4
:10209000006181612068816921F48061816120682B
:1020A00081692A6941EA0221816124E0206800F007
:1020B00057FF2068C16941F00801C1612068C1690A
:1020C00021F00401C1612068C1692A69114311E04E
:1020D000206800F075FF2068C16941F40061C161AA
:1020E0002068C16921F48061C1612068C1692A69E1
:1020F00041EA0221C16184F83960002084F8380087
:1021000070BD10B5040003D094F8390010B107E099
:10211000012010BD002084F83800204600F00CF8A3
:10212000022084F83900211D206800F03DFE0120C6
:1021300084F83900002010BD08B5006806498842BF
:1021400008D10648016841F004010160006800F010
:102150000400009008BD0000000800404038024024
:102160007047000010B504460068012200F07CFEB4
:1021700008492068884202D00749884203D1416C4F
:1021800041F4004141642068016841F001010160AF
:10219000002010BD0000014000040140704790F88D
:1021A00038300022012B0AD0012380F8383041B1A9
:1021B000042909D008290AD00C290DD10AE00220EF
:1021C000704701684A6B07E001688A6B04E00168A8
:1021D000CA6B01E001680A6C002180F838101046D3
:1021E0007047704710B504460068416994F839207B
:1021F000C1F3C011212A0BD151B1416921F08001F5
:102200004161206B08B1FEF75CFD204600F0D7FF6E
:102210002068416994F83A20C1F38011222A0BD139
:1022200051B1416921F040014161606B08B1FEF795
:1022300048FD204600F0B5FF002010BD70470000AB
:1022400070B5064600682A4B00250221032286B09D
:10225000984214D12748036843F080430360006824
:1022600000F080400590D0018DE823000820CDE9E2
:10227000032069462048FEF7EFFE06B070BD1F4BF5
:102280009842FAD11B48001D036843F01003036015
:10229000006800F010000590C0208DE823000720A2
:1022A000CDE9032069461648FEF7D6FE164C1548C0
:1022B00020604FF00060C4E901054014C4E90350F8
:1022C0006561A561E561256220466562FEF714FE41
:1022D00018B198210DA001F0D4F80B487463403870
:1022E000A6630068C16841F01001C160C5E7000045
:1022F00000780040403802400010024000100140C9
:102300000004024040640240440100202E2E2F535E
:1023100072632F75736172742E63000070B504468A
:1023200090F83A00202839D1A9B3A2B394F8380024
:10233000012833D0012084F83800A162A28500254D
:10234000E563222084F83A00636B1548D863636B19
:1023500014481864636B1448D864606B13460565B1
:102360000846666B216802463046091DFEF72CFEC2
:102370002068C16841F48071C1602068416941F002
:10238000010141612068416941F04001416184F8E7
:102390003850002070BDFFE70120FBE70220F9E77D
:1023A0005D3100089931000813310008704770470B
:1023B000FEE70000114810B50F490160022141609D
:1023C00000214FF450228160C0E903124FF4A002B3
:1023D000C0E905210122C161C0E90812C0E90A1261
:1023E000FEF70AFA002805D0BDE810401A2104A023
:1023F00001F047B810BD00000064004084000020D8
:102400002E2E2F5372632F63616E2E630000000027
:10241000154808B5016841F480010160016801F4C4
:1024200080010091016841F4001101600068002200
:1024300000F40010009011460D20FEF7C9FF0D209A
:10244000FEF7BBFF002211460F20FEF7C1FF0F2051
:10245000FEF7B3FF022201213A20FEF7B9FFBDE8E3
:1024600008403A20FEF7A9BF3038024030B52B486B
:1024700085B00021026842F001020260026802F0A9
:1024800001020092026842F002020260026802F059
:1024900002020092026842F004020260026802F046
:1024A00004020092026842F008020260026802F030
:1024B00008020092026842F010020260026802F014
:1024C00010020092026842F020020260026802F0EC
:1024D00020020092026842F040020260026802F0AC
:1024E00040020092026842F08002026000684FF4ED
:1024F000005400F0800000900120CDE9004002204F
:10250000CDE90201064D69462846FEF7A5FD0122E8
:1025100021462846FEF786FE05B030BD3038024021
:102520000018024010B5174886B01549016042F204
:10253000CF010024C0E901146321C0E90314FFF7AF
:1025400068FA18B1172110A000F09BFF4FF48050DB
:10255000009069460B48FFF7B7FA18B11D210AA091
:1025600000F08FFF049404A906480594FFF729FAA8
:10257000002803D0242104A000F083FF06B010BD82
:1025800000040040A40100202E2E5C5372635C7492
:10259000696D2E630000000010B524488AB02249FE
:1025A000016053210024C0E9011440F2CF71C0E959
:1025B0000314FFF7A6FD18B135211DA000F061FF3F
:1025C000079407A919480894FFF7FBF918B13C21B3
:1025D00017A000F056FF602000904FF47A70CDE90C
:1025E00001040022694611480494FFF722FD18B146
:1025F00046210FA000F045FF042269460B48FFF773
:1026000018FD18B14B210AA000F03BFF0748FFF767
:10261000F5FC00210548FFF7A5FD04210348FFF75D
:10262000A1FD0AB010BD000000080040E00100203C
:102630002E2E5C5372635C74696D2E630000000083
:1026400010B529488AB02749016040F2473100247B
:10265000C0E901144FF6FF71C0E90314FFF7D9F97F
:1026600018B1612121A000F00CFF4FF480500490BC
:1026700004A91D48FFF728FA18B167211BA000F034
:1026800000FF1948FFF7C5FB18B16C2117A000F037
:10269000F8FE089408A914480994FFF792F918B1B4
:1026A000732112A000F0EDFE0120CDE900400220D0
:1026B000CDE90240002269460B48FFF71BFB18B129
:1026C0007C210AA000F0DDFE042269460648FFF7DF
:1026D00011FB002803D0812104A000F0D2FE0AB033
:1026E00010BD0000000C00401C0200202E2E5C5388
:1026F00072635C74696D2E63000000000E4810B5B3
:102700000C4901604FF4E1314160002181600C22ED
:10271000C160C0E9041281610A46C161FEF706FE8C
:10272000002805D0BDE81040442104A000F0A9BE57
:1027300010BD000000780040C40000202E2E2F5352
:1027400072632F75736172742E6300000E4810B5AA
:102750000C4901600D49416000214FF480628160A5
:10276000C0E903120422C0E905210A46C161FEF74F
:10277000DDFD002805D0BDE81040572104A000F081
:1027800080BE10BD0010014004010020A0860100A1
:102790002E2E2F5372632F75736172742E63000097
:1027A000FEE7D0ED001A31EE800A80ED000AB4EEAB
:1027B000E00AF1EE10FA01DDC0ED000A90ED000A2A
:1027C000B4EEC10AF1EE10FA01D280ED001A002138
:1027D00080F83C107047000070B504462DED028B68
:1027E000B7EE008A90F83C00012380B101282DD17A
:1027F00094ED000A84ED010A9FED4B0A84ED0A0A6C
:1028000084ED0B0A84ED090A84ED0C0A1CE094EDBA
:102810000A1A464D84ED0B1A002294EC020A444831
:1028200030EE600A10EE101A84ED0A0AA94210D2A6
:1028300010EE101A3F4DA9420BDA0178491CC9B2BB
:1028400001700A2902D1027084F83C30BDEC028B81
:1028500070BDB5EEC00A0270F1EE10FA01D2BFEE03
:10286000008AD4ED090A344970EE800A10EE900A0D
:10287000C4ED090A884203DBDFED300AC4ED090A22
:1028800010EE900A2E49884203D3DFED2E0AC4EDE4
:10289000090AD4ED060A9FED2C2A30EE411A60EEAB
:1028A000800A60EE801AC1EE820AD4ED071A94ED18
:1028B000092A41EE820AD4ED081A41EE810A9FED01
:1028C000231AC4ED0C0AD4ED050A60EE810A60EE0D
:1028D000880A20EE800A00F0D5FD20EE080A94ED6B
:1028E0000C1AF0EEC00AB0EEC11AF4EEC10AF1EE15
:1028F00010FA01D284ED0C0AD4ED0C0A94ED0E0A04
:10290000F4EEC00AF1EE10FA01DB84ED0C0AD4ED0E
:102910000C0A94ED0D0AF4EEC00AF1EE10FA95D807
:1029200084ED0C0A92E70000000000000000A0C146
:10293000240000200000A04100401C4600401C462E
:1029400000401CC600401CC60000C842CDCCCC3F95
:1029500080ED010A704701210170C0ED041A80ED7D
:10296000052AC0ED0E2A80ED0D3A80ED145AC0ED17
:102970001D5A80ED1C6A00F1180181EC030A3C31FC
:10298000C1EC033A70470000D0ED010A90ED031A44
:1029900090ED000A70EEC11AF4EEC01AF1EE10FAD2
:1029A00002DD30EE010A0AE090ED041A70EE811AA1
:1029B000F4EEC01AF1EE10FA04D230EE410A80EDC6
:1029C000000A01E0C0ED000AD0ED090A244AC0ED7A
:1029D0000A0A90ED000A90ED021A30EE410A80EDED
:1029E000090A30EE601AD0ED080A70EE800A10EE87
:1029F000901AC0ED080A914203DBDFED1A0AC0ED20
:102A0000080A10EE901A184A914203D3DFED170A14
:102A1000C0ED080AD0ED050AD0ED081A20EE800AB4
:102A2000D0ED060A00EEA10AD0ED070A00EE810AF9
:102A300080ED0B0AD0ED0D0AB4EEE00AF1EE10FACB
:102A400002DAF0EE400A01E0C0ED0B0A90ED0C0A4C
:102A5000F4EEC00AF1EE10FA01D880ED0B0A7047CF
:102A600000401C4600401C4600401CC600401CC6DE
:102A700070470907090E002806DA00F00F0000F180
:102A8000E02080F8141D704700F1E02080F8001469
:102A900070477047002835D01B4A0121117001880A
:102AA000C1F30A0219490A8042788378D20842EABF
:102AB0004312C2F30A024A808278C378920942EA3A
:102AC0008302037942EA8322C2F30A028A800279EE
:102AD0004379520842EAC312C2F30A02CA80427919
:102AE00092090A724279C2F301124A72C2884A817B
:102AF00002898A814289CA81027B0A74427B4A74B4
:102B0000C08948827047000008000020360300207A
:102B100038B51D49012008701C4800680168C94388
:102B2000C9062FD401684068194C0090194A2168E1
:102B30004FF40010914202D916494C3904E0164A6C
:102B4000914203D913495039086008E0124B124AE8
:102B5000603BB83A994201D9D06000E090600B48E0
:102B6000FFF740FB206840681E22C0F11E040B499D
:102B70000648FFF7D3FB122C04D1BDE838400748C4
:102B8000FFF788BF38BD00000800002004010020C6
:102B90004401002058640240B8600240180300203D
:102BA000704700002DE9F0411A481B4C4FF47A752C
:102BB000027A0120E168022A0DD0032A14D0A06015
:102BC000012900D020606560E060206800281FD0E7
:102BD000124E371D17E040F2DC5262600322A26001
:102BE000032908D0206006E040F2145262600222FD
:102BF000A2600229F6D1E260E7E735603D6001207E
:102C0000FEF71EFA6D1C60688542F6DD002020602C
:102C1000BDE8F081360300200C000020340800409D
:102C200010B5022201211420FEF7D2FB1420FEF77A
:102C3000C4FB022200212520FEF7CAFB2520FEF757
:102C4000BCFB012200211D20FEF7C2FB1D20FEF768
:102C5000B4FB002201213920FEF7BAFB3920FEF730
:102C6000ACFB012211460D20FEF7B2FB0D20FEF752
:102C7000A4FB012211460F20FEF7AAFBBDE810407D
:102C80000F20FEF79ABB10B5FEF7D8FABDE810404A
:102C9000FEF791BE30B5254893B00025016841F09C
:102CA00080510160006800F0805011902048016858
:102CB00041F4404101600068022400F4404011905A
:102CC0000120009001908005CDE906400C2008907D
:102CD0004FF4A870CDE9090404200B906846FEF774
:102CE000D7FC00B1FEE70CA90F2081E831004FF4BA
:102CF000A0500F904FF48050109005210CA8FEF7C3
:102D000099FB00B1FEE7FEF753FC4FF47A71B0FB7C
:102D1000F1F0FEF73CFE0420FEF72CFE00221146E7
:102D2000501EFEF755FB13B030BD00004038024086
:102D3000007000401048016841F4700101600F48C4
:102D4000016841F0010101600C4A00210832116064
:102D500002680B4B1A400260031D0A4A1A6002689F
:102D600022F48022026005480C30016002495806B6
:102D7000803908607047000088ED00E000380240AC
:102D8000FFFFF6FE1030002410B500F087FCBDE810
:102D900010400148FFF77FB8A40100200148FFF769
:102DA0007AB800001C020020F0B50268234B244DC5
:102DB000244E254F254C4FF0804C984209D0604559
:102DC00007D0A84205D0B04203D0B84201D0A042FB
:102DD00004D122F0700E4A6842EA0E0298421BD0DB
:102DE000604519D0A84217D0B04215D0B84213D0D0
:102DF000A04211D0164DA8420ED0164DA8420BD0BD
:102E0000154DA84208D0154DA84205D0144DA84232
:102E100002D0144DA84203D122F44075CA682A4357
:102E200002608A68C2620A688262984201D0A04247
:102E300001D10969016301214161F0BD0000014038
:102E40000004004000080040000C00400004014065
:102E5000004001400044014000480140001800408B
:102E6000001C00400020004010B50123046A8B4084
:102E70009C430462036A8A401343036210BD10B589
:102E8000846842EA032224F47F440A432243826096
:102E900010BD826822F070020A4342F0070181608F
:102EA0007047000030B5026A22F001020262026A35
:102EB000436884690D6824F07304254322F00204FA
:102EC0008A6822430B4CA04202D00B4CA0420BD18B
:102ED00022F00804CA6823F4407322434C6922F0AC
:102EE00004021C438B692343436085614968416345
:102EF000026230BD000001400004014030B5026AAA
:102F000022F010020262026A436884690D6824F4A8
:102F1000E64444EA05248D6822F0200242EA0512C4
:102F20000D4DA84202D00D4DA8420ED1CD6822F021
:102F3000800242EA05124D6923F4406343EA8503A7
:102F40008D6922F0400243EA850343608461496849
:102F50008163026230BD00000000014000040140B6
:102F600030B5026A22F480720262036A4268C46960
:102F700023F4007324F073050C682C438D6843EA36
:102F800005230D4DA84202D00C4DA8420ED1CD68AC
:102F900023F4006343EA05234D6922F4405242EAD8
:102FA00005128D6923F4806342EA05124260C46110
:102FB0004968C163036230BD000001400004014064
:102FC00030B5026A22F480520262046A4268C36920
:102FD0000D6823F4E64343EA05238D6824F4005486
:102FE00044EA0534084DA84202D0084DA84204D155
:102FF0004D6922F4804242EA85124260C361496809
:103000000164046230BD0000000001400004014082
:1030100010B5036A046A24F001040462846924F090
:10302000F00444EA021423F00A020A4384610262B3
:1030300010BD000070B5046A24F0010404628469C4
:10304000056A164EB04214D0B0F1804F11D0144E24
:10305000B0420ED0134EB0420BD0134EB04208D047
:10306000124EB04205D0124EB04202D0114EB042C4
:1030700003D124F00304144303E024F0030242F0DC
:1030800001041A0724F0F00444EA126225F00A034E
:1030900001F00A0119438261016270BD0000014024
:1030A0000004004000080040000C00400004014003
:1030B000004001400018004010B5036A23F01003DF
:1030C00003628369046A23F4704343EA023224F002
:1030D000A00343EA01118261016210BD30B5046AA8
:1030E00024F0100404628469056A24F4407444EAFC
:1030F000022222F470444FF6FF7202EA03322243A6
:10310000A02425F0A00304EA0111194382610162A1
:1031100030BD70B5846B2068406994F83910C0F3F5
:10312000C0100025212904D118B1E584204600F003
:1031300046F82068406994F83A10C0F380102229BC
:1031400004D118B1E585204600F02BF8E06B40F083
:103150001000E0632046FFF771F870BD10B501461E
:10316000806B09680968C90513D40021C18501680D
:10317000CA6822F48072CA6001684A6922F00102BA
:103180004A6101684A6922F040024A61202180F8C0
:103190003A10FFF70BF910BD10B5806BFFF707F978
:1031A00010BD0168CA6822F49072CA6001684A6959
:1031B00022F001024A61202180F83A10704701682C
:1031C000CA6822F0C002CA60202180F83910704716
:1031D0002DE9F04104460068016921F44052E1689C
:1031E000114301612168C86849F20C629043236968
:1031F000A268E5691A4363692B431A430243CA6014
:103200002168486920F44072A06910434861E1696F
:103210006425B1F5004F9748974A21684FF032086E
:103220003FD0914201D081427CD1FEF7DFF900EB23
:10323000C00101EB001061688900B0FBF1F6FEF7F8
:10324000D5F900EBC00101EB001061688900B0FB0B
:10325000F1F0B0FBF5F06FF01801484306EB800188
:1032600008EB0110B0FBF5F000F0F006FEF7BEF938
:1032700000EBC00101EB001061688900B0FBF1F0C8
:10328000B0FBF5F006EB0016FEF7B0F900EBC0015D
:1032900001EB001061688900B0FBF1F7FEF7A6F9B9
:1032A000D2E0914201D081423DD1FEF79FF900EB7F
:1032B000C00101EB001061684900B0FBF1F0B0FB08
:1032C000F5F00601FEF792F900EBC00101EB0010EA
:1032D00061684900B0FBF1F7FEF788F900EBC00127
:1032E00001EB001061684900B0FBF1F0B0FBF5F0B4
:1032F0006FF01801484307EB800108EBC100B0FBF9
:10330000F5F000F0F80006EB4006FEF76FF900EB71
:10331000C00101EB001061684900B0FBF1F7FEF756
:1033200065F93CE055E0FEF749F900EBC00101EB1F
:10333000001061684900B0FBF1F0B0FBF5F0060148
:10334000FEF73CF900EBC00101EB00106168490099
:10335000B0FBF1F7FEF732F900EBC00101EB001012
:1033600061684900B0FBF1F0B0FBF5F06FF01801B7
:10337000484307EB800108EBC100B0FBF5F000F01B
:10338000F80006EB4006FEF719F900EBC00101EB6F
:10339000001061684900B0FBF1F7FEF70FF900EB90
:1033A000C00101EB001061684900B0FBF1F0B0FB17
:1033B000F5F06FF01801484307EB800108EBC100FE
:1033C000B0FBF5F000F00700216830448860BDE8EC
:1033D000F081FEF7F3F800EBC00101EB001061682B
:1033E0008900B0FBF1F6FEF7E9F800EBC00101EB54
:1033F000001061688900B0FBF1F0B0FBF5F06FF0F0
:103400001801484306EB800108EB0110B0FBF5F012
:1034100000F0F006FEF7D2F800EBC00101EB00105F
:1034200061688900B0FBF1F0B0FBF5F006EB001627
:10343000FEF7C4F800EBC00101EB001061688900E1
:10344000B0FBF1F7FEF7BAF800EBC00101EB00109A
:1034500061688900B0FBF1F0B0FBF5F06FF0180186
:10346000484307EB800108EB0110B0FBF5F000F0DA
:103470000F00A9E70014014000100140FFF748BB0E
:10348000FEE7FEE710B52DED028BB1EEC08A18EE17
:10349000100A20F00040C0F1FF40C00F0AD010EE2B
:1034A000100A20F00040C0F1FF40C00F04BF01200F
:1034B00000F014F8B0EE480ABDEC028B10BD02E03B
:1034C00008C8121F08C1002AFAD1704770470020AF
:1034D00001E001C1121F002AFBD1704701490860B9
:1034E00070470000400000202DED048BFDF7AEFE7C
:1034F000FFF7D0FBFEF7BAFFFEF78AFFFEF75AFF91
:10350000FFF724F9FFF7FAF8FFF746F8FFF70AF894
:10351000FFF796F800214C48FEF797FC04214A4833
:10352000FEF793FC4948FCF777FEFFF779FB4FF471
:103530007A70FDF785FD464890ED120A9FED458AA9
:10354000B0EE481ADFED448A3C30F0EE680AFFF72F
:1035500028F9B0EE481AF0EE680A9FED400A40489C
:10356000FFF71FF9F0EE685ADFED3F8A9FED3F9AB3
:10357000DFED3C3AB0EE486AB3EE045AF1EE044A8D
:10358000B1EE044AB0EE683AF0EE492AB3EE0E2AE4
:10359000F2EE0E1A9FED368AB2EE000A2C48B0EE1B
:1035A000481AF0EE480AFFF7D6F92D489FED316A28
:1035B000DFED315A9FED315AF0EE484AB0EE484AFD
:1035C000F2EE043A9FED2E3ADFED2E2AB3EE092AF1
:1035D000F3EE041AB0EE481ADFED2B0AB3EE090A37
:1035E0003C38FFF7B8F9B0EE486AF0EE485AB0EE52
:1035F000485AF0EE484AB0EE484AF0EE483AB0EE8B
:10360000683AF0EE492AB3EE0E2AF2EE041AB0EE52
:10361000481AF0EE480AB1EE080A1C48FFF79BF979
:103620001B48FEF745FA1B4D01261B4C002700BF27
:10363000FFF7B8FA687A012802D0C4F8B472F7E745
:10364000C4F8B462F4E700001C02002084000020EB
:10365000E40300200000FAC50000FA4500A025455B
:10366000A00300200000C84200A00CC600A00C4629
:1036700000000000000096C3000096430000704266
:103680000050C3C60050C346CDCC4C3E640400205D
:10369000A4010020360300200000434270B51E4EF6
:1036A0003078A8B31D4CDFED1E0A1E4D20889FED1B
:1036B0001E1AA0F5806000EE100A1D48B8EEC00A80
:1036C00020EE200ADFED190A85ED010AFFF769F8FF
:1036D00060889FED181AA0F5806000EE100ADFEDFB
:1036E000160A1648B8EEC00A85ED000AFFF759F829
:1036F000E088F2EE040AA0F5806000EE100A10489F
:10370000B8EEC00A20EE200A85ED020AFFF720F984
:103710000020307070BD000008000020360300203B
:10372000CDCC4C3E340000200080D44400409C4569
:10373000A00300200050C3C7007C124820040020D2
:1037400068040020000000000102030401020304D9
:103750000607080900061016000610167C37000838
:103760000000002044000000BE340008C0370008FC
:1037700044000020A4080000CE340008000000002F
:103780000024F40000000000000000000000000021
:103790000000000000000000000000000000000029
:1037A00000000000000000003200000000000000E7
:1037B0000000000000000000000000000000000009
:04000005080001AD41
:00000001FF
