:020000040800F2
:10000000E8110020C1010008D5340008E12E0008E5
:10001000B5330008E1080008434200080000000072
:10002000000000000000000000000000E9360008A9
:10003000C50C000800000000F7340008FF38000875
:10004000DB010008DB010008DB010008DB01000820
:10005000DB010008DB010008DB010008DB01000810
:10006000C90C0008DB010008DB010008DB01000807
:10007000DB0100088D0B0008990B0008A50B000898
:10008000DB010008B10B0008DB010008DB01000800
:10009000E5080008DB010008DB010008E50C0008AA
:1000A000DB010008DB010008DB010008DB010008C0
:1000B000DB0100088D3A0008DB010008DB010008C5
:1000C000DB010008DB010008DB010008DB010008A0
:1000D000DB0100082F420008DB0100083542000860
:1000E000DB010008DB010008DB010008DB01000880
:1000F000DB010008DB010008DB010008DB01000870
:10010000DB010008DB010008A13A0008DB01000860
:10011000DB010008DB010008DB010008DB0100084F
:10012000DB010008BD0B0008C90B0008DB0100085B
:10013000DB010008DB010008DB010008DB0100082F
:10014000DB010008DB010008DB010008DB0100081F
:10015000D50B0008150C0008DB010008414200081F
:10016000DB010008DB010008DB010008DB010008FF
:10017000DB010008DB010008DB01000800000000D3
:10018000DB010008DB0100085B3D00085F3D000863
:10019000DB010008DB010008DB010008DB010008CF
:1001A0000000000000000000DB010008DFF80CD0B8
:1001B00000F018FB004800477D450008E8110020CA
:1001C0000648804706480047FEE7FEE7FEE7FEE7F1
:1001D000FEE7FEE7FEE7FEE7FEE7FEE7AD390008D3
:1001E000AD01000801804280436070472DE9F04F67
:1001F00002884768B0F802804888D1F8049082B03D
:100200004FF0000A1646824207BF098888456FF002
:10021000020002B018BFBDE8F08F4FEA980B02EB66
:1002200042000190C8F34000CDF8000009EB8A01BC
:10023000BBF1000F33D0019801EB820C01EB80047D
:100240003B46E64601EBC2054FEA0B0093ED000A80
:10025000401E81ED000A93ED010A01EB02118CEDC5
:10026000000A93ED020A0CEB021C85ED000A93EDE7
:10027000030A05EB021584ED000A04EB021403F1F6
:100280001003E3D10EEB820000EB820000EB820151
:10029000ABF10100504307EB0B1701EB001118F015
:1002A000030C21D03B1FA1EB82011CF0010F06D0F3
:1002B00093ED010A01EB82011B1D81ED000A0098FC
:1002C00080B100BF93ED010A01EB820401EBC20192
:1002D00084ED000A93ED020A401E81ED000A03F14D
:1002E0000803EFD107EB8C070AF101001FFA80FA2F
:1002F000701E0604360C99D102B00020BDE8F08FC4
:1003000040EA01039B0703D009E008C9121F08C097
:10031000042AFAD203E011F8013B00F8013B521E17
:10032000F9D270472DE9FE4F804681EA0300C00FE5
:100330000C46009021F0004123F00045B8EB02008C
:10034000A94105D24046214690461C460B4602462E
:1003500023F00040104347D0270DC7F30A00C3F332
:100360000A510290401A019040286BDAC3F313003F
:1003700040F4801B0098924620B10023D2EB030A80
:1003800063EB0B0B01985946C0F14002504600F058
:1003900022F906460D4650465946019A00F02AF9C0
:1003A00010EB08006141002487EA115284EAE773E8
:1003B0001A4340D0009A62B3019A012A4FEA0752C9
:1003C00015DC001B61EB02014FF0004202EA07520C
:1003D000CDE90042001C41F5801132462B4600F069
:1003E00061F903B0BDE8F08F40462146F9E7001BF4
:1003F00061EB0201001C41F5801300185B412018DD
:10040000A2F5001747EB030140EAD570B6196D411C
:1004100011E06D084FEA360645EAC0754FEA07520B
:10042000001B61EB0201001C41F5801149084FEAF5
:1004300030000019514132462B4603B0BDE8F04F61
:1004400000F021B90098012240000023D0EB020205
:1004500063EBE073009821464FEAE074B8EB0000CC
:1004600061EB0401E9E783F000435BE781F00041C1
:1004700058E72DE9FE4F81EA030404F0004421F01F
:10048000004100944FF0000B23F0004350EA0104B8
:100490005ED052EA03045BD0C3F30A54C1F30A5599
:1004A0002C44A4F2F3340194A0FB0254C1F31301D1
:1004B00041F48011C3F3130343F4801301FB02449E
:1004C00000FB034E840A970A44EA815447EA8357A3
:1004D000A4FB076802958D0A05FB07854FEA932C5C
:1004E00004FB0C542705029D4FEA065847EA1637CD
:1004F000B5EB08056EEB070C870E920E47EA8117E5
:1005000042EA8312A7FB0201B6EB0B0164EB000485
:100510002B0D43EA0C335E1844EB1C50DA4651466F
:10052000E7FB0201C5F313044FEA0B3343EA14530C
:100530004FEA0432019C43EA0603A4F10C0402943E
:10054000009CCDE900B400F0ADF803B0BDE8F08F39
:1005500000200146F9E70EB5C10F80EAE0700844BB
:10056000CA07002140F233438DE80E000A460B46CD
:1005700000F098F803B000BD00F0004230F00040F9
:100580000AD0C10D01F56071C0F3160042EA0151B5
:10059000C20840071143704700200146704701F030
:1005A000004330B421F0004150EA010206D00A0DA8
:1005B000A2F56072C1F31301002A02DC30BC0020F6
:1005C0007047440F44EAC104C100E01830BC00EB9E
:1005D000C25000F021B8202A04DB203A00FA02F1D0
:1005E000002070479140C2F1200320FA03F3194321
:1005F00090407047202A06DBCB17203A41FA02F0E0
:1006000043EAE07306E041FA02F3D040C2F120026F
:1006100091400843194670470029A8BF7047401C05
:10062000490008BF20F00100704710B4B0FA80FC08
:1006300000FA0CF050EA010404BF10BC704749B145
:10064000CCF1200421FA04F411FA0CF118BF0121B5
:1006500021430843A3EB0C01CB1D4FEA00614FEA95
:10066000102042BF002010BC704700EBC350104464
:100670000029A4BF10BC7047401C490008BF20F0EF
:10068000010010BC704710B5141E73F1000408DAA5
:10069000401C41F1000192185B411A4301D120F046
:1006A000010010BD2DE9F04D92469B4611B1B1FA03
:1006B00081F202E0B0FA80F220329046FFF78BFF21
:1006C00004460F4640EA0A0041EA0B0153465A46E7
:1006D000084313D0114653EA010019D0C8F1400273
:1006E000504600F091F805460E465046594642469F
:1006F000FFF771FF084305D0012004E0204639468A
:10070000BDE8F08D0020054346EAE0762C433743F0
:100710000A986305E40AA0EB08000022FD0A44EAF7
:1007200047540A3002D500200146E9E701051019B7
:100730006941DDE9084500196941BDE8F04DA2E7CE
:100740002DE9F04D00231A461B1A8A4103DB0020D5
:100750000146BDE8F08DC1F30A52C1F3130141F423
:1007600080154FF0000BD10702D100186D41521EC9
:100770000027044640F2FF11384601EB620A3E466C
:100780008046024600204FF4801100F03DF8C21967
:100790007141BB1846EB0100B4EB030C75EB000C88
:1007A00004D3E41A65EB000517460E46241908F138
:1007B00001006D4180463428E3DDF91946EB06005F
:1007C000091BA84103D24FF0FF32134601E000227B
:1007D00013461BEB070046EB0A51BDE8F04DFFF74F
:1007E00052BF0000064C074D06E0E06840F00103F0
:1007F00094E8070098471034AC42F6D3FFF7DAFCD0
:100800004455000864550008202A04DB203A21FAE8
:1008100002F00021704721FA02F3D040C2F1200219
:10082000914008431946704723489FED220ADFEDA7
:10083000230A80ED020A9FED220AC0ED030A80ED33
:10084000040A9FED200AB6EE001A80ED060A80ED3C
:10085000071A9FED1D1A80ED081AB5EE001A80EDFB
:10086000091A80ED0A0A9FED190A80ED120A9FED20
:10087000180A80ED130A9FED170A80ED140A9FED08
:10088000160A80ED0E0A80ED0F0A80ED0B0A80ED4E
:100890000C0A80ED0D0AB1EE000A80ED230A9FEDEF
:1008A0000F0A80ED220AC0ED210AB7EE000A80EDA2
:1008B000150A704700001643B4040020CDCC4C3D0F
:1008C0006F12833A0AD7233C6F12033C0000C842E0
:1008D0000000FA43000016440000000000004843F6
:1008E000FEE70000014800F055BB0000F8070020BB
:1008F00000B58BB000210122CDE9061203910892C8
:100900000491019102910E2205910992044901631B
:100910001C314163694600F0C9FA0BB000BD00000C
:10092000B807002070B5164C40F2FF15266B3560F5
:10093000266B7560266B0025B560266BF560266B0F
:1009400008253561266B050A3575256B6875256B9D
:10095000080AA875206BC175216B100A0876206BF8
:100960004276216B180A8876206B0021C3762046D8
:1009700000F0DCFC08B1002070BD012070BD00005B
:10098000F80700201D4A12687AB191ED160A81ED30
:10099000170A426B928A52BA12B200EE102AB8EECF
:1009A000C00A81ED160A81ED110A426BD28A52BA51
:1009B00012B200EE102AB8EEC00A81ED030A426BB3
:1009C000928A52BA12B200EE102AB8EEC00A81ED35
:1009D000120A426B128B52BAA1F88C20406B01684C
:1009E000A1F50072053A07D1807E00EE100A044896
:1009F000B8EE400A80ED000A7047000008000020B1
:100A00001000002010B54FF4D872036802EB0112F9
:100A10009B5813F00404436B9C600468436BA45818
:100A200054D0E4085C6003689A58436B02F00202F9
:100A3000DA604FF4DA72036802EB01129B58446BE0
:100A400003F00F03236103689A58436BC2F3072234
:100A5000DA614FF4DC72036802EB01129B58446BBD
:100A6000237503689B58446B1B0A637503689B5886
:100A7000446B1B0CA37503689A58436B120EDA750E
:100A80004FF4DE72036802EB01129B58446B23762D
:100A900003689B58446B1B0A637603689B58446B3E
:100AA0001B0CA37603689A58436B120EDA76202249
:100AB000002901680DD00A6101684A6922F010021C
:100AC0004A6190F83810222909D021E0640D1C6099
:100AD000A9E7CA6001684A6922F00202F0E70168EA
:100AE0004A6922F480724A6101684A6922F40072FC
:100AF0004A6101684A6922F480624A6101684A6970
:100B000022F400624A6101684A6922F400424A61A3
:100B100090F83810322907D05FF0010180F83810C2
:100B200000F0C6FB002010BD1221F7E710B50168E8
:100B30004A6922F001024A6190F83810122918D14E
:100B400001684A6922F480724A6101684A6922F4A4
:100B500000724A6101684A6922F480624A61016850
:100B60004A6922F400624A6101684A6922F400423B
:100B70004A6190F83810322906D0012180F83810E7
:100B800000F09EFC002010BD2221F7E7014800F094
:100B9000F1BC0000EC080020014800F0EBBC0000B4
:100BA0006C0C0020014800F0E5BC00004C0900205E
:100BB000014800F0DFBC0000CC0C0020014800F030
:100BC000D9BC00000C0C0020014800F0D3BC000090
:100BD000EC0A00200C480D4A0168D014914202D959
:100BE0000A494C3904E00A4A914203D9074950396D
:100BF00008607047064B064A603BB83A994201D9F3
:100C0000D060704790607047840D002058640240A7
:100C1000B8600240014800F0ADBC0000AC0B002001
:100C200001681823CAB2103AB2FBF3F2054B6FF316
:100C30000901032A9B5CC36500D9091D816508462B
:100C400070470000D450000810B5014600208B69A1
:100C50008A6A4FF0C07453B1B3F5005F15D072B11A
:100C6000012A0CD0022A0AD0032A09D104E01AB1C1
:100C7000012A06D0022A03D1C96AC90100D5012080
:100C800010BDC96AA142FAD010BD002AF7D0012ACE
:100C9000F2D0022AF3D0032AF3D010BD30B5046895
:100CA000256825F480252560046863608368402BEF
:100CB000036803D099600068C26030BD9A60006824
:100CC000C16030BD7047000010B503F00FFB044950
:100CD0000020C1F8B802BDE81040042000F0C4BDF7
:100CE000008042424FF4807000F0BEBD10B558B194
:100CF000084C491E0BD310F8013B5340DBB234F8CB
:100D0000133083EA1222F4E74FF6FF7010BD10464D
:100D100010BD00004453000810B5054C04E000BFAE
:100D200010F8013B5340E25C491EF9D2104610BD59
:100D30004452000870B503F0D3FE534DA5F15400A2
:100D400095ED1F0A02F07EFEA5F154004F4990ED8B
:100D5000000A2C1D85ED020AD5ED0B0AC5ED0C0A23
:100D6000D5ED040A30EE600A85ED0B0AD5ED0C0ACC
:100D700030EE601AD5ED0A0A30EE800A10EE100A45
:100D800085ED0A0A884202D39FED410A06E010EE83
:100D9000100A4049884201DB9FED3F0A84ED090AB1
:100DA000D4ED060AD4ED0A1A60EEA10AD4ED071AB2
:100DB00041EE800A94ED080A40EE010AC4ED0C0AE7
:100DC00094ED0D0AF4EEC00AF1EE10FA06D994ED96
:100DD0000E0AF4EEC00AF1EE10FA01DBF0EE400A62
:100DE000C4ED0C0A03F02AFE274E9036A6F1C80087
:100DF00096ED1F0A02F026FE96ED1F0A86ED020A06
:100E000003F0C0FE06F19004201D02F015FB94EDE6
:100E10000D0A224A10EE101A2148914204DA10EE0F
:100E2000101A204A914209D3D4ED030AF5EEC00A04
:100E3000F1EE10FA02D10021017002E001783229AE
:100E400006D2B1EE400AC9B284ED0D0A491C017008
:100E5000BDEEC00ADFED140A002310EE100A96ED75
:100E60000D0A02B230EE200ABDEEC00A10EE100AE2
:100E700095ED0D0ABDE87040BDEEC00A01B210EE5E
:100E8000100A00B2FFF74EBD1002002000007AC524
:100E900000007AC500007A4500007A4500A00C46A3
:100EA0004000002000A00CC600007A44F0B50A7D86
:100EB00001209040344A136843F001031360136823
:100EC00023F47C53136013684C6A43EA04231360D1
:100ED0002D4B1C331C6884431C602B4D2B4CCE695E
:100EE0000C35A6B92E6886432E608F894E6867F34D
:100EF0001F464F6904EBC707C7F840660F890E68A5
:100F000067F31F464F6904EBC707C7F84466CE690D
:100F1000012E14D12E6806432E600E884D6866F3AC
:100F20001F454E6904EBC606C6F840560E89CD68CB
:100F300066F31F454E6904EBC604C4F84456124CD0
:100F40008D69241D002D256806D0054325600E4CB3
:100F50000D69143415B104E08543F7E7256885432E
:100F600025600D69012D02D1256805432560096AB8
:100F7000012902D1196801431960106820F00100AD
:100F800010600020F0BD00000066004000600040DE
:100F90007047000010B5044600684169C943C9079D
:100FA00014D182685849914368D000218368574A18
:100FB0009A4365D0002283685548984362D0002048
:100FC0001143014302D02046FFF7B0FD2068C168FD
:100FD000406911F0030FC0F3400004D018B10021A4
:100FE0002046FFF70FFD21680869496910F0030FDB
:100FF000C1F3001104D019B101212046FFF702FD11
:1010000020688169426911F0010FC2F3002342692F
:10101000C2F3C03205D023B11AB1E16B41F0010136
:10102000E1638169C1F3400341694269C1F3402131
:10103000C2F3C0322BB121B11AB1E16B41F0020110
:10104000E16381694269C1F38001C2F3802342698F
:10105000C2F3C03229B123B11AB1E16B41F00401EE
:10106000E163816911F0700F0ED00021426943697C
:10107000C2F3C022C3F3C03341B127E0012195E799
:10108000012298E701209BE70121EFE7F2B1EBB1E4
:10109000816901F07001402929D006DC102909D0AE
:1010A00020290BD030290DD11DE0502923D06029F3
:1010B00008D124E0E16B41F0080102E0E16B41F06E
:1010C0001001E163816921F070018161E06B00280A
:1010D00008D0216804204860012084F838002046A8
:1010E000FFF756FF10BDE16B41F02001E9E7E16B2E
:1010F00041F04001E5E7E16B41F08001E1E7E16BA0
:1011000041F48071DDE700000300000400030008E3
:10111000000003102DE9F041040004D094F83800D9
:10112000002518B107E00120BDE8F08184F83950AE
:10113000204600F093F8022084F838002068016807
:1011400021F0020101602068016841F001010160A5
:1011500000F082FC0746032605E000BF00F07CFC9F
:10116000C01B0A2863D820684068C007F6D02068F2
:101170004168C90768D0A169012901683FD021F001
:1011800080010160E0690128206801683AD021F0FF
:1011900040010160206A01282068016835D021F0F3
:1011A00020010160606A01282068016830D021F0C8
:1011B00010010160A06A0128206801682BD021F08D
:1011C00008010160E06A01282068016826D021F04A
:1011D00004010160D4E902010843D4E90412114377
:1011E00008436168491E08432168C8612068016896
:1011F00021F00101016000F02FFC07461CE041F0E6
:101200008001BEE741F04001C3E741F02001C8E79B
:1012100041F01001CDE741F00801D2E741F00401AF
:10122000D7E700BF00F018FCC01B0A2804D904F857
:10123000386F0320657077E720684068C007F1D1F8
:1012400020684068C00703D0042084F838006AE7AB
:10125000E563012084F83800002065E710B50446F6
:101260000068104986B088421AD10F4800210268F0
:1012700042F0007202600068022200F000700590E7
:101280000320CDE90210CDE900020920049069464F
:10129000064800F0F5FA2068416941F00201416119
:1012A00006B010BD0064004040380240000C02400F
:1012B00003461A4800B583422FD1586B816839BB69
:1012C000C16829BB0168A1F50071053904D0012965
:1012D00004D002291CD103E0114916E0114914E0A1
:1012E000808A40BA00B200EE100A0F48B8EEC00A79
:1012F00080ED160A596BC98A49BA09B200EE101A74
:101300000146B8EEC00A80ED030A1846FFF73AFB23
:101310001868416941F00201416100BDF8070020F1
:1013200010020020A0020020300300202DE9F05F11
:101330000E46016804468868400105D488680001AB
:1013400002D48868C00067D594F8390001280ED00F
:10135000012784F8397094F8380022280AD0122026
:1013600084F838008868400106D500250AE002208C
:10137000BDE8F09F3220F3E78868000101D5012520
:1013800000E002254FF4C07000EB05100A5802F08F
:1013900001020A50216B8A68EAB3D4F800C05CF8F5
:1013A00000301343CA68496842EAC1010B434CF854
:1013B0000030216B0A7C02F00F020A614FF4C27107
:1013C000226801EB0511535823F00F035350226894
:1013D0005358D4F830C0DCF810C043EA0C03535023
:1013E000216B4FF4C47303EB05130A7DD1F815107C
:1013F00042EA01212268D150216B4FF4C67303EBFE
:1014000005130A7ED1F8191042EA01212268D15051
:1014100021680A5801E00DE046E042F001020A505E
:1014200000F01AFB81464FF00008DFF888A0DFF8D3
:1014300088B019E022681358D1F80CC0098843EA33
:101440000C0343EA41511150B3E7701C0CD02EB18C
:1014500000F002FBA0EB0900B04205D9032084F89C
:10146000380084F8398083E795B12068012D8168C0
:1014700013D0124888430028E7D194F83800322866
:101480000ED084F8387000BF84F8398000206FE7F0
:10149000206881682AEA0100EDE72BEA0100EAE70B
:1014A000222084F83800EFE7042084F83800012077
:1014B0005EE70000030000040003000800000310C2
:1014C00070472DE9F0410446876D00F0C5FA0646E5
:1014D00094F835000025022806D08020606584F845
:1014E00034500120BDE8F0812068016821F0160128
:1014F00001602068416921F080014161206C08B9D8
:10150000A06C20B12068016821F00801016020680A
:10151000016821F0010101600BE000F09DFA801BE1
:10152000052806D92020606504F8345F0320607028
:10153000D8E720680068C007EFD194F85C103F201E
:101540008840B86004F8345F012060700020C9E76B
:1015500090F83510022903D08021416501207047A1
:10156000052180F835100068016821F00101016053
:10157000002070472DE9F84304464FF00008CDF8ED
:10158000008064484FF41651A56D0068B0FBF1F778
:101590002E6894F85C10082000FA01F131420FD057
:1015A00021680A6852070BD50A6822F004020A6013
:1015B00094F85C108840A860606D40F001006065A0
:1015C00094F85C1054488840304208D0216849693A
:1015D000090604D5A860606D40F0020060654E48C1
:1015E00094F85C10C01C8840304208D0216809681B
:1015F000890704D5A860606D40F00400606594F828
:101600005C1010208840304218D021680968090712
:1016100014D5A86020680168490304D50068000358
:1016200008D5A16C07E00168C90503D4016821F061
:1016300008010160216C09B12046884794F85C10CC
:101640002020884030424FF0010631D021680968DF
:10165000C9062DD5A86094F83500052820680168D2
:1016600006D0490347D5006800031DD4616C1CE017
:1016700021F0160101602068416921F0800141617B
:10168000206C08B9A06C20B12068016821F0080125
:10169000016094F85C103F208840A86084F8348092
:1016A00084F83560216D1FE0E16B09B12046884761
:1016B000606D00282BD0606DC00714D0052084F821
:1016C00035002068016821F0010101600098401C8C
:1016D0000090B84203D820680068C007F6D184F8AB
:1016E000348084F83560E16C002910D001B02046C8
:1016F000BDE8F04308470168C905D5D4016821F069
:101700001001016084F8348084F83560CCE7BDE8CE
:10171000F883000004000020010080002DE9F04162
:10172000044600F099F906465CB1002584F834506F
:10173000022084F835002068016821F00101016071
:101740000DE00120BDE8F08100F086F9801B05283E
:1017500005D920206065032084F83500F2E7206871
:101760000068C007F0D1226811681F480140D4E921
:1017700001031843D4E9033633431843636918431C
:10178000A3691843E3691843236A18430843616A4D
:10179000042903D1D4E90B131943084310602068CE
:1017A0004069666A20F0070130460E43012704288D
:1017B0000AD1A06A06432046FFF746FA20B140202E
:1017C000606584F83570BCE7206846612046FFF705
:1017D00027FA94F85C203F2191408160656584F888
:1017E00035700020AEE700003F8010F02DE9F04199
:1017F0000446866D90F83400002501280DD00120A4
:1018000084F8340094F835700020012F07D084F854
:10181000340002252846BDE8F0810220FBE70227BC
:1018200084F8357060652046FFF738FA94F85C104C
:101830003F208840B0602068016841F016010160D7
:101840002068416941F080014161206C20B120682D
:10185000016841F0080101602068016841F0010160
:101860000160D7E770470000044910B50A680242DA
:1018700002D00860FFF7F6FF10BD0000143C0140E5
:101880002DE9F84FDFF890B100224FF001084FF03A
:10189000030A4FF00F090BF1040E00BF0B6808FAA2
:1018A00002F42340A3426ED14D68022D01D0122DC7
:1018B0000ED1D50800EB850CDCF820505607F70E4A
:1018C00009FA07F6B5430E69BE402E43CCF82060F6
:1018D000066855000F790AFA05FC07F0030726EAA7
:1018E0000C06AF40374307604E68012E05D0022E2C
:1018F00003D0112E01D0122E0ED18768CE6827EAB0
:101900000C07AE403E4386604668A6430C79C4F39C
:101910000014944034434460C4688E6824EA0C0484
:10192000AE402643C6604C68E4006FD53B4C25684A
:1019300045F480452560246822F0030504F48044C2
:101940000094374C2E19D6F8084895072F0F09FA3E
:1019500007F5AC43334DA84201D100252EE0324DAE
:10196000A84201D1012529E0304DA84201D102252C
:1019700024E02F4DA84201D103251FE02D4DA842A0
:1019800002D104251AE041E02B4DA84201D10525E2
:1019900014E02A4DA84201D106250FE0284DA842A7
:1019A00001D107250AE0274DA84201D1082505E00D
:1019B000254DA84201D1092500E00A25BD40254357
:1019C000C6F80858DBF800405D464E689C43F603B5
:1019D00000D51C432C60DEF8004075464E689C43E1
:1019E000B60300D51C432C600B4D08352C684E689F
:1019F0009C43F60200D51C432C60074D0C352C6827
:101A00004E689C43B60200D51C432C60521C102A21
:101A1000FFF444AFBDE8F88F003C01404438024079
:101A20000030014000000240000402400008024073
:101A3000000C024000100240001402400018024056
:101A4000001C024000200240002402400AB18161D3
:101A500070470904FBE70000014800687047000078
:101A60000000002002480168491C01607047000026
:101A7000000000200B4810B5016841F400710160BE
:101A8000016841F480610160016841F48071016086
:101A9000032000F091F8002000F006F800F018F89C
:101AA000002010BD003C024010B5044607484FF42A
:101AB0007A710068B0FBF1F000F03DFB0022214696
:101AC000501E00F059F8002010BD00000400002056
:101AD00070472DE9F04116460F46040004D094F8F3
:101AE0003900002518B107E00120BDE8F08184F835
:101AF0003850204600F0CEFF242084F839002068BA
:101B0000C16821F40051C160204602F0D7F9206875
:101B1000016921F4904101612068416921F02A01A5
:101B200041612068016921F00F01016120680169AC
:101B3000394301612068C16821F40061C1602068F7
:101B4000C1683143C1602068C16841F40051C1607F
:101B5000E563202084F8390084F83A000020C4E7C7
:101B600000F01F02012191404009800000F1E020B7
:101B7000C0F8001170470000F0B40E4B1B680C4613
:101B8000C3F30223C3F10705042D00D90425191D51
:101B9000072901D2002300E0DB1E012606FA05F129
:101BA000491E214099409E40761E16403143F0BCAC
:101BB00001F091BC0CED00E0064900F00702086856
:101BC0004FF6FF03184040EA0220034A1043086022
:101BD000704700000CED00E00000FA052DE9F04729
:101BE000DFF8649105460F46D9F8000000F00F01B8
:101BF000F8B28046B94208D2014689F80010D9F8F7
:101C0000000000F00F00B84274D128784F4C8007D4
:101C100005D52068A96820F0F000084320602878E6
:101C2000C00759D049496868083901281AD00228E4
:101C30001BD0032819D00968890700295ADA2168BE
:101C400021F0030101432160FFF706FF69680646A2
:101C500041F28830012911D002291DD00329824682
:101C600027D035E009688903E7E709688901E4E7D7
:101C7000FFF7F2FE811B514501D926E0824620681C
:101C8000C0F381000128F3D126E000BFFFF7E4FE96
:101C9000811B514501D918E082462068C0F38100BC
:101CA0000228F3D118E000BFFFF7D6FE811B514593
:101CB0000BD82068C0F381000328F5D10CE000BFE9
:101CC000FFF7CAFE811B514502D90320BDE8F0870A
:101CD000206810F00C0FF3D1D9F80010484601F03D
:101CE0000F01B94208D980F80080006800F00F00A9
:101CF000B84201D00120E9E72878400705D52068DF
:101D0000E96820F4E050084320602878000706D5F1
:101D10002068296920F4604040EAC100206000F09A
:101D200051F82168F02292FAA2F201F0F001B2FA21
:101D300082F2D140064A515CC84006490860002042
:101D4000FFF7B2FE0020C1E7003C02400838024025
:101D5000C4500008040000200148006870470000DB
:101D60000400002008480949006809684FF4E0525F
:101D700092FAA2F201F4E051B2FA82F2D140044A9E
:101D8000515CC84070470000040000200838024041
:101D9000C450000808480949006809684FF46042C7
:101DA00092FAA2F201F46041B2FA82F2D140044AFE
:101DB000515CC84070470000040000200838024011
:101DC000C450000830B51948006810F00C011848DC
:101DD00012D0184C04290ED008290DD11349091F1F
:101DE0000A6802F03F030A68550247F6C07204D53C
:101DF000B4FBF3F003E0204630BDB0FBF3F00B681A
:101E00000968134092FAA2F2B2FA82F2D340584320
:101E10004FF4403292FAA2F201F44031B2FA82F267
:101E2000D140491C4900B0FBF1F030BD08380240F8
:101E30000024F400001BB7002DE9F84F0446DFF83A
:101E4000CC820078A8F1040BC007ABF1040537D0B1
:101E5000D8F800104046C1F38101012908D000687C
:101E6000C0F3810002280AD1DBF80000400206D549
:101E70002868800324D56068002878D020E0A34932
:101E80002079891F0870606868B1FFF7E5FD064694
:101E900005E000BFFFF7E0FD801B642868D82868D4
:101EA0008003F7D50CE0FFF7D7FD064605E000BF3D
:101EB000FFF7D2FD801B6428F0D828688003F7D490
:101EC0002078934E80074FF0010A4FF0000742D56B
:101ED000D8F80010404611F00C0F08D00068C0F38D
:101EE000810002280AD1DBF80000400206D42868ED
:101EF000800714D5E068012839D110E0E068D8B136
:101F0000C6F800A0FFF7A8FD814605E0FFF7A4FD95
:101F1000A0EB09000228C1D828688007F6D52868F8
:101F2000F82292FAA2F22169B2FA82F220F0F800C5
:101F30009140084328600EE03760FFF78DFD814631
:101F400006E000BFFFF788FDA0EB090002280FD8CC
:101F500028688007F6D42078000728D56D48616985
:101F6000A1B1C0F800A0FFF777FD814608E0CAE004
:101F700079E000BFFFF770FDA0EB0900022872D8DE
:101F800062486C3000688007F4D510E00760FFF706
:101F900063FD814606E000BFFFF75EFDA0EB090090
:101FA000022860D859486C3000688007F4D4207843
:101FB000400749D555483830016841F080510160EB
:101FC000006800F0805000905348016841F480712F
:101FD0000160FFF741FD814606E000BFFFF73CFDD1
:101FE000A0EB090002283ED84B480068C005F5D593
:101FF000DFF81891207A09F1680989F80000A068D3
:1020000088B1FFF729FD009008E000BFFFF724FD2D
:102010000099411A41F2883081426CD8D9F8000009
:102020008007F3D510E0FFF717FD009008E000BF30
:10203000FFF712FD0099411A41F2883081425AD8C7
:10204000D9F800008007F3D4A069E0B3D8F80010F5
:10205000C1F38101022956D00228376604D0FFF768
:10206000FBFC04464AE046E0FFF7F6FC074604E0C6
:10207000FFF7F2FCC01B02283DD828688001F7D486
:10208000D4E90701084347F6C07292FAA2F2616AE6
:10209000B2FA82F29140A26A4FF0FF3303EB520290
:1020A0004FF4403393FAA3F3B3FA83F39A40114306
:1020B00008434FF0706292FAA2F2E16AB2FA82F239
:1020C0009140084300E01CE0CBF80000C6F860A097
:1020D000FFF7C2FC044604E0FFF7BEFC001B022829
:1020E00009D828688001F7D50BE000BFFFF7B4FCE2
:1020F000001B022802D90320BDE8F88F2868800160
:10210000F4D40020F8E70120F6E700000838024088
:1021100000004742800E4742007000404FF0E0212F
:102120000428086903D020F004000861704740F0DB
:102130000400FAE7704710B5401EB0F1807F01D36C
:10214000012010BD4FF0E02460610F21601701F005
:10215000C2F90020A06107202061002010BD10B549
:10216000FFF7E8FF10BD7047704730B590F8382092
:10217000012A20D0012280F83820022380F839304B
:1021800003685C6824F070045C6003685C680D6838
:102190002C435C6003689C6824F080049C600368A6
:1021A0009C6849680C439C6080F83920002180F8C5
:1021B0003810084630BD022030BD10B5040003D0F1
:1021C00094F8390010B107E0012010BD002084F818
:1021D0003800204600F00CF8022084F83900211D58
:1021E000206801F063FC012084F83900002010BD54
:1021F00000B5144A0168144887B0914209D10168BA
:1022000041F002010160006800F00200059007B093
:1022100000BD0E4A9142FAD1016841F00801016007
:102220000068694600F0080005904FF44060009097
:10223000022001900290039004900548FFF720FBD4
:10224000E5E700000004004040380240000C004078
:10225000001C02400168CA6842F00102CA600068BE
:10226000016841F0010101600020704770B504462B
:1022700090F83800012817D0012584F83850022042
:1022800084F839002068826822F0770222F47F42C5
:1022900082600868502837D00DDC202859D005DC32
:1022A00088B3102841D151E0022070BD302853D0AE
:1022B00040283AD13FE060282ED070280BD0B0F5EE
:1022C000805F03D0B0F5005F2FD110E020688168F7
:1022D00021F0070115E0CB68D1E90121206801F068
:1022E00050FC2168886840F0770088601DE0CB686A
:1022F000D1E90121206801F044FC2068816841F4A3
:102300008041816011E01EE0CA684968206801F0E0
:1023100001FD5021206806E0CA684968206801F084
:102320000AFD6021206801F036FC84F83950002055
:1023300084F8380070BDCA684968206801F0EAFC7A
:1023400040212068EFE700212068ECE71021206899
:10235000E9E720212068E6E730212068E3E7000074
:102360002DE9F04107462DED088B0068664988424B
:102370007ED1387E9FED65BA9FED658AF7EE008AC3
:102380009FED649AF1EE0C9A9FED63AA0026634DCF
:10239000F1EE04AA012856D1614C0021614894ED68
:1023A000000A84ED010A00F06AFA00EE100A00212A
:1023B0005C48B8EE400A84ED000A00F0B5F894EDF0
:1023C000010AB5EEC00AF1EE10FA02D184ED02BAAC
:1023D00039E0D4ED000AF4EEC00AF1EE10FA02DDA5
:1023E00030EEC00A05E070EE880A30EEC00A30EE2A
:1023F000280A4B4884ED020AF0EE400AA96889EEEB
:10240000200A303800EB8102491C0529C0EE290A58
:1024100020EE8A0A82ED000AA96090EC020A30EEF2
:10242000200AD0ED020A30EE200AD0ED030A30EE89
:10243000200AD0ED040A30EE200AC0EE2A0AC0EDD0
:10244000050A00D1AE60387E02281ED1344C04212A
:102450000C34344894ED000A84ED010A00F00FFAC0
:1024600000EE100A0021B8EE400A84ED000A00E0F8
:102470000BE02C4800F058F894ED010AB5EEC00AC4
:10248000F1EE10FA05D184ED02BABDEC088BBDE87F
:10249000F081D4ED000AF4EEC00AF1EE10FA02DD8C
:1024A00030EEC00A05E070EE880A30EEC00A30EE69
:1024B000280A1B4884ED020AF0EE400AE96889EE1A
:1024C000200A183800EB8102491C0529C0EE290AB0
:1024D00020EE8A0A82ED000AE96090EC020A30EEF2
:1024E000200AD0ED020A30EE200AD0ED030A30EEC9
:1024F000200AD0ED040A30EE200AC0EE2A0AC0ED10
:10250000050AC2D1EE60C0E7000C004000000000E8
:1025100000FF7F47002474490000704250000020F3
:102520009C060020B008002010B50268044631B1B6
:10253000042908D0082915D00C2908D116E0D06844
:1025400040F0020002E0D06840F00400D0600122B8
:10255000206801F00BFB2068016841F00101016077
:10256000002010BDD06840F00800EFE7D06840F0D0
:102570001000EBE770B50446006801694FF00005F4
:10258000C943890715D4C168C943890711D4E91E15
:10259000016101202076206880698007204602D0F2
:1025A000FFF7DEFE04E000F0B3F8204600F048F943
:1025B000257620680169C943490717D4C168C94312
:1025C000490713D46FF004010161022020762068CE
:1025D000806910F4407F204602D0FFF7C1FE04E07E
:1025E00000F096F8204600F02BF925762068016966
:1025F000C943090716D4C168C943090712D46FF04B
:1026000008010161042020762068C0698007204607
:1026100002D0FFF7A5FE04E000F07AF8204600F0B3
:102620000FF9257620680169C943C90617D4C16826
:10263000C943C90613D46FF0100101610820207648
:102640002068C06910F4407F204602D0FFF788FE62
:1026500004E000F05DF8204600F0F2F825762068EE
:102660000169C943C90708D1C168C943C90704D171
:10267000891E0161204600F001F920680169C94303
:10268000090609D4C168C943090605D46FF0800161
:1026900001612046FFF767FD20680169C9434906CB
:1026A00009D4C168C943490605D46FF040010161EE
:1026B000204600F006F920680169C94389060BD459
:1026C000C168C943890607D46FF020010161204623
:1026D000BDE87040FFF748BD70BD000000B5006860
:1026E000094985B088420CD14FF440500090022037
:1026F0000021CDE90101CDE9031069460348FFF748
:10270000BFF805B000BD000000080040000C02400A
:10271000704770B5044690F838000D4601280DD07A
:10272000012684F83860022084F8390042B1042A76
:1027300018D0082A2AD00C2A4DD139E0022070BDC9
:10274000206801F031FA2068816941F00801816157
:102750002068816921F004018161206881692A690A
:10276000114311E0206801F04BFA2068816941F4BF
:10277000006181612068816921F480618161206844
:1027800081692A6941EA0221816124E0206801F01F
:1027900069FA2068C16941F00801C1612068C16916
:1027A00021F00401C1612068C1692A69114311E067
:1027B000206801F087FA2068C16941F40061C161B5
:1027C0002068C16921F48061C1612068C1692A69FA
:1027D00041EA0221C16184F83960002084F83800A0
:1027E00070BD10B5040003D094F8390010B107E0B3
:1027F000012010BD002084F83800204600F00CF8BD
:10280000022084F83900211D206801F04FF90120D1
:1028100084F83900002010BD08B5006806498842D8
:1028200008D10648016841F004010160006800F029
:102830000400009008BD000000080040403802403D
:102840007047000010B504460068012201F08EF9BF
:1028500008492068884202D00749884203D1416C68
:1028600041F4004141642068016841F001010160C8
:10287000002010BD0000014000040140704790F8A6
:1028800038300022012B0AD0012380F8383041B1C2
:10289000042909D008290AD00C290DD10AE0022008
:1028A000704701684A6B07E001688A6B04E00168C1
:1028B000CA6B01E001680A6C002180F838101046EC
:1028C0007047704710B504460068416994F8392094
:1028D000C1F3C011212A0BD151B1416921F080010E
:1028E0004161206B08B1FEF7ECFD204601F097FA3C
:1028F0002068416994F83A20C1F38011222A0BD153
:1029000051B1416921F040014161606B08B1FEF7AE
:10291000D8FD204601F075FA002010BD7047000078
:1029200070B5026804461068D168536910F00F0F43
:1029300050D003F0010501F4907635435DD0C20715
:1029400005D0CA0503D5E26B42F00102E2634207FB
:1029500005D5DA0703D0E26B42F00202E263820798
:1029600005D5DA0703D0E26B42F00402E263020706
:1029700005D5DA0703D0E26B42F00802E263E26BAE
:10298000002A33D0800604D5880602D5204601F0FF
:102990004FFA20684069E16BC0F38010090700D44A
:1029A00028B3204601F02DFA2068416949061AD55E
:1029B000416921F040014161606BA0B11B49016593
:1029C000606BFEF7C5FD002810D0606B016DBDE89F
:1029D00070400847830610D58B060ED52046BDE80B
:1029E000704001F025BA2046FFF798FF70BD2046E1
:1029F000FFF794FF0020E06370BD030606D50B06C9
:102A000004D52046BDE8704001F0AEBB4006F3D5CA
:102A10004806F1D5D168204621F04001D16020213F
:102A200084F8391000F05BFA70BD0000633D0008C7
:102A300070B5040004D094F83900002510B106E008
:102A4000012070BD84F83850204600F023F824207F
:102A500084F839002068C16821F40051C160204623
:102A600001F02CFA2068016921F49041016120688D
:102A7000416921F02A0141612068C16841F4005197
:102A8000C160E563202084F8390084F83A00002012
:102A900070BD00002DE9F04F0546AA4A0221D0F88A
:102AA00000C0DFF8A4B20123032000244E0287B047
:102AB0004FF008094FF02067944555D1DBF800C06E
:102AC000A2464CF0200CCBF800C0DBF80020CDE98A
:102AD000023002F0200205924FF48442CDE9002139
:102AE000CDF8109069469948FEF7CAFEDFF8649267
:102AF00097494846C9F80010C0E90174C0E9034687
:102B0000B846C9F81440B701C9F81840C9E90747E1
:102B1000C9F82440FEF702FE18B196218EA001F0FC
:102B200091FB8C4C8A48C5F83490603C7830C9F8E9
:102B30003850C4E900084020A060C4E903A6C4F8E6
:102B400014A0C4F818A0C4E907A72046C4F824A01C
:102B5000FEF7E4FD18B1A8217FA001F073FB2C6300
:102B6000A56307B0BDE8F08F774ADFF80082121F37
:102B70004FF0070AC4452ED1176847F48027176025
:102B80001268CDE9023002F4802205924FF44072BF
:102B9000CDE90021CDF810A069467548FEF770FE1A
:102BA0006C4F7448C03F38604FF00060C7E90104C3
:102BB000C7E903467C61C012BC61C7E907403846DB
:102BC0007C62FEF7ABFD18B1CC2163A001F03AFBAB
:102BD0006F63BD63C5E7DFF8A081DFF8A0E1C445FE
:102BE00038D1136843F0804313601268CDE9024086
:102BF00002F0804205924FF4C072CDE90021CDF879
:102C0000109069467046FEF73BFEDFF8488159494F
:102C100008F1600830314046C8F80010C0E901747E
:102C2000C0E90346C8F81440C8F81840C8F81C406A
:102C3000C8F82040C8F82440FEF770FD20B14FF4DA
:102C40008A7145A001F0FEFAC5F834804C48C8F8F6
:102C500038503AE0DFF82C81C4453CD1D2F800C0AE
:102C60004CF0004CC2F800C0126802F0004205921D
:102C70008DE80B00CDE9030969467046FEF700FEBA
:102C8000DFF8D0803B4908F1C00878314046C8F8E9
:102C90000010C0E90174C0E90346C8F81440C8F840
:102CA0001840C8F81C40C8F82040C8F82440FEF777
:102CB00035FD20B14FF49D7127A001F0C3FA3048D3
:102CC000C5F834804030C8F838500068C16841F019
:102CD0001001C16045E72C4A9445FBD1DBF8003078
:102CE00043F01003CBF80030DBF80020CDE90240C0
:102CF00002F010020592C022CDE90021CDF810A00B
:102D000069462248FEF7BCFD1D4F11488037183038
:102D100038604FF00060C7E90104C7E903467C61F1
:102D2000BC61FC613C6238467C62FEF7F7FC20B176
:102D300040F2611108A001F085FA11486F63C038B4
:102D4000BD63C2E70014014044380240001802404D
:102D5000286402400C0C00202E2E5C4150505C5325
:102D600072635C75736172742E63000000480040EA
:102D7000000C024028600240007800400010024031
:102D80006C0A0020007C004000100140000402405A
:102D900070B5044690F83A00202839D1A9B3A2B3FF
:102DA00094F83800012833D0012084F83800A1625B
:102DB000A2850025E563222084F83A00636B15485C
:102DC000D863636B14481864636B1448D864606BF1
:102DD000134605650846666B216802463046091DA4
:102DE000FEF704FD2068C16841F48071C16020686D
:102DF000416941F0010141612068416941F04001B0
:102E0000416184F83850002070BDFFE70120FBE7E6
:102E10000220F9E7BD3D0008F93D0008733D0008B8
:102E2000704770472DE9F843044690F839001E4674
:102E300017460D46202850D135B32FB394F83800EB
:102E400001284AD0012084F838004FF00008C4F867
:102E50003C80212084F83900FEF7FEFDA784E7843A
:102E600081464FF48057E08C4B46401EE084A068BA
:102E70004FF00002B8424FF080012046009611D179
:102E800001F0A3F900BB02E00120BDE8F883288827
:102E9000C0F3080120684160206908B16D1C08E09A
:102EA000AD1C06E001F091F970B9216815F8010B2D
:102EB0004860E08C0028D6D14B46002240212046B5
:102EC000009601F082F908B10320DEE7202084F8A3
:102ED000390084F838800020D7E70220D5E7704712
:102EE000FEE7000038B51B4800680168C943C90601
:102EF0002ED401684068184C0090184A21684FF49D
:102F00000010914202D915494C3904E0144A91420B
:102F100003D912495039086008E0114B104A603B50
:102F2000B83A994201D9D06000E090600948FFF7B3
:102F3000C9FC206840682822C0F1280409490548D6
:102F4000FFF726FF1A2C03D1BDE8384000F00CB87B
:102F500038BD0000AC0A0020CC0C002058640240B0
:102F6000B8600240B40600200C4801785A2914D1F8
:102F70004178A52911D18179B02902D1B0F8091081
:102F80004185417BD92908D1D0F80E100163D0F8D2
:102F900012104163D0F8161081637047B406002008
:102FA00080ED0E0A9FED060A80ED002A80ED070AEB
:102FB00080ED060A80ED050A2C30C0EC030A70474C
:102FC00000000000114810B50F4901600221416066
:102FD00000214FF450228160C0E903124FF4A00297
:102FE000C0E905210122C161C0E90812C0E90A1245
:102FF000FEF790F8002805D0BDE810401A2104A083
:1030000001F020B910BD000000640040F807002066
:103010002E2E5C4150505C5372635C63616E2E6374
:1030200000000000094808B5016841F48001016012
:10303000016801F480010091016841F40011016010
:10304000006800F40010009008BD00003038024015
:103050002DE9F041374886B00024016841F00101B4
:103060000160016801F001010591016841F0020170
:103070000160016801F002010591016841F004015D
:103080000160016801F004010591016841F0080147
:103090000160016801F008010591016841F010012B
:1030A0000160016801F010010591016841F0200103
:1030B0000160016801F020010591016841F04001C3
:1030C0000160016801F040010591016841F0800153
:1030D000016000684FF4005500F080000590012663
:1030E0000227DFF85480CDE90274CDE90056694625
:1030F0004046FEF7C5FB002229464046FEF7A6FCE7
:103100006D0003948DE8E0000C4E69463046FEF7F2
:10311000B7FB012229463046FEF798FC04200090B8
:103120000748CDE9010469460648FEF7A9FB06B049
:10313000BDE8F0813038024000180240001402401F
:10314000000011100004024010B5174886B0154960
:10315000016042F2CF010024C0E901140921C0E955
:103160000314FFF72AF818B11C2110A001F06AF827
:103170004FF48050009069460B48FFF777F818B17C
:1031800022210AA001F05EF8049404A906480594DF
:10319000FEF7EBFF002803D0292104A001F052F82C
:1031A00006B010BD00040040380800202E2E5C41FF
:1031B00050505C5372635C74696D2E6300000000B4
:1031C00010B524488AB02249016053210024C0E987
:1031D000011440F2CF71C0E90314FFF702FB18B1EC
:1031E0003B211DA001F02EF8079407A91948089467
:1031F000FEF7BBFF18B1422117A001F023F86020B1
:1032000000904FF47A70CDE901040022694611481C
:103210000494FFF77EFA18B14C210FA001F012F8C8
:10322000042269460B48FFF774FA18B151210AA02D
:1032300001F008F80748FFF751FA00210548FFF7A9
:1032400001FB04210348FFF7FDFA0AB010BD00009E
:1032500000080040740800202E2E5C4150505C5342
:1032600072635C74696D2E63000000000D4810B538
:103270000B4901604FF4E1314160002181600C2273
:10328000C160C0E904128161C161FFF7D1FB002870
:1032900005D0BDE810405D2103A000F0D3BF10BDF4
:1032A000007800406C0A00202E2E5C4150505C5388
:1032B00072635C75736172742E6300000D4810B503
:1032C0000B4901604FF4E13141600021816004222B
:1032D000C160C0E904128161C161FFF7A9FB002848
:1032E00005D0BDE810406F2103A000F0ABBF10BDBA
:1032F000007C0040AC0A00202E2E5C4150505C53F4
:1033000072635C75736172742E6300000E4810B5B1
:103310000C4901600D49416000214FF480628160D9
:10332000C0E903120422C0E905210A46C161FEF783
:10333000D0FB002805D0BDE81040242104A000F0F7
:1033400081BF10BD00100140AC090020A086010023
:103350002E2E5C4150505C5372635C7573617274C5
:103360002E6300000D4810B50B4901604FF4E131A8
:103370004160002181600C22C160C0E904128161BA
:10338000C161FFF755FB002805D0BDE810404B2177
:1033900003A000F057BF10BD001401402C0A00200C
:1033A0002E2E5C4150505C5372635C757361727475
:1033B0002E630000FEE7D0ED001A31EE800A80EDAA
:1033C000000AB4EEE00AF1EE10FA01DDC0ED000AE9
:1033D00090ED000AB4EEC10AF1EE10FA01D280EDD0
:1033E000001A7047D0ED001A31EE800A80ED000A15
:1033F000B4EEE00AF1EE10FA01DDC0ED000A90ED46
:10340000000AB4EEC10AF1EE10FA01D280ED001A02
:10341000704780ED010A7047C0ED0F1A80ED0E2A4B
:1034200080ED214AC0ED204A00F11C0181EC030A25
:103430004831C1EC032A704790ED0A0A214A80ED19
:103440000B0AD0ED010A90ED021A70EEC10AC0ED30
:103450000A0A30EEC01A90ED090A30EE200A10EE8A
:10346000101A80ED090A914202D39FED170A06E077
:1034700010EE101A154A914201DB9FED150A80EDFE
:10348000090AD0ED061A61EEA00AD0ED071A41EE46
:10349000800A90ED080A40EE010AC0ED0C0A90ED9A
:1034A0000D0AF4EEC00AF1EE10FA06D990ED0E0AFC
:1034B000F4EEC00AF1EE10FA01DBF0EE400AC0EDC6
:1034C0000C0A704700007AC500007AC500007A45F2
:1034D00000007A4570470907090E002806DA00F057
:1034E0000F0000F1E02080F8141D704700F1E0208B
:1034F00080F800147047704730B500287ED05349DB
:1035000001240C700288C2F30A03514A13804378E5
:103510008578DB0843EA4513C3F30A0353808378B5
:10352000C5789B0943EA8503057943EA8523C3F3FC
:103530000A039380037945795B0843EAC513C3F313
:103540000A03D38043799B0993724379C3F3011330
:10355000D372C38893810389D38143891382037B08
:1035600093744B782BB9437BD374437B012B03D1EA
:103570004C708B785B1C8B708D780023322D01D9B9
:103580004B708B70CD782DB9857BC5F300155576C2
:103590001DB1CC700D796D1C0D710D79322D01D9D5
:1035A000CB700B714D792DB9857BC5F340055575F1
:1035B0001DB14C718D796D1C8D718D791E2D01D9C8
:1035C0004B718B71CD792DB9857BC5F38005157550
:1035D0001DB1CC710D7A6D1C0D720D7A1E2D01D9A5
:1035E000CB710B724D7A2DB9857BC5F3801595751E
:1035F0001DB14C728D7A6D1C8D7200E025E08D7AC4
:103600001E2D01D94B728B72CD7A2DB9857B15F0A9
:103610000105D57503D0CC720D7B6D1C0D730D7B30
:103620001E2D01D9CB720B734D7B25B9857BED091E
:10363000157603D04C738C7B641C8C738C7B1E2C96
:1036400001D94B738B73008A108130BD410000207B
:103650005206002038B51E4800680168C943C906F3
:103660002DD40168002440681A4D00901A4A296838
:103670004FF40010914202D917494C3904E0174A1F
:10368000914203D914495039086008E0134B134A9A
:10369000603BB83A994201D9D06000E090600C4894
:1036A000FFF710F9286840681E22C0F11E050C497A
:1036B0000748FFF76DFB0B48122D01D0047038BD91
:1036C00001210170BDE838400548FFF715BF000033
:1036D000AC090020EC0A002058640240B8600240A7
:1036E00034060020410000207047000010B5244C33
:1036F0004DF2801004F11C01A4F80700E078C870B6
:10370000401CE0701F48C17A012901D0012100E06E
:1037100000211D4A1268114300EE101AFF22B8EE74
:10372000C00A10EE101AC4F80D101849897800EE7E
:10373000101AB8EE400A10EE101AC4F81110407EAC
:1037400060760F485038016D01600421FDF7E4FAFE
:103750000B4920711A22A1F15000FCF7D1FD084855
:103760004FF6FF721A215038FDF7C0FA6083044902
:10377000BDE810401C22A1F15000FCF7C1BD0000C3
:103780005407002052060020540000206000002052
:103790002DE9F0412048214C817D012901D10021F2
:1037A0006160C17D0125012900D16560017E01298B
:1037B00001D102216160C37A1848194E0088411C6A
:1037C00089B2022B09D06268022A06D0032B0CD0E2
:1037D000012A0AD04FF47A7013E0B0F5AF6F11D21E
:1037E0002180012000F0C0FD0CE040F2E247B84229
:1037F00003D22180012000F0B7FD2088B84201D912
:103800000A382080C6F8B452064920880860091D8D
:103810000860BDE8F0810000520600205000002042
:10382000000043423408004010B502220121142058
:10383000FEF7A2F91420FEF793F9002201212520BA
:10384000FEF79AF92520FEF78BF907220121472080
:10385000FEF792F94720FEF783F904220121522056
:10386000FEF78AF95220FEF77BF901221146532018
:10387000FEF782F95320FEF773F9012200211D2083
:10388000FEF77AF91D20FEF76BF9062201210E20C2
:10389000FEF772F90E20FEF763F90122114611209E
:1038A000FEF76AF91120FEF75BF9012202213920A7
:1038B000FEF762F93920FEF753F9082201213A2078
:1038C000FEF75AF93A20FEF74BF9002201213A207F
:1038D000FEF752F93A20FEF743F90522012117209D
:1038E000FEF74AF91720FEF73BF9042201210820D0
:1038F000FEF742F9BDE810400820FEF731B910B5D7
:10390000FEF7B0F8BDE81040FEF729BC30B52548F9
:1039100093B00025016841F080510160006800F01B
:10392000805011902048016841F4404101600068D6
:10393000022400F440401190012000900190800585
:10394000CDE906400C2008904FF4A870CDE9090499
:1039500004200B906846FEF76FFA00B1FEE70CA951
:103960000F2081E831004FF4A0500F904FF48050A9
:10397000109005210CA8FEF731F900B1FEE7FEF723
:10398000EBF94FF47A71B0FBF1F0FEF7D4FB0420B1
:10399000FEF7C4FB00221146501EFEF7EDF813B0EF
:1039A00030BD0000403802400070004010480168FF
:1039B00041F4700101600F48016841F001010160AC
:1039C0000C4A00210832116002680B4B1A40026059
:1039D000031D0A4A1A60026822F480220260054828
:1039E0000C300160024958068039086070470000B9
:1039F00088ED00E000380240FFFFF6FE10300024A2
:103A000000F1140181EC040A9FED0C0A80ED0E0A0E
:103A100080ED0D0A80ED0C0A80ED0B0A80ED0A0A9C
:103A200080ED090A9FED060A80ED040A80ED030A85
:103A300080ED020A80ED010A70470000A5D46853AA
:103A40000000000010B590ED002A90ED031AD0EDB3
:103A5000010A044601EE202A80ED002AD0ED041A66
:103A600032EE400A61EE211A90ED021A00F0A4FC39
:103A7000D4ED010A94ED031A41EE000AC4ED010AE7
:103A800010BD083080EC030A7047000010B501F04B
:103A90004FF9BDE810400148FEF76CBD3808002022
:103AA0000148FEF767BD0000B0080020F0B50268CD
:103AB000234B244D244E254F254C4FF0804C9842EB
:103AC00009D0604507D0A84205D0B04203D0B84223
:103AD00001D0A04204D122F0700E4A6842EA0E02E0
:103AE00098421BD0604519D0A84217D0B04215D0DB
:103AF000B84213D0A04211D0164DA8420ED0164D98
:103B0000A8420BD0154DA84208D0154DA84205D0AB
:103B1000144DA84202D0144DA84203D122F440759E
:103B2000CA682A4302608A68C2620A68826298424E
:103B300001D0A04201D10969016301214161F0BDB9
:103B4000000001400004004000080040000C00405C
:103B50000004014000400140004401400048014091
:103B600000180040001C00400020004010B5012358
:103B7000046A8B409C430462036A8A4013430362D5
:103B800010BD10B5846842EA032224F47F440A433E
:103B90002243826010BD826822F070020A4342F024
:103BA000070181607047000030B5026A22F001020F
:103BB0000262026A436884690D6824F07304254335
:103BC00022F002048A6822430B4CA04202D00B4C24
:103BD000A0420BD122F00804CA6823F440732243A8
:103BE0004C6922F004021C438B69234343608561C6
:103BF00049684163026230BD000001400004014099
:103C000030B5026A22F010020262026A43688469D7
:103C10000D6824F4E64444EA05248D6822F020026D
:103C200042EA05120D4DA84202D00D4DA8420ED118
:103C3000CD6822F0800242EA05124D6923F4406308
:103C400043EA85038D6922F0400243EA850343601D
:103C5000846149688163026230BD00000000014058
:103C60000004014030B5026A22F480720262036AE5
:103C70004268C46923F4007324F073050C682C4374
:103C80008D6843EA05230D4DA84202D00C4DA84291
:103C90000ED1CD6823F4006343EA05234D6922F475
:103CA000405242EA05128D6923F4806342EA05120C
:103CB0004260C4614968C163036230BD00000140D5
:103CC0000004014030B5026A22F480520262046AA4
:103CD0004268C3690D6823F4E64343EA05238D680F
:103CE00024F4005444EA0534084DA84202D0084D9B
:103CF000A84204D14D6922F4804242EA8512426012
:103D0000C36149680164046230BD000000000140E5
:103D10000004014010B5036A046A24F0010404623F
:103D2000846924F0F00444EA021423F00A020A43EE
:103D30008461026210BD10B5036A23F010030362B0
:103D40008369046A23F4704343EA023224F0A00337
:103D500043EA01118261016210BD00F08FBFFFF7DD
:103D6000C1B810B5806B0021C185C184FEF7D6FDB6
:103D700010BD70B5846B2068406994F83910C0F3A9
:103D8000C0100025212904D118B1E584204600F097
:103D900046F82068406994F83A10C0F38010222950
:103DA00004D118B1E585204600F02BF8E06B40F017
:103DB0001000E0632046FEF7B1FD70BD10B501466E
:103DC000806B09680968C90513D40021C1850168A1
:103DD000CA6822F48072CA6001684A6922F001024E
:103DE0004A6101684A6922F040024A61202180F854
:103DF0003A10FFF715F810BD10B5806BFFF711F8FA
:103E000010BD0168CA6822F49072CA6001684A69EC
:103E100022F001024A61202180F83A1070470168BF
:103E2000CA6822F0C002CA60202180F839107047A9
:103E300010B590F83A10222901D0022010BD8168F7
:103E4000B1F5805F11D00169002901681FD0496870
:103E500001F07F03816A4A1C82620B70C18D491E8A
:103E60000904090CC18518D026E00269816A002A7C
:103E70000268526805D0D2B20A80816A491C816208
:103E8000ECE7C2F308020A80816A891CF7E74A68F6
:103E9000816A4B1C83620A70E0E70168CA6822F4F9
:103EA0009072CA6001684A6922F001024A612021C9
:103EB00080F83A10FEF7B4FF002010BD2DE9F04164
:103EC00004460068016921F44052E1681143016130
:103ED0002168C86849F20C6290432369A268E569C9
:103EE0001A4363692B431A430243CA602168486935
:103EF00020F44072A06910434861E1696425B1F57E
:103F0000004F9748974A21684FF032083FD09142BE
:103F100001D081427CD1FDF73DFF00EBC00101EBF8
:103F2000001061688900B0FBF1F6FDF733FF00EB8C
:103F3000C00101EB001061688900B0FBF1F0B0FB3B
:103F4000F5F06FF01801484306EB800108EB011013
:103F5000B0FBF5F000F0F006FDF71CFF00EBC00130
:103F600001EB001061688900B0FBF1F0B0FBF5F0E7
:103F700006EB0016FDF70EFF00EBC00101EB001091
:103F800061688900B0FBF1F7FDF704FFD2E09142D0
:103F900001D081423DD1FDF7FDFE00EBC00101EBF8
:103FA000001061684900B0FBF1F0B0FBF5F00601CC
:103FB000FDF7F0FE00EBC00101EB00106168490065
:103FC000B0FBF1F7FDF7E6FE00EBC00101EB0010DE
:103FD00061684900B0FBF1F0B0FBF5F06FF018013B
:103FE000484307EB800108EBC100B0FBF5F000F09F
:103FF000F80006EB4006FDF7CDFE00EBC00101EB3B
:10400000001061684900B0FBF1F7FDF7C3FE3CE02A
:1040100055E0FDF7A7FE00EBC00101EB0010616861
:104020004900B0FBF1F0B0FBF5F00601FDF79AFE98
:1040300000EBC00101EB001061684900B0FBF1F733
:10404000FDF790FE00EBC00101EB00106168490034
:10405000B0FBF1F0B0FBF5F06FF01801484307EB4F
:10406000800108EBC100B0FBF5F000F0F80006EBB2
:104070004006FDF777FE00EBC00101EB0010616820
:104080004900B0FBF1F7FDF76DFE00EBC00101EB5D
:10409000001061684900B0FBF1F0B0FBF5F06FF083
:1040A0001801484307EB800108EBC100B0FBF5F0B5
:1040B00000F00700216830448860BDE8F081FDF71A
:1040C00051FE00EBC00101EB001061688900B0FBFC
:1040D000F1F6FDF747FE00EBC00101EB001061684F
:1040E0008900B0FBF1F0B0FBF5F06FF01801484328
:1040F00006EB800108EB0110B0FBF5F000F0F006D4
:10410000FDF730FE00EBC00101EB00106168890093
:10411000B0FBF1F0B0FBF5F006EB0016FDF722FE68
:1041200000EBC00101EB001061688900B0FBF1F702
:10413000FDF718FE00EBC00101EB0010616889007B
:10414000B0FBF1F0B0FBF5F06FF01801484307EB5E
:10415000800108EB0110B0FBF5F000F00F00A9E7BB
:10416000001401400010014090F83910212901D0BD
:10417000022070478168B1F5805F016A0BD04A1C4C
:104180000262026809785160C18C491E0904090C59
:10419000C1840ED017E009880268C1F3080151609C
:1041A00001690029016A02D0491C0162ECE7891CFF
:1041B000FBE70168CA6822F08002CA600068C16833
:1041C00041F04001C160002070472DE9F041984660
:1041D00017460E460446069D1DE0681C1BD02DB1F7
:1041E000FDF73AFCA0EB0800A84214D92068C1688A
:1041F00021F4D071C1602068416921F00101416161
:10420000202084F8390084F83A00002084F838002F
:104210000320BDE8F0812068006836EA000004D081
:104220000020B842D9D00020F3E70120F9E7FFF7DA
:1042300011BA00000148FEF773BB0000EC09002032
:104240007047FEE7FEE700B52DED048BB0EE409A17
:10425000F0EE609A83B051EC190BFCF771FA41EC67
:10426000180B18EE100A18EE901A8DED008B00282E
:1042700018BF0120084320F00040C0F17F6000F12A
:10428000E040C00F14D019EE101A19EE900A8DED0F
:10429000009B002918BF0121084320F00040C0F115
:1042A0007F6000F1E040C00F04BF012000F018F86B
:1042B000B0EE480A03B0F0EE680ABDEC048B00BD16
:1042C00002E008C8121F08C1002AFAD170477047DF
:1042D000002001E001C1121F002AFBD1704700003D
:1042E000014908607047000074000020064A4FF43E
:1042F0008B701021A2F80B00A2F809101C32A2F852
:104300000B00A2F8091070475407002030B5104880
:10431000A524132100F8014B40F201320180002155
:10432000817082804DF28013C3804FF48373438188
:104330000625058106481C3000F8014B3D24048009
:1043400081708280991FC1804381058130BD00004A
:104350005407002010B504460420FDF7DFFE014895
:10436000046010BD7000002070B5054600244FF4B5
:104370007A7603E0304600F005F8641CAC42F9D3CD
:1043800070BD000070B54FF0E02400226569094956
:10439000A36909684843A1699942FCD002D2A3EB02
:1043A000010302E0A5EB010633441A440B468242A6
:1043B000F1D370BD7000002010B52DED088BF0EE2C
:1043C000619AB0EE609AB0EE408AB0EE41AA09EE72
:1043D000898A6AEE298A09EE890AF2EE000A69EEF4
:1043E000A8BA6AEE200AB5EEC08AF1EE40AAF1EE54
:1043F00010FA02DDB0EE480A01E0B0EE6A0A20EEE3
:10440000800A08EEA80A10EE100AFCF7B5F841EC95
:10441000100BFFF718FF51EC100BFCF7C0F80BEE78
:10442000100AB5EEC08AF1EE10FA01DDF0EE48AAEE
:10443000F4EEEBAAF1EE10FA0EDDB0EE480A00F051
:1044400061FC7BEE680AB6EE001A60EE200AB0EE60
:10445000490A00EE810A03E088EE290A30EE090AD3
:10446000B5EEC00AF1EE10FA02DDF0EE400A01E00E
:10447000F1EE400AF4EEE80AF1EE10FA08DD00F081
:1044800041FCF1EE4A0A20EE200ABDEC088B10BD7B
:104490006AEE400A80EEA80AF7E72DE9F0410C46E3
:1044A000054601F10C03012202210C30FBF79AFEB4
:1044B00004F114030122022105F11400FBF792FE1E
:1044C00004F11C030122022105F11C00FBF78AFE06
:1044D000022205F1240004F1740311460746FBF79C
:1044E00081FE022205F12C0004F18403114680466E
:1044F000FBF778FE022204F19403114605F1440013
:10450000FBF770FE022204F1A403114605F14C00F2
:10451000FBF768FE022204F14403114605F1540042
:10452000FBF760FE022204F12403114605F15C0052
:10453000FBF758FE022204F13403114605F1640032
:10454000FBF750FE022205F1340004F1540311463A
:104550000646FBF747FE31463846FBF747FE04F1B7
:104560006403022205F13C0011460446FBF73AFEC3
:1045700021464046BDE8F041FBF738BE2DED088BE3
:10458000DAB0FDF777FAFFF7C1F9A820FFF7E2FEEE
:10459000FEF75EFDFEF746FDFEF714FDFEF7B6FEE4
:1045A000FEF7E0FEFFF7B2FEFEF760FEFEF786FEC6
:1045B000FEF706FEFEF7C8FDE148FCF799F9FFF7A4
:1045C00033F94FF4FA742046FFF7CEFE9FEDDD8AF3
:1045D000B0EE481ADFEDDC0A9FEDDC0ADC48FEF79E
:1045E00001FFB0EE481ADFEDDB0A9FEDDB0ADB4886
:1045F000FEF7F8FE0021DFEDDA4A9FEDDA4AF3EE2E
:10460000043ADFEDD9AAF0EE082AB0EE6A3A9FED3F
:10461000D79AB0EE492ADFEDD69AB3EE041AF0EE3F
:10462000691ADFEDD48ACA48B1EE080AF0EE680ACA
:104630004038FEF7F1FE0021DFEDCF4A9FEDCF4A73
:10464000DFEDCF3A9FEDCF8AF0EE002AB0EE492A97
:10465000B0EE483AF0EE691AB0EE481ADFEDCA0A39
:10466000BE48B1EE040A4038FEF7D6FEFCF7DCF88F
:104670000021F0EE484AB0EE484AF0EE483AB0EE7B
:10468000483AF0EE482A9FEDC12ADFEDC11AB0EE9C
:10469000481AF0EE480AB1EE080ABE48FEF7BCFE22
:1046A000B2EE041ADFEDBC0A9FEDBCAABC48B0EE26
:1046B0004A0AFFF7E6F9B0EE001AF0EE680A9FED3D
:1046C000B90AB948FFF7DDF99FEDB8BAF0EE680A0C
:1046D000B0EE4B1ADFEDB6BAB648B0EE6B0AFFF794
:1046E000D0F9B0EE4B1AF0EE680AB0EE6B0AB248A1
:1046F000FFF7C7F9B2EE0E1AF0EE4B0A9FEDAF0AC4
:10470000AF48FFF7BEF9B0EE4B1AF0EE4B0ADFED03
:10471000AD8AAD48B0EE680AFFF7B3F9B0EE4B1AB8
:10472000F0EE4B0AB0EE680AA848FFF7AAF99FED31
:10473000A82ADFEDA81A9FEDA81AF2EE0E0A9FED47
:10474000A70AA748FEF72CFCF2EE0E1AB2EE0E1ADC
:10475000F2EE0E0AB2EE0E0AA248FFF751F9F2EE9F
:104760000E1AB2EE0E1AF2EE0E0AB2EE0E0A9E48C3
:10477000FFF746F9F2EE0E1AB2EE0E1AF2EE0E0A3C
:10478000B2EE0E0A9948FFF73BF9F2EE0E1AB2EEBE
:104790000E1AF2EE0E0AB2EE0E0A9548FFF730F945
:1047A0009449B6EE000AF1EE080A81ED048A81ED23
:1047B000068A81ED058A81ED0E8A81ED028A81ECFF
:1047C000020A9FED8D0A002281ED030A81ED0F8A16
:1047D00081ED108A01EB8200521CD2B280ED088A72
:1047E000042AF7D3B42285492DA8FBF789FD834914
:1047F000B422B4316846FBF783FD2DA98048FFF74A
:104800004CFE69467F48FFF748FE69467E48FFF741
:1048100044FE2046FFF7A8FD7C48FDF71BFD20461F
:10482000FFF7A2FDDFF828914C4C794E794F7A4D75
:104830004FF00008A9F14009403C6868401C6860DE
:10484000B04209D1C5F80480FEF750FF0A231C22AC
:1048500072497348FEF7E6FAD4ED160A94ED101A81
:1048600030EEC10AB5EEC00AF1EE10FA01DC31EE0D
:10487000600A10EE100AB8425FDAD9ED160A99ED17
:10488000101A30EEC10AB5EEC00AF1EE10FA01DCE2
:1048900031EE600A634910EE100A88424DDA28684A
:1048A000F0B3DFF884A1C5F8008000219AED040A76
:1048B00084ED130A84ED168A84ED118A84ED108A42
:1048C0009FED5ABAB0EE4A4AF0EE4B4ADFED583A45
:1048D0002248B0EE483AF8EE082AB0EE492AF0EE47
:1048E000691AB0EE681AF0EE6A0AB0EE680A40384B
:1048F000FEF792FD9AED030A002189ED100A89ED79
:10490000110A89ED160AF0EE4B4AB0EE4A4AF0EE73
:10491000683AB0EE483A9FED471AF0EE412A00E0BF
:104920000BE0B0EE492AF0EE691AF0EE480A9FED6E
:10493000420A07484038FEF76FFDFEF729FF7CE783
:10494000F80700200000FA4400409C4500C02845BC
:10495000E00200200080BB45008009455002002095
:10496000000061C4000061440AD7233C00409CC69B
:1049700000409C46CDCC4C3D000016C400001644BF
:104980000AD7A33C00000000CDCCCC3D00A00CC653
:1049900000A00C46300300208FC2753D0000484443
:1049A000BC0100200000FA43D80100200AD7A33B35
:1049B00000001643C0030020DC0300200080BB443D
:1049C000F40100200000C842F80300201404002075
:1049D0008FC2753C0000FA4200009642295C0F3DF0
:1049E000300400204405002080050020BC05002084
:1049F000F8050020700400200000807FDC500008D3
:104A000078000020E4000020500100203808002039
:104A100040420F000000C8420800002004070020A8
:104A20002C0A002000001643DC060020000048C4C9
:104A30000000C8C200000C42000020422348244A63
:104A400090ED1D1A80ED1E1A90ED100AD0ED160A99
:104A500070EE600AC0ED1D0A90ED1C0A30EE200ACF
:104A600010EE101A80ED1C0A914202D39FED190A34
:104A700006E010EE101A184A914201DB9FED170A6A
:104A800030EEC11A80ED1C0AD0ED191A61EEA00AB1
:104A9000D0ED1A1A41EE800A90ED1B0A40EE010A91
:104AA000C0ED1F0A90ED200AF4EEC00AF1EE10FAF4
:104AB00006D990ED210AF4EEC00AF1EE10FA01DBFE
:104AC000F0EE400AC0ED1F0A70470000A00200206F
:104AD00000007AC400007AC400007A4400007A44DE
:104AE0002348244A90ED1D1A80ED1E1A90ED100AFD
:104AF000D0ED110A70EE600AC0ED1D0A90ED1C0A9F
:104B000030EE200A10EE101A80ED1C0A914202D3FA
:104B10009FED190A06E010EE101A184A914201DBC7
:104B20009FED170A30EEC11A80ED1C0AD0ED191A5C
:104B300061EEA00AD0ED1A1A41EE800A90ED1B0A30
:104B400040EE010AC0ED1F0A90ED200AF4EEC00A03
:104B5000F1EE10FA06D990ED210AF4EEC00AF1EE5A
:104B600010FA01DBF0EE400AC0ED1F0A70470000AA
:104B70001002002000007AC400007AC400007A44C9
:104B800000007A4410B52A4CA4F1AC0094ED0B0A55
:104B900084ED0C0A94ED030AFEF754FFA4F1AC0176
:104BA00094ED020AD1ED000A224A30EE600A84ED4B
:104BB0000B0AD4ED0A0A70EE800A10EE900AC4EDDA
:104BC0000A0A904202D3DFED1C0A06E010EE900ABA
:104BD0001A4A904201DBDFED1A0A1548C4ED0A0AB1
:104BE00094ED071AC83821EE000A94ED081A01EE78
:104BF000200AD0ED010A91ED011A70EEC10A94ED80
:104C0000091A01EE200A84ED0D0AD4ED0E0AB4EE65
:104C1000E00AF1EE10FA06D9D4ED0F0AB4EEE00A7C
:104C2000F1EE10FA01DBB0EE600A84ED0D0A10BD62
:104C3000A002002000007AC500007AC500007A4575
:104C400000007A450A490B480A78A52A02D14A7819
:104C50005A2A06D09FED080A80ED010A80ED020A6B
:104C6000704751F8022F4260496881607047000028
:104C7000F0060020640000200000000038B51B484A
:104C8000002400680168C943C9062CD40168406843
:104C9000174C0090174A21684FF40010914202D936
:104CA00014494C3904E0144A914203D9114950394E
:104CB000086008E0104B104A603BB83A994201D9AD
:104CC000D06000E090600948FDF7FCFD2068406876
:104CD0001422C0F1140409490448FEF759F80C2CB9
:104CE00001D1FFF7AFFF0648046038BD6C0A002011
:104CF0006C0C002058640240B8600240F0060020AE
:104D000064000020B5EEC00AF1EE10FA02DDB7EE45
:104D1000000A7047B5EEC00AF1EE10FA02D2BFEEFB
:104D2000000A70479FED010A704700000000000074
:104D30002DE9F04FC2482DED068B83B00078002896
:104D400077D0C048DFEDC09A9FEDC09A0168C04897
:104D50000190C048C04CC14D4FF0010B002600909F
:104D6000F1B32089A0F5806000EE100AB8EEC00A09
:104D700020EE290A85ED090A9FEDB91A9FEDB98A3F
:104D80000198F0EE480AFEF72DFB6088A0F58060E0
:104D900000EE100AB8EEC00A20EE090A85ED080AF6
:104DA0009FEDB11AF0EE480A0098FEF71BFBE08871
:104DB000F2EE040AA0F5806000EE100AAB4FB8EEE8
:104DC000C00A381D20EE200A85ED0A0AFEF721FBF5
:104DD0009FEDA78A85ED0A8AA07C01287ED00AE192
:104DE000FFE79B4FA348403F97ED030AFEF72AFEDB
:104DF000A048DFF88482A14990ED000A87ED040AFB
:104E0000D7ED160AC7ED170A98ED040A97ED131AA5
:104E100030EE410AB7EE001A87ED160A70EE600A0E
:104E200010EE900A884205DDD7ED150A70EEC10A32
:104E300009E0F9E010EE900A9149D7ED150A884291
:104E400003D970EE810AC7ED150A9FED8E1A00EEA8
:104E5000810A87ED110AB4F90C00FBF77CFB9FED8A
:104E60008A1B53EC112BFBF704FB41EC180B208839
:104E7000A0F5806000EE100AB8EEC00A20EE290A04
:104E800010EE100AFBF778FB53EC182BFBF7EBFA4C
:104E9000FBF785FB00EE100A85ED090ADFED7C9A31
:104EA000B0EE691A9FED7BAA0198F0EE4A0AFEF770
:104EB00082FADFF8A0A198ED030AAAF1400A8AED70
:104EC000160AB4F90E00FBF746FB9FED730B53EC8B
:104ED000102BFBF7CEFA41EC180B00E082E0608863
:104EE000A0F5806000EE100AB8EEC00A20EE090AB4
:104EF00010EE100AFBF740FB53EC182BFBF7B3FA4C
:104F0000FBF74DFB00EE100A85ED080A9FED648A61
:104F1000F2EE080A0098B0EE481AFEF74CFAA07AB2
:104F2000022802D0E07C012842D1DFF87881AE610E
:104F30005D4898ED000AFEF785FDDFF870915C484A
:104F400099ED000AFEF77EFD98ED000AD5ED000A06
:104F5000554895ED011A20EE600AD0ED010A01983E
:104F600000EEC10AD7ED040A95ED041A00EE810A9D
:104F7000B0EE691AF0EE4A0AFEF71DFA99ED000A42
:104F8000D5ED020A4A4895ED031A20EE600AD0EDED
:104F9000010A009800EEC10ADAED030A95ED051A40
:104FA00000EE810AB0EE481AF2EE080AFEF703FAA4
:104FB000207D404F012808D187F802B064230322E6
:104FC00039463D48FDF72EFF2675607D01287FF4A8
:104FD000EEAEBE706423032236493748FDF722FF48
:104FE0006675E4E63548006810B9E07A012802D019
:104FF000C5F81CB001E0E86978B19FED310A381DB1
:10500000FEF707FAE869401CE861322805DBB0EEDC
:10501000480A381DFEF7FDF9EE6103B0BDEC068BC2
:10502000BDE8F04FFBF786BE03B00023BDEC068B56
:105030001A4619461846BDE8F04FFBF773BC00004E
:1050400041000020080000206F1203BA52499DB9A8
:1050500050020020E0020020520600201400002030
:105060000000FA4400C0DA450000FA433003002093
:1050700000000000C0030020DC0600200000964372
:10508000000096C30000B443FCA9F1D24D62603F1A
:105090000000C8C200007042FCA9F1D24D62503F2E
:1050A000000020C268000020F80300206C000020EF
:1050B00014040020600000206C0A0020540000202E
:1050C0000000E1C500000000010203040102030426
:1050D000060708090006101600061016000000005A
:1050E00000000000000000000000000000000000C0
:1050F00000000000000000000000000000000000B0
:10510000000000000000000000000000000000009F
:10511000000000000000000000000000000000008F
:1051200000000040000000000000000000000040FF
:10513000000000000000000000000000000000006F
:10514000000000000000000000000000000000005F
:105150000000803F6F12833A000000000000803F93
:105160000000803F00000000000000000000803FC1
:105170000000803F00000000000000000000803FB1
:1051800000007A4400000000000000000000000061
:10519000000000000000000000000000000000000F
:1051A00000000000000000000000000000000000FF
:1051B00000000000000000000000000000000000EF
:1051C00000000000000000000000000000000000DF
:1051D000000000000000004000000000000000008F
:1051E000000000400000000000000000000000007F
:1051F00000000000000000000000000000000000AF
:10520000000000000000803F6F12833A00000000A1
:105210000000803F0000803F000000000000000010
:105220000000803F0000803F000000000000000000
:105230000000803F0000FA45000000000000000070
:1052400000000000005EBCE2613FDD83C29C7E2066
:10525000A3FD1F419DC3217FFCA2401E5F01E3BD52
:105260003E6082DC237D9FC1421CFEA0E1BF5D0346
:1052700080DE3C62BEE0025CDF81633D7C22C09E3A
:105280001D43A1FF4618FAA427799BC584DA386626
:10529000E5BB5907DB856739BAE406581947A5FB12
:1052A0007826C49A653BD987045AB8E6A7F91B4506
:1052B000C6987A24F8A6441A99C7257B3A6486D8FA
:1052C0005B05E7B98CD2306EEDB3510F4E10F2ACE6
:1052D0002F7193CD114FADF3702ECC92D38D6F31D2
:1052E000B2EC0E50AFF1134DCE90722C6D33D18FC6
:1052F0000C52B0EE326C8ED0530DEFB1F0AE4C12BA
:1053000091CF2D73CA947628ABF517490856B4EAA5
:105310006937D58B5709EBB536688AD495CB297791
:10532000F4AA4816E9B7550B88D6346A2B7597C985
:105330004A14F6A8742AC896154BA9F7B6E80A5479
:10534000D7896B350000891112239B322446AD5753
:105350003665BF74488CC19D5AAFD3BE6CCAE5DBBD
:105360007EE9F7F88110080193331A22A5562C47DD
:10537000B7753E64C99C408DDBBF52AEEDDA64CB9D
:10538000FFF976E802218B30100299132667AF7679
:105390003444BD554AADC3BC588ED19F6EEBE7FA7D
:1053A0007CC8F5D983310A2091121803A7772E669D
:1053B000B5543C45CBBD42ACD99E508FEFFB66EA5D
:1053C000FDD874C904428D5316619F702004A9153D
:1053D0003227BB364CCEC5DF5EEDD7FC6888E1993D
:1053E0007AABF3BA85520C4397711E60A11428055D
:1053F000B3373A26CDDE44CFDFFD56ECE99860891D
:10540000FBBB72AA06638F7214409D512225AB34F8
:105410003006B9174EEFC7FE5CCCD5DD6AA9E3B8FC
:10542000788AF19B87730E6295501C41A3352A241C
:10543000B1163807CFFF46EEDDDC54CDEBB962A8DC
:10544000F99A708B088481951AA793B62CC2A5D3BC
:105450003EE1B7F04008C919522BDB3A644EED5FCC
:10546000766DFF7C899400859BB712A6ADD224C3CC
:10547000BFF136E0C1184809D33B5A2AE55E6C4FAC
:10548000F77D7E6C0AA583B4188691972EE3A7F268
:105490003CC0B5D14229CB38500AD91B666FEF7E8C
:1054A000744CFD5D8BB502A499961087AFF326E28C
:1054B000BDD034C1C3394A28D11A580BE77F6E6E6C
:1054C000F55C7C4D0CC685D71EE597F42880A1912C
:1054D0003AA3B3B2444ACD5B5669DF78600CE91D4C
:1054E000722FFB3E8DD604C79FF516E4A99020814C
:1054F000BBB332A2C55A4C4BD7795E68E11C680D2C
:10550000F33F7A2E0EE787F61CC495D52AA1A3B0E7
:105510003882B193466BCF7A5448DD59622DEB3C0B
:10552000700EF91F8FF706E69DD414C5ABB122A00B
:10553000B9923083C77B4E6AD5585C49E33D6A2CEB
:10554000F11E780F6455000800000020780000006C
:10555000C0420008DC5500087800002070110000EF
:10556000D0420008000000000024F4000100000008
:1055700000000000000000006F12033C6F12033BAC
:105580000AD7A33B17B7513A0AD7A33BBC7413BC45
:10559000000000000000000000000000000000000B
:1055A00000000000320000000000000000000000C9
:1055B00000000000E8030000000000000000000000
:1055C00000000000A55A01000000000000000000DB
:0C55D000000000000000000000000000CF
:04000005080001AD41
:00000001FF
