:020000040800F2
:10000000C00B0020C1010008E12E0008992800085B
:10001000BD2D0008E90600081139000800000000A5
:100020000000000000000000000000003530000863
:10003000C10A000800000000032F000883310008F7
:10004000DB010008DB010008DB010008DB01000820
:10005000DB010008DB010008DB010008DB01000810
:10006000C30A0008DB010008DB010008DB0100080F
:10007000DB010008A1090008AD090008B909000862
:10008000DB010008C5090008DB010008DB010008EE
:10009000ED060008DB010008DB010008C90A0008C2
:1000A000DB010008DB010008DB010008DB010008C0
:1000B000DB010008CD320008DB010008DB0100088D
:1000C000DB010008DB010008DB010008DB010008A0
:1000D000DB0100080D390008DB010008DB01000826
:1000E000DB010008DB010008DB010008DB01000880
:1000F000DB010008DB010008DB010008DB01000870
:10010000DB010008DB010008E1320008DB01000828
:10011000DB010008DB010008DB010008DB0100084F
:10012000DB010008DB010008D1090008DB01000841
:10013000DB010008DB010008DB010008DB0100082F
:10014000DB010008DB010008DB010008DB0100081F
:10015000DD090008DB010008DB010008DB01000805
:10016000DB010008DB010008DB010008DB010008FF
:10017000DB010008DB010008DB01000800000000D3
:10018000DB010008DB0100089B3500089F350008F3
:10019000DB010008DB010008DB010008DB010008CF
:1001A0000000000000000000DB010008DFF80CD0B8
:1001B00000F078FA00480047013B0008C00B00201F
:1001C0000648804706480047FEE7FEE7FEE7FEE7F1
:1001D000FEE7FEE7FEE7FEE7FEE7FEE73132000856
:1001E000AD0100082DE9FE4F804681EA0300C00FF3
:1001F0000C46009021F0004123F00045B8EB0200CE
:10020000A94105D24046214690461C460B4602466F
:1002100023F00040104347D0270DC7F30A00C3F373
:100220000A510290401A019040286BDAC3F3130080
:1002300040F4801B0098924620B10023D2EB030AC1
:1002400063EB0B0B01985946C0F14002504600F099
:1002500022F906460D4650465946019A00F02AF901
:1002600010EB08006141002487EA115284EAE77329
:100270001A4340D0009A62B3019A012A4FEA07520A
:1002800015DC001B61EB02014FF0004202EA07524D
:10029000CDE90042001C41F5801132462B4600F0AA
:1002A00061F903B0BDE8F08F40462146F9E7001B35
:1002B00061EB0201001C41F5801300185B4120181E
:1002C000A2F5001747EB030140EAD570B6196D415E
:1002D00011E06D084FEA360645EAC0754FEA07524D
:1002E000001B61EB0201001C41F5801149084FEA37
:1002F00030000019514132462B4603B0BDE8F04FA3
:1003000000F021B90098012240000023D0EB020246
:1003100063EBE073009821464FEAE074B8EB00000D
:1003200061EB0401E9E783F000435BE781F0004102
:1003300058E72DE9FE4F81EA030404F0004421F060
:10034000004100944FF0000B23F0004350EA0104F9
:100350005ED052EA03045BD0C3F30A54C1F30A55DA
:100360002C44A4F2F3340194A0FB0254C1F3130112
:1003700041F48011C3F3130343F4801301FB0244DF
:1003800000FB034E840A970A44EA815447EA8357E4
:10039000A4FB076802958D0A05FB07854FEA932C9D
:1003A00004FB0C542705029D4FEA065847EA16370E
:1003B000B5EB08056EEB070C870E920E47EA811726
:1003C00042EA8312A7FB0201B6EB0B0164EB0004C7
:1003D0002B0D43EA0C335E1844EB1C50DA465146B1
:1003E000E7FB0201C5F313044FEA0B3343EA14534E
:1003F0004FEA0432019C43EA0603A4F10C04029480
:10040000009CCDE900B400F0ADF803B0BDE8F08F7A
:1004100000200146F9E70EB5C10F80EAE0700844FC
:10042000CA07002140F233438DE80E000A460B460E
:1004300000F098F803B000BD00F0004230F000403A
:100440000AD0C10D01F56071C0F3160042EA0151F6
:10045000C20840071143704700200146704701F071
:10046000004330B421F0004150EA010206D00A0DE9
:10047000A2F56072C1F31301002A02DC30BC002037
:100480007047440F44EAC104C100E01830BC00EBDF
:10049000C25000F021B8202A04DB203A00FA02F111
:1004A000002070479140C2F1200320FA03F3194362
:1004B00090407047202A06DBCB17203A41FA02F021
:1004C00043EAE07306E041FA02F3D040C2F12002B1
:1004D00091400843194670470029A8BF7047401C47
:1004E000490008BF20F00100704710B4B0FA80FC4A
:1004F00000FA0CF050EA010404BF10BC704749B187
:10050000CCF1200421FA04F411FA0CF118BF0121F6
:1005100021430843A3EB0C01CB1D4FEA00614FEAD6
:10052000102042BF002010BC704700EBC3501044A5
:100530000029A4BF10BC7047401C490008BF20F030
:10054000010010BC704710B5141E73F1000408DAE6
:10055000401C41F1000192185B411A4301D120F087
:10056000010010BD2DE9F04D92469B4611B1B1FA44
:1005700081F202E0B0FA80F220329046FFF78BFF62
:1005800004460F4640EA0A0041EA0B0153465A4628
:10059000084313D0114653EA010019D0C8F14002B4
:1005A000504600F091F805460E46504659464246E0
:1005B000FFF771FF084305D0012004E020463946CB
:1005C000BDE8F08D0020054346EAE0762C43374332
:1005D0000A986305E40AA0EB08000022FD0A44EA39
:1005E00047540A3002D500200146E9E701051019F9
:1005F0006941DDE9084500196941BDE8F04DA2E710
:100600002DE9F04D00231A461B1A8A4103DB002016
:100610000146BDE8F08DC1F30A52C1F3130141F464
:1006200080154FF0000BD10702D100186D41521E0A
:100630000027044640F2FF11384601EB620A3E46AD
:100640008046024600204FF4801100F03DF8C219A8
:100650007141BB1846EB0100B4EB030C75EB000CC9
:1006600004D3E41A65EB000517460E46241908F179
:1006700001006D4180463428E3DDF91946EB0600A0
:10068000091BA84103D24FF0FF32134601E00022BC
:1006900013461BEB070046EB0A51BDE8F04DFFF790
:1006A00052BF0000064C074D06E0E06840F0010331
:1006B00094E8070098471034AC42F6D3FFF77AFD70
:1006C0002C4300084C430008202A04DB203A21FA7E
:1006D00002F00021704721FA02F3D040C2F120025B
:1006E0009140084319467047FEE70000014800F0BA
:1006F000C9BA00007003002000B58BB000210122B0
:10070000CDE90612039108920491019102910E2203
:1007100005910992044901631C314163694600F067
:100720003DFA0BB000BD00003003002070B5164C40
:1007300040F2FF15266B3560266B7560266B002531
:10074000B560266BF560266B08253561266B050ABA
:100750003575256B6875256B080AA875206BC17502
:10076000216B100A0876206B4276216B180A887676
:10077000206B0A21C376204600F05AFC08B1002005
:1007800070BD012070BD000070030020204A9FED65
:100790001F0A204B82ED000A1B68CBB191ED150AB0
:1007A00081ED160A436B9B8A5BBA1BB200EE103ACE
:1007B000B8EEC00A81ED150A436BDB8A5BBA1BB247
:1007C00000EE903AF8EEE00AC1ED030A81ED100A5E
:1007D000436B9B8A5BBA1BB200EE103AB8EEC00ABC
:1007E00081ED110A436B1B8B5BBAA1F88830406B1B
:1007F0000168A1F50073053B06D1807E00EE100A6A
:10080000B8EE400A82ED010A7047000000000000C7
:100810000C0000200800002010B54FF4D8720368C7
:1008200002EB01129B5813F00404436B9C600468B4
:10083000436BA45854D0E4085C6003689A58436B37
:1008400002F00202DA604FF4DA72036802EB01127E
:100850009B58446B03F00F03236103689A58436B62
:10086000C2F30722DA614FF4DC72036802EB011273
:100870009B58446B237503689B58446B1B0A637534
:1008800003689B58446B1B0CA37503689A58436B11
:10089000120EDA754FF4DE72036802EB01129B58F8
:1008A000446B237603689B58446B1B0A637603688A
:1008B0009B58446B1B0CA37603689A58436B120E2B
:1008C000DA762022002901680DD00A6101684A69A0
:1008D00022F010024A6190F83810222909D021E054
:1008E000640D1C60A9E7CA6001684A6922F002022F
:1008F000F0E701684A6922F480724A6101684A6936
:1009000022F400724A6101684A6922F480624A61F5
:1009100001684A6922F400624A6101684A6922F466
:1009200000424A6190F83810322907D05FF0010187
:1009300080F8381000F034FB002010BD1221F7E7DA
:1009400010B501684A6922F001024A6190F8381036
:10095000122918D101684A6922F480724A6101683B
:100960004A6922F400724A6101684A6922F480628D
:100970004A6101684A6922F400624A6101684A6971
:1009800022F400424A6190F83810322906D0012141
:1009900080F8381000F016FC002010BD2221F7E787
:1009A000014800F057BC000064040020014800F03A
:1009B00051BC000044060020014800F04BBC000080
:1009C000C4040020014800F045BC0000A40600203B
:1009D000014800F03FBC0000E40500200C480D4A2F
:1009E0000168D014914202D90A494C3904E00A4AFC
:1009F000914203D90749503908607047064B064AAF
:100A0000603BB83A994201D9D06070479060704716
:100A10005C07002058640240B86002400168182357
:100A2000CAB2103AB2FBF3F2054B6FF30901032A85
:100A30009B5CC36500D9091D8165084670470000AD
:100A40002443000810B5014600208B698A6A4FF0E4
:100A5000C07453B1B3F5005F15D072B1012A0CD048
:100A6000022A0AD0032A09D104E01AB1012A06D0C9
:100A7000022A03D1C96AC90100D5012010BDC96A83
:100A8000A142FAD010BD002AF7D0012AF2D0022AE2
:100A9000F3D0032AF3D010BD30B50468256825F4DF
:100AA00080252560046863608368402B036803D059
:100AB00099600068C26030BD9A600068C16030BD56
:100AC0007047042000F04ABD4FF4807000F046BD2E
:100AD00070B503F0DFF92D4D2C4695ED1E0AA5F1FA
:100AE0001C0002F0CFFBA5F11C0090ED000A201DB8
:100AF00084ED020A02F0A6F903F062F905F18C0612
:100B0000301D96ED1E0A86ED020A02F09BF905F5EE
:100B10008C74201D02F096F994ED0C0A1C4A10EE1C
:100B2000101A1C48914204DA10EE101A1A4A914227
:100B300009D3D4ED030AF5EEC00AF1EE10FA02D1A2
:100B40000021017002E00178322906D2B1EE400A9C
:100B5000C9B284ED0C0A491C0170BDEEC00A002325
:100B600010EE100A96ED0C0A02B2BDEEC00A10EEAD
:100B7000100A95ED0C0ABDE87040BDEEC00A01B246
:100B800010EE100A00B2FFF7D1BD0000680000208F
:100B90000000FA45240000200000FAC5F0B50A7DE7
:100BA00001209040344A136843F001031360136836
:100BB00023F47C53136013684C6A43EA04231360E4
:100BC0002D4B1C331C6884431C602B4D2B4CCE6971
:100BD0000C35A6B92E6886432E608F894E6867F360
:100BE0001F464F6904EBC707C7F840660F890E68B8
:100BF00067F31F464F6904EBC707C7F84466CE6921
:100C0000012E14D12E6806432E600E884D6866F3BF
:100C10001F454E6904EBC606C6F840560E89CD68DE
:100C200066F31F454E6904EBC604C4F84456124CE3
:100C30008D69241D002D256806D0054325600E4CC6
:100C40000D69143415B104E08543F7E72568854341
:100C500025600D69012D02D1256805432560096ACB
:100C6000012902D1196801431960106820F00100C0
:100C700010600020F0BD00000066004000600040F1
:100C80007047000010B5044600684169C943C907B0
:100C900014D182685849914368D000218368574A2B
:100CA0009A4365D0002283685548984362D000205B
:100CB0001143014302D02046FFF742FE2068C1687D
:100CC000406911F0030FC0F3400004D018B10021B7
:100CD0002046FFF7A1FD21680869496910F0030F5C
:100CE000C1F3001104D019B101212046FFF794FD92
:100CF00020688169426911F0010FC2F30023426943
:100D0000C2F3C03205D023B11AB1E16B41F0010149
:100D1000E1638169C1F3400341694269C1F3402144
:100D2000C2F3C0322BB121B11AB1E16B41F0020123
:100D3000E16381694269C1F38001C2F380234269A2
:100D4000C2F3C03229B123B11AB1E16B41F0040101
:100D5000E163816911F0700F0ED00021426943698F
:100D6000C2F3C022C3F3C03341B127E0012195E7AC
:100D7000012298E701209BE70121EFE7F2B1EBB1F7
:100D8000816901F07001402929D006DC102909D0C1
:100D900020290BD030290DD11DE0502923D0602906
:100DA00008D124E0E16B41F0080102E0E16B41F081
:100DB0001001E163816921F070018161E06B00281D
:100DC00008D0216804204860012084F838002046BB
:100DD000FFF756FF10BDE16B41F02001E9E7E16B41
:100DE00041F04001E5E7E16B41F08001E1E7E16BB3
:100DF00041F48071DDE700000300000400030008F7
:100E0000000003102DE9F041040004D094F83800EC
:100E1000002518B107E00120BDE8F08184F83950C1
:100E2000204600F093F8022084F83800206801681A
:100E300021F0020101602068016841F001010160B8
:100E400000F084FC0746032605E000BF00F07EFCAE
:100E5000C01B0A2863D820684068C007F6D0206805
:100E60004168C90768D0A169012901683FD021F014
:100E700080010160E0690128206801683AD021F012
:100E800040010160206A01282068016835D021F006
:100E900020010160606A01282068016830D021F0DB
:100EA00010010160A06A0128206801682BD021F0A0
:100EB00008010160E06A01282068016826D021F05D
:100EC00004010160D4E902010843D4E9041211438A
:100ED00008436168491E08432168C86120680168A9
:100EE00021F00101016000F031FC07461CE041F0F7
:100EF0008001BEE741F04001C3E741F02001C8E7AF
:100F000041F01001CDE741F00801D2E741F00401C2
:100F1000D7E700BF00F01AFCC01B0A2804D904F868
:100F2000386F0320657077E720684068C007F1D10B
:100F300020684068C00703D0042084F838006AE7BE
:100F4000E563012084F83800002065E710B5044609
:100F50000068104986B088421AD10F480021026803
:100F600042F0007202600068022200F000700590FA
:100F70000320CDE90210CDE9000209200490694662
:100F8000064800F0F7FA2068416941F0020141612A
:100F900006B010BD0064004040380240000C024022
:100FA00010B504461E48844239D1606B816889BB04
:100FB000C16879BB0168A1F50071053904D0012928
:100FC00004D0022926D10DE0164920E0C08A40BA9B
:100FD00000B200EE100A1448B8EEC00A014680EDD7
:100FE000030A14E0808A40BA00B200EE100A0F48EB
:100FF000B8EEC00A80ED150A616BC98A49BA09B218
:1010000000EE101A0146B8EEC00A80ED030A204631
:10101000FFF7BCFB2068416941F00201416110BD4E
:101020007003002068000020F400002080010020F0
:101030002DE9F05F0E46016804468868400105D43A
:101040008868000102D48868C00067D594F8390028
:1010500001280ED0012784F8397094F8380022282E
:101060000AD0122084F838008868400106D500258F
:101070000AE00220BDE8F09F3220F3E78868000113
:1010800001D5012500E002254FF4C07000EB0510EA
:101090000A5802F001020A50216B8A68EAB3D4F8B8
:1010A00000C05CF800301343CA68496842EAC101D5
:1010B0000B434CF80030216B0A7C02F00F020A61EE
:1010C0004FF4C271226801EB0511535823F00F034E
:1010D000535022685358D4F830C0DCF810C043EAAB
:1010E0000C035350216B4FF4C47303EB05130A7DBB
:1010F000D1F8151042EA01212268D150216B4FF43A
:10110000C67303EB05130A7ED1F8191042EA0121D8
:101110002268D15021680A5801E00DE046E042F013
:1011200001020A5000F012FB81464FF00008DFF880
:1011300088A0DFF888B019E022681358D1F80CC0F5
:10114000098843EA0C0343EA41511150B3E7701C8C
:101150000CD02EB100F0FAFAA0EB0900B04205D98C
:10116000032084F8380084F8398083E795B120683B
:10117000012D816813D0124888430028E7D194F8E4
:10118000380032280ED084F8387000BF84F83980D7
:1011900000206FE7206881682AEA0100EDE72BEA6A
:1011A0000100EAE7222084F83800EFE7042084F801
:1011B000380001205EE7000003000004000300087F
:1011C0000000031070472DE9F0410446876D00F0E0
:1011D000BDFA064694F835000025022806D0802086
:1011E000606584F834500120BDE8F0812068016812
:1011F00021F0160101602068416921F08001416100
:10120000206C08B9A06C20B12068016821F00801A9
:1012100001602068016821F0010101600BE000F02D
:1012200095FA801B052806D92020606504F8345FF4
:1012300003206070D8E720680068C007EFD194F8F9
:101240005C103F208840B86004F8345F0120607073
:101250000020C9E72DE9F84304464FF00008CDF817
:10126000008064484FF41651A56D0068B0FBF1F79B
:101270002E6894F85C10082000FA01F131420FD07A
:1012800021680A6852070BD50A6822F004020A6036
:1012900094F85C108840A860606D40F001006065C3
:1012A00094F85C1054488840304208D0216849695D
:1012B000090604D5A860606D40F0020060654E48E4
:1012C00094F85C10C01C8840304208D0216809683E
:1012D000890704D5A860606D40F00400606594F84B
:1012E0005C1010208840304218D021680968090736
:1012F00014D5A86020680168490304D5006800037C
:1013000008D5A16C07E00168C90503D4016821F084
:1013100008010160216C09B12046884794F85C10EF
:101320002020884030424FF0010631D02168096802
:10133000C9062DD5A86094F83500052820680168F5
:1013400006D0490347D5006800031DD4616C1CE03A
:1013500021F0160101602068416921F0800141619E
:10136000206C08B9A06C20B12068016821F0080148
:10137000016094F85C103F208840A86084F83480B5
:1013800084F83560216D1FE0E16B09B12046884784
:10139000606D00282BD0606DC00714D0052084F844
:1013A00035002068016821F0010101600098401CAF
:1013B0000090B84203D820680068C007F6D184F8CE
:1013C000348084F83560E16C002910D001B02046EB
:1013D000BDE8F04308470168C905D5D4016821F08C
:1013E0001001016084F8348084F83560CCE7BDE8F2
:1013F000F883000004000020010080002DE9F04186
:10140000044600F0A3F906465CB1002584F8345088
:10141000022084F835002068016821F00101016094
:101420000DE00120BDE8F08100F090F9801B052857
:1014300005D920206065032084F83500F2E7206894
:101440000068C007F0D1226811681F480140D4E944
:1014500001031843D4E9033633431843636918433F
:10146000A3691843E3691843236A18430843616A70
:10147000042903D1D4E90B131943084310602068F1
:101480004069666A20F0070130460E4301270428B0
:101490000AD1A06A06432046FFF7D4FA20B14020C3
:1014A000606584F83570BCE7206846612046FFF728
:1014B000B5FA94F85C203F2191408160656584F81D
:1014C00035700020AEE700003F8010F02DE9F041BC
:1014D0000446866D90F83400002501280DD00120C7
:1014E00084F8340094F835700020012F07D084F878
:1014F000340002252846BDE8F0810220FBE70227E0
:1015000084F8357060652046FFF7C6FA94F85C10E1
:101510003F208840B0602068016841F016010160FA
:101520002068416941F080014161206C20B1206850
:10153000016841F0080101602068016841F0010183
:101540000160D7E731B500F001F9044600F0FEF87C
:101550000099001B8842F9D338BD7047044910B583
:101560000A68024202D00860FFF7F7FF10BD0000D2
:10157000143C01402DE9F84FDFF890B100224FF004
:1015800001084FF0030A4FF00F090BF1040E00BFE2
:101590000B6808FA02F42340A3426ED14D68022D75
:1015A00001D0122D0ED1D50800EB850CDCF82050AF
:1015B0005607F70E09FA07F6B5430E69BE402E43EB
:1015C000CCF82060066855000F790AFA05FC07F090
:1015D000030726EA0C06AF40374307604E68012E2A
:1015E00005D0022E03D0112E01D0122E0ED1876805
:1015F000CE6827EA0C07AE403E4386604668A643A5
:101600000C79C4F30014944034434460C4688E6879
:1016100024EA0C04AE402643C6604C68E4006FD553
:101620003B4C256845F480452560246822F003057D
:1016300004F480440094374C2E19D6F808489507D6
:101640002F0F09FA07F5AC43334DA84201D100250D
:101650002EE0324DA84201D1012529E0304DA842AB
:1016600001D1022524E02F4DA84201D103251FE01E
:101670002D4DA84202D104251AE041E02B4DA8428D
:1016800001D1052514E02A4DA84201D106250FE01D
:10169000284DA84201D107250AE0274DA84201D1D3
:1016A000082505E0254DA84201D1092500E00A25BD
:1016B000BD402543C6F80858DBF800405D464E683B
:1016C0009C43F60300D51C432C60DEF800407546B1
:1016D0004E689C43B60300D51C432C600B4D083567
:1016E0002C684E689C43F60200D51C432C60074DC5
:1016F0000C352C684E689C43B60200D51C432C6008
:10170000521C102AFFF444AFBDE8F88F003C0140A2
:101710004438024000300140000002400004024012
:1017200000080240000C0240001002400014024079
:1017300000180240001C0240002002400024024029
:101740000AB1816170470904FBE7000001480068A5
:10175000704700000000002002480168491C016039
:1017600070470000000000200B4810B5016841F4EC
:1017700000710160016841F480610160016841F419
:1017800080710160032000F091F8002000F006F85D
:1017900000F018F8002010BD003C024010B50446CF
:1017A00007484FF47A710068B0FBF1F000F03DFBA0
:1017B00000222146501E00F059F8002010BD000004
:1017C0000400002070472DE9F04116460F46040042
:1017D00004D094F83900002518B107E00120BDE8D5
:1017E000F08184F83850204600F044FF242084F82B
:1017F00039002068C16821F40051C160204601F021
:101800002FFF2068016921F490410161206841693E
:1018100021F02A0141612068016921F00F01016175
:1018200020680169394301612068C16821F40061C1
:10183000C1602068C1683143C1602068C16841F45B
:101840000051C160E563202084F8390084F83A0033
:101850000020C4E700F01F020121914040098000F0
:1018600000F1E020C0F8001170470000F0B40E4B0A
:101870001B680C46C3F30223C3F10705042D00D9EE
:101880000425191D072901D2002300E0DB1E0126D3
:1018900006FA05F1491E214099409E40761E1640E9
:1018A0003143F0BC01F01DBB0CED00E0064900F037
:1018B000070208684FF6FF03184040EA0220034A77
:1018C00010430860704700000CED00E00000FA05CE
:1018D0002DE9F047DFF8649105460F46D9F800007E
:1018E00000F00F01F8B28046B94208D2014689F8EB
:1018F0000010D9F8000000F00F00B84274D1287829
:101900004F4C800705D52068A96820F0F0000843F7
:1019100020602878C00759D04949686808390128EB
:101920001AD002281BD0032819D00968890700297A
:101930005ADA216821F0030101432160FFF706FF15
:101940006968064641F28830012911D002291DD06C
:101950000329824627D035E009688903E7E709684B
:101960008901E4E7FFF7F2FE811B514501D926E02A
:1019700082462068C0F381000128F3D126E000BF31
:10198000FFF7E4FE811B514501D918E0824620682B
:10199000C0F381000228F3D118E000BFFFF7D6FEA4
:1019A000811B51450BD82068C0F381000328F5D175
:1019B0000CE000BFFFF7CAFE811B514502D903208E
:1019C000BDE8F087206810F00C0FF3D1D9F80010B3
:1019D000484601F00F01B94208D980F8008000683C
:1019E00000F00F00B84201D00120E9E72878400755
:1019F00005D52068E96820F4E05008432060287885
:101A0000000706D52068296920F4604040EAC1003B
:101A1000206000F051F82168F02292FAA2F201F061
:101A2000F001B2FA82F2D140064A515CC840064940
:101A300008600020FFF7B2FE0020C1E7003C024032
:101A400008380240144300080400002001480068E0
:101A50007047000004000020084809490068096830
:101A60004FF4E05292FAA2F201F4E051B2FA82F29B
:101A7000D140044A515CC840704700000400002077
:101A800008380240144300080848094900680968FA
:101A90004FF4604292FAA2F201F46041B2FA82F28B
:101AA000D140044A515CC840704700000400002047
:101AB000083802401443000830B51948006810F097
:101AC0000C01184812D0184C04290ED008290DD149
:101AD0001349091F0A6802F03F030A68550247F6D6
:101AE000C07204D5B4FBF3F003E0204630BDB0FB78
:101AF000F3F00B680968134092FAA2F2B2FA82F28C
:101B0000D34058434FF4403292FAA2F201F44031EC
:101B1000B2FA82F2D140491C4900B0FBF1F030BD6D
:101B2000083802400024F400001BB7002DE9F84FEC
:101B30000446DFF8CC820078A8F1040BC007ABF1B3
:101B4000040537D0D8F800104046C1F381010129BF
:101B500008D00068C0F3810002280AD1DBF8000039
:101B6000400206D52868800324D56068002878D014
:101B700020E0A3492079891F0870606868B1FFF7E9
:101B8000E5FD064605E000BFFFF7E0FD801B642889
:101B900068D828688003F7D50CE0FFF7D7FD064624
:101BA00005E000BFFFF7D2FD801B6428F0D828684D
:101BB0008003F7D42078934E80074FF0010A4FF04E
:101BC000000742D5D8F80010404611F00C0F08D09D
:101BD0000068C0F3810002280AD1DBF8000040024F
:101BE00006D42868800714D5E068012839D110E0B0
:101BF000E068D8B1C6F800A0FFF7A8FD814605E06F
:101C0000FFF7A4FDA0EB09000228C1D828688007CF
:101C1000F6D52868F82292FAA2F22169B2FA82F285
:101C200020F0F8009140084328600EE03760FFF78D
:101C30008DFD814606E000BFFFF788FDA0EB09009F
:101C400002280FD828688007F6D42078000728D506
:101C50006D486169A1B1C0F800A0FFF777FD81462A
:101C600008E0CAE079E000BFFFF770FDA0EB0900D3
:101C7000022872D862486C3000688007F4D510E002
:101C80000760FFF763FD814606E000BFFFF75EFDDA
:101C9000A0EB0900022860D859486C300068800722
:101CA000F4D42078400749D555483830016841F0D0
:101CB00080510160006800F0805000905348016836
:101CC00041F480710160FFF741FD814606E000BFED
:101CD000FFF73CFDA0EB090002283ED84B48006806
:101CE000C005F5D5DFF81891207A09F1680989F85F
:101CF0000000A06888B1FFF729FD009008E000BF50
:101D0000FFF724FD0099411A41F2883081426CD8D6
:101D1000D9F800008007F3D510E0FFF717FD009019
:101D200008E000BFFFF712FD0099411A41F2883028
:101D300081425AD8D9F800008007F3D4A069E0B3F3
:101D4000D8F80010C1F38101022956D00228376665
:101D500004D0FFF7FBFC04464AE046E0FFF7F6FC40
:101D6000074604E0FFF7F2FCC01B02283DD82868B4
:101D70008001F7D4D4E90701084347F6C07292FA0C
:101D8000A2F2616AB2FA82F29140A26A4FF0FF3386
:101D900003EB52024FF4403393FAA3F3B3FA83F305
:101DA0009A40114308434FF0706292FAA2F2E16A3E
:101DB000B2FA82F29140084300E01CE0CBF8000048
:101DC000C6F860A0FFF7C2FC044604E0FFF7BEFCC3
:101DD000001B022809D828688001F7D50BE000BF56
:101DE000FFF7B4FC001B022802D90320BDE8F88FDE
:101DF00028688001F4D40020F8E70120F6E700000D
:101E00000838024000004742800E47420070004000
:101E10004FF0E0210428086903D020F00400086195
:101E2000704740F00400FAE7704710B5401EB0F16B
:101E3000807F01D3012010BD4FF0E02460610F21AD
:101E4000601701F04EF80020A061072020610020FB
:101E500010BD10B5FFF7E8FF10BD7047704730B5F3
:101E600090F83820012A20D0012280F8382002235F
:101E700080F8393003685C6824F070045C600368A3
:101E80005C680D682C435C6003689C6824F08004E7
:101E90009C6003689C6849680C439C6080F839200A
:101EA000002180F83810084630BD022030BD10B542
:101EB000040003D094F8390010B107E0012010BDF0
:101EC000002084F83800204600F00CF8022084F846
:101ED0003900211D206801F009FA012084F8390039
:101EE000002010BD00B5144A0168144887B0914223
:101EF00009D1016841F002010160006800F00200B0
:101F0000059007B000BD0E4A9142FAD1016841F038
:101F1000080101600068694600F0080005904FF470
:101F200040600090022001900290039004900548C8
:101F3000FFF720FBE5E700000004004040380240C6
:101F4000000C0040001C02400168CA6842F0010217
:101F5000CA600068016841F001010160002070471B
:101F600070B5044690F83800012817D0012584F890
:101F70003850022084F839002068826822F0770205
:101F800022F47F4282600868502837D00DDC202878
:101F900059D005DC88B3102841D151E0022070BD32
:101FA000302853D040283AD13FE060282ED0702806
:101FB0000BD0B0F5805F03D0B0F5005F2FD110E0FB
:101FC0002068816821F0070115E0CB68D1E9012183
:101FD000206801F0F6F92168886840F07700886091
:101FE0001DE0CB68D1E90121206801F0EAF9206801
:101FF000816841F48041816011E01EE0CA6849684F
:10200000206801F0A7FA5021206806E0CA684968F4
:10201000206801F0B0FA6021206801F0DCF984F852
:102020003950002084F8380070BDCA6849682068BB
:1020300001F090FA40212068EFE700212068ECE7EA
:1020400010212068E9E720212068E6E73021206898
:10205000E3E700002DE9F04107462DED088B00680D
:10206000664988427ED1387E9FED65BA9FED658ACC
:10207000F7EE008A9FED649AF1EE0C9A9FED63AA49
:102080000026634DF1EE04AA012856D1614C0021CF
:10209000614894ED000A84ED010A00F06AFA00EE4E
:1020A000100A00215C48B8EE400A84ED000A00F0F6
:1020B000B5F894ED010AB5EEC00AF1EE10FA02D1BE
:1020C00084ED02BA39E0D4ED000AF4EEC00AF1EE74
:1020D00010FA02DD30EEC00A05E070EE880A30EE3C
:1020E000C00A30EE280A4B4884ED020AF0EE400A9E
:1020F000696889EE200A303800EB8102491C052905
:10210000C0EE290A20EE8A0A82ED000A696090EC8E
:10211000020A30EE200AD0ED020A30EE200AD0ED9D
:10212000030A30EE200AD0ED040A30EE200AC0EE99
:102130002A0AC0ED050A00D16E60387E02281ED141
:10214000344C04210C34344894ED000A84ED010A27
:1021500000F00FFA00EE100A0021B8EE400A84EDFC
:10216000000A00E00BE02C4800F058F894ED010A5A
:10217000B5EEC00AF1EE10FA05D184ED02BABDEC5D
:10218000088BBDE8F081D4ED000AF4EEC00AF1EE50
:1021900010FA02DD30EEC00A05E070EE880A30EE7B
:1021A000C00A30EE280A1B4884ED020AF0EE400A0D
:1021B000A96889EE200A183800EB8102491C05291C
:1021C000C0EE290A20EE8A0A82ED000AA96090EC8E
:1021D000020A30EE200AD0ED020A30EE200AD0EDDD
:1021E000030A30EE200AD0ED040A30EE200AC0EED9
:1021F0002A0AC0ED050AC2D1AE60C0E7000C00405B
:102200000000000000FF7F47002474490000704276
:1022100028000020C40200202804002010B5026815
:10222000044631B1042908D0082915D00C2908D159
:1022300016E0D06840F0020002E0D06840F00400F0
:10224000D0600122206801F0B1F82068016841F0F7
:1022500001010160002010BDD06840F00800EFE7E8
:10226000D06840F01000EBE770B5044600680169E3
:102270004FF00005C943890715D4C168C9438907D0
:1022800011D4E91E01610120207620688069800751
:10229000204602D0FFF7DEFE04E000F0B3F820464F
:1022A00000F048F9257620680169C943490717D429
:1022B000C168C943490713D46FF0040101610220CA
:1022C00020762068806910F4407F204602D0FFF716
:1022D000C1FE04E000F096F8204600F02BF92576C8
:1022E00020680169C943090716D4C168C9430907B1
:1022F00012D46FF008010161042020762068C069C3
:102300008007204602D0FFF7A5FE04E000F07AF82F
:10231000204600F00FF9257620680169C943C906F7
:1023200017D4C168C943C90613D46FF01001016105
:10233000082020762068C06910F4407F204602D033
:10234000FFF788FE04E000F05DF8204600F0F2F8A8
:10235000257620680169C943C90708D1C168C94306
:10236000C90704D1891E0161204600F001F92068E7
:102370000169C943090609D4C168C943090605D4DE
:102380006FF0800101612046FFF767FD2068016959
:10239000C943490609D4C168C943490605D46FF049
:1023A00040010161204600F006F920680169C94337
:1023B00089060BD4C168C943890607D46FF0200190
:1023C00001612046BDE87040FFF748BD70BD0000C8
:1023D00000B50068094985B088420CD14FF44050DF
:1023E000009002200021CDE90101CDE903106946EA
:1023F0000348FFF7BFF805B000BD0000000800402B
:10240000000C0240704770B5044690F838000D4645
:1024100001280DD0012684F83860022084F83900A4
:1024200042B1042A18D0082A2AD00C2A4DD139E00A
:10243000022070BD206800F0D7FF2068816941F05C
:10244000080181612068816921F0040181612068AF
:1024500081692A69114311E0206800F0F1FF2068CA
:10246000816941F4006181612068816921F48061A2
:102470008161206881692A6941EA0221816124E041
:10248000206801F00FF82068C16941F00801C161BE
:102490002068C16921F00401C1612068C1692A690D
:1024A000114311E0206801F02DF82068C16941F462
:1024B0000061C1612068C16921F48061C161206847
:1024C000C1692A6941EA0221C16184F839600020AA
:1024D00084F8380070BD10B5040003D094F83900BA
:1024E00010B107E0012010BD002084F8380020461C
:1024F00000F00CF8022084F83900211D206800F05B
:10250000F5FE012084F83900002010BD08B50068F0
:102510000649884208D10648016841F0040101607B
:10252000006800F00400009008BD000000080040B2
:10253000403802407047000010B504460068012290
:1025400000F034FF08492068884202D007498842D9
:1025500003D1416C41F4004141642068016841F0BD
:1025600001010160002010BD000001400004014095
:10257000704790F838300022012B0AD0012380F8F0
:10258000383041B1042909D008290AD00C290DD1CD
:102590000AE00220704701684A6B07E001688A6B15
:1025A00004E00168CA6B01E001680A6C002180F850
:1025B000381010467047704710B5044600684169EE
:1025C00094F83920C1F3C011212A0BD151B14169CE
:1025D00021F080014161206B08B1FEF7F4FD204637
:1025E00001F035F82068416994F83A20C1F3801170
:1025F000222A0BD151B1416921F040014161606B48
:1026000008B1FEF7E0FD204601F013F8002010BDF0
:10261000704770B5040004D094F83900002510B15B
:1026200006E0012070BD84F83850204600F022F802
:10263000242084F839002068C16821F40051C16069
:10264000204601F00DF82068016921F490410161F4
:102650002068416921F02A0141612068C16841F484
:102660000051C160E563202084F8390084F83A0005
:10267000002070BD2DE9F043054607685348DFF898
:102680004881002402220321514B061587B04FF0E8
:10269000080C4FF0206947452BD1076847F0804769
:1026A00007600068CDE9024100F080400590C80154
:1026B000CDE90002CDF810C069461846FEF75AFF72
:1026C000454F44483860C7E90194C7E903467C6137
:1026D000BC61FC613C6238467C62FEF78FFE18B13B
:1026E000A5213EA001F015F93B486F63E038BD63BA
:1026F0002FE0DFF8FC80474533D1076847F00047FB
:102700000760006802AF00F000400590CDE90012BC
:10271000012087E8031069461846FEF72BFF2E4F6D
:102720002C48603748303860C7E90194C7E9034650
:102730007C61BC61FC613C6238467C62FEF75EFEF7
:1027400018B1CB2125A001F0E4F823486F63A0382D
:10275000BD630068C16841F01001C16007B0BDE809
:10276000F08324488742F9D11848001D036843F0DC
:1027700010030360006800F010000590C0208DE891
:1027800015000720CDE9031069461B48FEF7F2FE4D
:10279000114F1A48603F38604FF00060C7E90104EC
:1027A000C7E903467C61BC61FC613C6238467C62DF
:1027B000FEF724FE18B1F22108A001F0AAF86F6319
:1027C0000F48BD63C5E70000007800404038024074
:1027D0000010024058600240440600202E2E5C414A
:1027E00050505C5372635C75736172742E630000A9
:1027F000007C0040001001400004024040640240A0
:102800002405002070B5044690F83A00202839D1FC
:10281000A9B3A2B394F83800012833D0012084F87A
:102820003800A162A2850025E563222084F83A00E1
:10283000636B1548D863636B14481864636B144862
:10284000D864606B134605650846666B21680246CE
:102850003046091DFEF73AFE2068C16841F48071D8
:10286000C1602068416941F001014161206841690E
:1028700041F04001416184F83850002070BDFFE70D
:102880000120FBE70220F9E7ED35000829360008B2
:10289000A335000870477047FEE7000038B51B48B5
:1028A00000680168C943C9062ED401684068184C05
:1028B0000090184A21684FF40010914202D915493E
:1028C0004C3904E0144A914203D912495039086046
:1028D00008E0114B104A603BB83A994201D9D060E8
:1028E00000E090600948FFF767FE206840682822F2
:1028F000C0F1280409490548FFF784FF212C03D1C2
:10290000BDE8384000F00CB838BD0000A405002038
:10291000A406002058640240B8600240DC02002097
:1029200070B5404C2DED048B04F12805E07A9FED45
:102930003E8B552832D1207B52282FD134F90D0FF0
:10294000FDF769FD53EC182BFDF7F3FC9FED389B69
:1029500053EC192BFDF7EDFCFDF781FD2860B4F970
:102960000200FDF758FD53EC182BFDF7E2FC53EC89
:10297000192BFDF7DEFCFDF772FD6860B4F9040069
:102980000D3CFDF748FD53EC182BFDF7D2FC53EC42
:10299000192BFDF7CEFCFDF762FDA860A07D552840
:1029A0003DD1E07D53283AD1B4F91800FDF733FD4D
:1029B00053EC182BFDF7BDFC9FED1F9B53EC192B1F
:1029C000FDF7B7FC53EC192BFDF70CFCFDF747FDA9
:1029D000E860B4F91A00FDF71EFD53EC182BFDF763
:1029E000A8FC53EC192BFDF7A4FC53EC192BFDF7B5
:1029F000F9FBFDF734FD2861B4F91C00FDF70BFD70
:102A000053EC182BFDF795FC53EC192BFDF791FCBB
:102A100053EC192BFDF7E6FBFDF721FD6861BDECDA
:102A2000048B70BDDC020020000000000000003FAD
:102A30000000000000409F40000000000080664051
:102A4000114810B50F4901600221416000214FF487
:102A500050228160C0E903124FF4A002C0E90521B1
:102A60000122C161C0E90812C0E90A12FEF7CAF9E1
:102A7000002805D0BDE810401A2104A000F049BF8D
:102A800010BD000000640040700300202E2E5C4149
:102A900050505C5372635C63616E2E6300000000F3
:102AA000094808B5016841F480010160016801F43A
:102AB00080010091016841F400110160006800F498
:102AC0000010009008BD00003038024070B530485A
:102AD00086B00024016841F001010160016801F045
:102AE00001010591016841F002010160016801F0F6
:102AF00002010591016841F004010160016801F0E3
:102B000004010591016841F008010160016801F0CC
:102B100008010591016841F010010160016801F0B0
:102B200010010591016841F020010160016801F088
:102B300020010591016841F040010160016801F048
:102B400040010591016841F08001016000684FF487
:102B5000005500F0800005900120CDE900500220D2
:102B6000CDE902040B4E69463046FEF703FD002214
:102B700029463046FEF7E4FD042000900648CDE9E2
:102B8000010469460548FEF7F5FC06B070BD00007B
:102B900030380240001802400000111000040240CA
:102BA00010B5174886B01549016042F2CF010024E4
:102BB000C0E901140921C0E90314FFF778F918B13D
:102BC0001C2110A000F0A5FE4FF480500090694633
:102BD0000B48FFF7C5F918B122210AA000F099FEB1
:102BE000049404A906480594FFF739F9002803D096
:102BF000292104A000F08DFE06B010BD00040040A5
:102C0000B00300202E2E5C4150505C5372635C7404
:102C1000696D2E630000000010B524488AB0224977
:102C2000016053210024C0E9011440F2CF71C0E9D2
:102C30000314FFF750FC18B13B211DA000F069FE02
:102C4000079407A919480894FFF709F918B1422118
:102C500017A000F05EFE602000904FF47A70CDE97E
:102C600001040022694611480494FFF7CCFB18B117
:102C70004C210FA000F04DFE042269460B48FFF7DF
:102C8000C2FB18B151210AA000F043FE0748FFF72C
:102C90009FFB00210548FFF74FFC04210348FFF785
:102CA0004BFC0AB010BD000000080040EC030020FF
:102CB0002E2E5C4150505C5372635C74696D2E63C0
:102CC000000000000D4810B50B4901604FF4E131E0
:102CD0004160002181600422C160C0E90412816169
:102CE000C161FFF796FC002805D0BDE810404721E0
:102CF00003A000F00EBE10BD007800406405002067
:102D00002E2E5C4150505C5372635C75736172741B
:102D10002E6300000D4810B50B4901604FF4E131FE
:102D20004160002181600422C160C0E90412816118
:102D3000C161FFF76EFC002805D0BDE810405921A5
:102D400003A000F0E6BD10BD007C0040A4050020FB
:102D50002E2E5C4150505C5372635C7573617274CB
:102D60002E6300000E4810B50C4901600D4941600A
:102D700000214FF480628160C0E903120422C0E99F
:102D800005210A46C161FEF71EFD002805D0BDE8F9
:102D900010406D2104A000F0BCBD10BD001001402A
:102DA00024050020A08601002E2E5C4150505C536B
:102DB00072635C75736172742E630000FEE7D0ED80
:102DC000001A31EE800A80ED000AB4EEE00AF1EE5E
:102DD00010FA01DDC0ED000A90ED000AB4EEC10A60
:102DE000F1EE10FA01D280ED001A7047D0ED001A12
:102DF00031EE800A80ED000AB4EEE00AF1EE10FA3E
:102E000001DDC0ED000A90ED000AB4EEC10AF1EE5A
:102E100010FA01D280ED001A704780ED010A704768
:102E20000170C0ED0E1A80ED0D2A80ED204AC0ED34
:102E30001F4A00F1180282EC030A4832C2EC032A4E
:102E40007047000090ED090A214A80ED0A0AD0ED92
:102E5000010A90ED021A70EEC10AC0ED090A30EEC7
:102E6000C01A90ED080A30EE200A10EE101A80ED1C
:102E7000080A914202D39FED170A06E010EE101ADD
:102E8000154A914201DB9FED150A80ED080AD0ED4D
:102E9000051A61EEA00AD0ED061A41EE800A90ED07
:102EA000070A40EE010AC0ED0B0A90ED0C0AF4EEA1
:102EB000C00AF1EE10FA06D990ED0D0AF4EEC00A40
:102EC000F1EE10FA01DBF0EE400AC0ED0B0A70479C
:102ED00000007AC500007AC500007A4500007A45F6
:102EE00070470907090E002806DA00F00F0000F10C
:102EF000E02080F8141D704700F1E02080F80014F5
:102F00007047704730B5002846D0244901230B7024
:102F10000288C2F30A04224A148044788578E408BF
:102F200044EA4514C4F30A0454808478C578A4099B
:102F300044EA8504057944EA8524C4F30A049480AC
:102F400004794579640844EAC514C4F30A04D480BA
:102F50004479A40994724479C4F30114D472C488E6
:102F600094810489D48144891482047B94744C78BC
:102F70002CB9447BD474447B012C03D14B708B78E7
:102F80005B1C8B708B78322B02D900234B708B70BB
:102F9000C1899182008A108130BD00002500002087
:102FA0007E02002038B51D4800680168C943C90683
:102FB00032D4016840681A4C00901A4A21684FF4D4
:102FC0000010914202D917494C3904E0164A914247
:102FD00003D914495039086008E0134B124A603B8A
:102FE000B83A994201D9D06000E090600B48FFF7F1
:102FF000E3FA206840681E22C0F11E040B4907480E
:10300000FFF700FC122C07D1094901200870BDE828
:1030100038400648FFF776BF38BD00002405002081
:10302000E405002058640240B860024060020020BD
:1030300025000020704700002DE9F0411F480022C4
:103040001F4CC17C012907D12168491C216002293C
:1030500000DD00212160C274C17A0126194D0229C8
:1030600012D0206802280FD0032914D0012812D0D2
:103070004FF47A70E060C5F8B4221349E068086044
:10308000091D0860BDE8F081E06840F214518842F3
:1030900010DA401C0DE0E06840F2E247B84204DA82
:1030A000401CE0600120FEF74DFAE068B84201DD07
:1030B0000A38E060C5F8B462DFE700007E02002055
:1030C00028000020000043423408004010B50122CF
:1030D00011461420FEF7CAFB1420FEF7BBFB0022AA
:1030E00001212520FEF7C2FB2520FEF7B3FB0422B9
:1030F00001215220FEF7BAFB5220FEF7ABFB05225E
:1031000002215320FEF7B2FB5320FEF7A3FB02225D
:1031100000211D20FEF7AAFB1D20FEF79BFB0622C7
:1031200001210E20FEF7A2FB0E20FEF793FB0322E7
:1031300001211120FEF79AFB1120FEF78BFB0122E3
:1031400011463A20FEF792FB3A20FEF783FB052258
:1031500001214420FEF78AFB4420FEF77BFB04227A
:1031600001211720FEF782FB1720FEF773FB0322D5
:1031700001210820FEF77AFBBDE810400820FEF789
:1031800069BB10B5FEF7E8FABDE81040FEF761BE76
:1031900030B5254893B00025016841F080510160A9
:1031A000006800F0805011902048016841F44041CF
:1031B00001600068022400F440401190012000905A
:1031C00001908005CDE906400C2008904FF4A870CE
:1031D000CDE9090404200B906846FEF7A7FC00B176
:1031E000FEE70CA90F2081E831004FF4A0500F90AA
:1031F0004FF48050109005210CA8FEF769FB00B138
:10320000FEE7FEF723FC4FF47A71B0FBF1F0FEF716
:103210000CFE0420FEF7FCFD00221146501EFEF7B6
:1032200025FB13B030BD0000403802400070004064
:103230001048016841F4700101600F48016841F0D5
:10324000010101600C4A00210832116002680B4B39
:103250001A400260031D0A4A1A60026822F48022A2
:10326000026005480C300160024958068039086048
:103270007047000088ED00E000380240FFFFF6FED6
:103280001030002410B590ED002A90ED031AD0ED17
:10329000010A044601EE202A80ED002AD0ED041A2E
:1032A00032EE400A61EE211A90ED021A00F0B6FBF0
:1032B000D4ED010A94ED031A41EE000AC4ED010AAF
:1032C00010BD083080EC030A7047000010B500F014
:1032D000ADFEBDE810400148FEF7C6BFB0030020B8
:1032E0000148FEF7C1BF000028040020F0B50268C5
:1032F000234B244D244E254F254C4FF0804C9842B3
:1033000009D0604507D0A84205D0B04203D0B842EA
:1033100001D0A04204D122F0700E4A6842EA0E02A7
:1033200098421BD0604519D0A84217D0B04215D0A2
:10333000B84213D0A04211D0164DA8420ED0164D5F
:10334000A8420BD0154DA84208D0154DA84205D073
:10335000144DA84202D0144DA84203D122F4407566
:10336000CA682A4302608A68C2620A688262984216
:1033700001D0A04201D10969016301214161F0BD81
:10338000000001400004004000080040000C004024
:103390000004014000400140004401400048014059
:1033A00000180040001C00400020004010B5012320
:1033B000046A8B409C430462036A8A40134303629D
:1033C00010BD10B5846842EA032224F47F440A4306
:1033D0002243826010BD826822F070020A4342F0EC
:1033E000070181607047000030B5026A22F00102D7
:1033F0000262026A436884690D6824F073042543FD
:1034000022F002048A6822430B4CA04202D00B4CEB
:10341000A0420BD122F00804CA6823F4407322436F
:103420004C6922F004021C438B692343436085618D
:1034300049684163026230BD000001400004014060
:1034400030B5026A22F010020262026A436884699F
:103450000D6824F4E64444EA05248D6822F0200235
:1034600042EA05120D4DA84202D00D4DA8420ED1E0
:10347000CD6822F0800242EA05124D6923F44063D0
:1034800043EA85038D6922F0400243EA85034360E5
:10349000846149688163026230BD00000000014020
:1034A0000004014030B5026A22F480720262036AAD
:1034B0004268C46923F4007324F073050C682C433C
:1034C0008D6843EA05230D4DA84202D00C4DA84259
:1034D0000ED1CD6823F4006343EA05234D6922F43D
:1034E000405242EA05128D6923F4806342EA0512D4
:1034F0004260C4614968C163036230BD000001409D
:103500000004014030B5026A22F480520262046A6B
:103510004268C3690D6823F4E64343EA05238D68D6
:1035200024F4005444EA0534084DA84202D0084D62
:10353000A84204D14D6922F4804242EA85124260D9
:10354000C36149680164046230BD000000000140AD
:103550000004014010B5036A046A24F00104046207
:10356000846924F0F00444EA021423F00A020A43B6
:103570008461026210BD10B5036A23F01003036278
:103580008369046A23F4704343EA023224F0A003FF
:1035900043EA01118261016210BD00F0EDBCFFF74A
:1035A0007DB970B5846B2068406994F83910C0F318
:1035B000C0100025212904D118B1E584204600F06F
:1035C00046F82068406994F83A10C0F38010222928
:1035D00004D118B1E585204600F02BF8E06B40F0EF
:1035E0001000E0632046FFF713F870BD10B50146E8
:1035F000806B09680968C90513D40021C185016879
:10360000CA6822F48072CA6001684A6922F0010225
:103610004A6101684A6922F040024A61202180F82B
:103620003A10FFF737F910BD10B5806BFFF733F98B
:1036300010BD0168CA6822F49072CA6001684A69C4
:1036400022F001024A61202180F83A107047016897
:10365000CA6822F0C002CA60202180F83910704781
:103660002DE9F04104460068016921F44052E16807
:10367000114301612168C86849F20C6290432369D3
:10368000A268E5691A4363692B431A430243CA607F
:103690002168486920F44072A06910434861E169DB
:1036A0006425B1F5004F9748974A21684FF03208DA
:1036B0003FD0914201D081427CD1FEF7E5F900EB89
:1036C000C00101EB001061688900B0FBF1F6FEF764
:1036D000DBF900EBC00101EB001061688900B0FB71
:1036E000F1F0B0FBF5F06FF01801484306EB8001F4
:1036F00008EB0110B0FBF5F000F0F006FEF7C4F99E
:1037000000EBC00101EB001061688900B0FBF1F033
:10371000B0FBF5F006EB0016FEF7B6F900EBC001C2
:1037200001EB001061688900B0FBF1F7FEF7ACF91E
:10373000D2E0914201D081423DD1FEF7A5F900EBE4
:10374000C00101EB001061684900B0FBF1F0B0FB73
:10375000F5F00601FEF798F900EBC00101EB00104F
:1037600061684900B0FBF1F7FEF78EF900EBC0018C
:1037700001EB001061684900B0FBF1F0B0FBF5F01F
:103780006FF01801484307EB800108EBC100B0FB64
:10379000F5F000F0F80006EB4006FEF775F900EBD7
:1037A000C00101EB001061684900B0FBF1F7FEF7C2
:1037B0006BF93CE055E0FEF74FF900EBC00101EB7F
:1037C000001061684900B0FBF1F0B0FBF5F00601B4
:1037D000FEF742F900EBC00101EB001061684900FF
:1037E000B0FBF1F7FEF738F900EBC00101EB001078
:1037F00061684900B0FBF1F0B0FBF5F06FF0180123
:10380000484307EB800108EBC100B0FBF5F000F086
:10381000F80006EB4006FEF71FF900EBC00101EBD4
:10382000001061684900B0FBF1F7FEF715F900EBF5
:10383000C00101EB001061684900B0FBF1F0B0FB82
:10384000F5F06FF01801484307EB800108EBC10069
:10385000B0FBF5F000F00700216830448860BDE857
:10386000F081FEF7F9F800EBC00101EB0010616890
:103870008900B0FBF1F6FEF7EFF800EBC00101EBB9
:10388000001061688900B0FBF1F0B0FBF5F06FF05B
:103890001801484306EB800108EB0110B0FBF5F07E
:1038A00000F0F006FEF7D8F800EBC00101EB0010C5
:1038B00061688900B0FBF1F0B0FBF5F006EB001693
:1038C000FEF7CAF800EBC00101EB00106168890047
:1038D000B0FBF1F7FEF7C0F800EBC00101EB001000
:1038E00061688900B0FBF1F0B0FBF5F06FF01801F2
:1038F000484307EB800108EB0110B0FBF5F000F046
:103900000F00A9E70014014000100140FFF74ABB77
:10391000FEE7FEE700B52DED048BB0EE409AF0EE29
:10392000609A83B051EC190BFCF76AFE41EC180B5E
:1039300018EE100A18EE901A8DED008B002818BFB3
:103940000120084320F00040C0F17F6000F1E0401A
:10395000C00F14D019EE101A19EE900A8DED009BCD
:10396000002918BF0121084320F00040C0F17F600A
:1039700000F1E040C00F04BF012000F017F8B0EEE6
:10398000480A03B0F0EE680ABDEC048B00BD02E00B
:1039900008C8121F08C1002AFAD1704770470020DA
:1039A00001E001C1121F002AFBD1704701490860E4
:1039B000704700004800002010B504460420FEF7C0
:1039C00027FA0148046010BD4400002070B5054688
:1039D00000244FF47A7603E0304600F005F8641CCA
:1039E000AC42F9D370BD000070B54FF0E024002266
:1039F00065690949A36909684843A1699942FCD0EE
:103A000002D2A3EB010302E0A5EB010633441A4402
:103A10000B468242F1D370BD4400002010B52DED5D
:103A2000088BF0EE619AB0EE609AB0EE408AB0EE8C
:103A300041AA09EE898A6AEE298A09EE890AF2EE1C
:103A4000000A69EEA8BA6AEE200AB5EEC08AF1EE65
:103A500040AAF1EE10FA02DDB0EE480A01E0B0EE45
:103A60006A0A20EE800A08EEA80A10EE100AFCF797
:103A7000E3FC41EC100BFFF74DFF51EC100BFCF792
:103A8000EEFC0BEE100AB5EEC08AF1EE10FA01DD85
:103A9000F0EE48AAF4EEEBAAF1EE10FA0EDDB0EE6D
:103AA000480A00F0ADFA7BEE680AB6EE001A60EE46
:103AB000200AB0EE490A00EE810A03E088EE290AE6
:103AC00030EE090AB5EEC00AF1EE10FA02DDF0EEB2
:103AD000400A01E0F1EE400AF4EEE80AF1EE10FAD5
:103AE00008DD00F08DFAF1EE4A0A20EE200ABDEC66
:103AF000088B10BD6AEE400A80EEA80AF7E70000C6
:103B00002DED088BFDF730FEFFF742FBA820FFF7F5
:103B100053FFFEF7DBFFFEF7C3FFFEF791FFFFF752
:103B200021F9FFF7CFF8FFF7F5F8FFF775F8FFF782
:103B300037F87948FCF7E0FDFFF7C8FA4FF4FA7060
:103B4000FFF744FF754D95ED150A9FED758AB0EEB0
:103B5000481ADFED748A05F13C00F0EE680AFFF7C1
:103B600045F99FED711ADFED710A9FED710A7148F9
:103B7000FFF73CF90121F0EE484AB0EE684ADFED6C
:103B80006E3A9FED6E8AF3EE042AB0EE483A9FED4E
:103B90006C2ADFED6C1ADFED6C8AF0EE480AB3EEAA
:103BA000020AB0EE681A2846FFF73AF90021DFED65
:103BB000674A9FED674AF0EE483A9FED668AF0EE5D
:103BC000002AB0EE483A9FED649AB0EE492ADFED44
:103BD000639A5848B0EE481AF0EE691AF0EE680A97
:103BE000B1EE040A3C38FFF71BF90021F0EE484A19
:103BF000B0EE484AF0EE483AB0EE483AF0EE482AC5
:103C00009FED572ADFED571AB0EE481AF0EE480A3A
:103C1000B1EE080A5448FFF703F9DFED548AB0EE1D
:103C2000681A9FED53AAF0EE4A0A9FED520A5248D5
:103C3000FFF747FBB0EE681ADFED50AAF0EE6A0A14
:103C40009FED4FBA4F48B0EE4B0AFFF73AFBB0EE8C
:103C5000681AF0EE6A0AB0EE4B0A4B48FFF731FBE8
:103C6000B0EE681AF0EE4A0A9FED480A4848FFF79E
:103C700028FB6420FFF7AAFE4648FEF765F92D4CA5
:103C8000454F464E3C3C00BF94ED151A94ED0F0A8B
:103C900071EE400AF5EEC00AF1EE10FA01DC70EEAA
:103CA000410A10EE900AB84232DA306880B3DFF889
:103CB000F08000203060D8ED050A9FED3A0A0146F9
:103CC0001C4870EEC00ADFED384A9FED384AC4ED5B
:103CD000120A84ED150A84ED100A84ED0F0ADFED57
:103CE000343AB0EE483AFAEE092AB0EE492AF0EE3C
:103CF000691A9FED301ADFED300A9FED300A3C382B
:103D0000FFF78EF898ED040A85ED150A85ED0F0A88
:103D1000FFF792F9B8E7000070030020F4000020DC
:103D20000000FAC50000FA45008054450080BB45FC
:103D300000E09245A4000020EC51383E0AD7A33C95
:103D400000D004C600D00446CDCCCC3D000016C443
:103D5000000016440000000000409CC600409C4645
:103D600000A00CC600A00C46800100200AD7A33B8F
:103D70007B14AE3D000048434C000020CDCC4C3DB0
:103D8000000096430C0200202802002000803B45E2
:103D900044020020B0030020000048420800002038
:103DA0000403002000003443000048C400004844DD
:103DB0000AD7A3BC0AD7233CCDCCCC3E00000C4292
:103DC0002D482E4A90ED1C1A80ED1D1A90ED0F0A19
:103DD000D0ED150A30EE600A80ED1C0AD0ED1B0A0A
:103DE00070EE800A10EE901AC0ED1B0A914202D3C9
:103DF000DFED230A06E010EE901A224A914201DB21
:103E0000DFED210A30EE411AC0ED1B0AD0ED181A81
:103E1000B5EEC00A61EE801AF1EE10FA01DCB1EEE7
:103E2000400A1A4A21EE800AD0ED191A01EEA00AC2
:103E3000D0ED1A0A00EE810A10EE101A80ED1E0A6B
:103E4000914205DDDFED120A30EE200A80ED1E0AF8
:103E5000D0ED1F0AB4EEE00AF1EE10FA06D9D0ED6B
:103E6000200AB4EEE00AF1EE10FA01DBB0EE600ACF
:103E700080ED1E0A70470000F400002000409CC541
:103E800000409CC500409C4500409C450000C84245
:103E90000000C8422548264A90ED1C1A80ED1D1AE4
:103EA00090ED0F0AD0ED130A30EE200AD0ED100A83
:103EB00070EE600AC0ED1C0A90ED1B0A30EE200A7D
:103EC00010EE101A80ED1B0A914202D39FED190AE1
:103ED00006E010EE101A184A914201DB9FED170A16
:103EE00030EEC11A80ED1B0AD0ED181A61EEA00A5F
:103EF000D0ED191A41EE800A90ED1A0A40EE010A3F
:103F0000C0ED1E0A90ED1F0AF4EEC00AF1EE10FAA1
:103F100006D990ED200AF4EEC00AF1EE10FA01DBAA
:103F2000F0EE400AC0ED1E0A704700006800002055
:103F300000409CC500409CC500409C4500409C45FD
:103F40000A490B480A78A52A02D14A785A2A06D08B
:103F50009FED080A80ED010A80ED020A704751F8D2
:103F6000022F426049688160704700001C030020F6
:103F7000380000200000000038B51B48002400680D
:103F80000168C943C9062CD401684068174C0090E9
:103F9000174A21684FF40010914202D914494C3954
:103FA00004E0144A914203D911495039086008E0ED
:103FB000104B104A603BB83A994201D9D06000E0FA
:103FC00090600948FEF7F8FA206840681422C0F1B2
:103FD000140409490448FEF715FC0C2C01D1FFF725
:103FE000AFFF0648046038BD640500204406002089
:103FF00058640240B86002401C03002038000020D2
:10400000B5EEC00AF1EE10FA02DDB7EE000A704715
:10401000B5EEC00AF1EE10FA02D2BFEE000A704708
:104020009FED010A70470000000000002DE9F047F5
:1040300099482DED088B007800287CD097489FED9B
:1040400098BADFED989ADFF86092DFF86082984EB8
:10405000984D0168B2EE049AF1B33089A0F5806002
:1040600000EE100AB8EEC00A20EE0B0A85ED020A37
:104070009FED911ADFED910A4046FEF7B7FE70887A
:10408000A0F5806000EE100AB8EEC00A20EE290A02
:1040900085ED010A9FED8A1ADFED8A0A4846FEF790
:1040A000A5FEF088884CA0F5806000EE100A201D67
:1040B000B8EEC00A20EE090A85ED030AFEF7ADFE50
:1040C000B07C012876D0286868B19FED800A201D59
:1040D000FEF7A3FE286800E00BE0401C2860502893
:1040E00001DB00202860BDEC088BBDE8F047FCF741
:1040F000EFBC774F6D4C774A97ED020A3C3C214666
:1041000084ED030AD4ED150AF7EE001AC4ED160A81
:1041100097ED050A94ED121A30EE410A84ED150A66
:1041200070EE600A91ED141A10EE900A904203DDD1
:1041300071EE610A0AE0AAE010EE900A6649884230
:1041400002D8D4ED140A03E071EE210AC4ED140A7A
:104150009FED621A00EE810A84ED100AB6F90C0098
:10416000FCF759F99FED5EAB53EC1A2BFCF7E1F825
:1041700041EC180B3088A0F5806000EE100AB8EE14
:10418000C00A20EE0B0A10EE100AFCF755F953ECAA
:10419000182BFCF7C8F8FCF762F900EE100A524938
:1041A00085ED020AD4ED110A10EE900A884202DD74
:1041B000012001E068E0002001EE100AB8EE411A8B
:1041C000DFED4A1A10EE900A494970EEE11A884272
:1041D00021EE211A01DA012000E0002001EE900A10
:1041E000F8EE611A9FED432A70EEC20A01EEA01AA2
:1041F000C1EE090AC4ED130A9FED3F1ADFED3F0A35
:104200004046FEF7DCFD284897ED040A3C3880ED77
:10421000150AB6F90E00FCF7FEF853EC1A2BFCF762
:1042200088F841EC180B7088A0F5806000EE100A49
:10423000B8EEC00A20EE290A10EE100AFCF7FCF8CE
:1042400053EC182BFCF76FF8FCF709F900EE100A95
:104250009FED2B1A85ED010ADFED2A0A4846FEF78D
:10426000AEFDB07A03287FF41CAF27489FED271AD4
:10427000D0ED000A404680EE810AB1EE041ADFED6F
:10428000240AFEF79CFD0CE7012028601DE7BDEC29
:10429000088BBDE8F0870000250000200800002002
:1042A0006F1203BA52499DB930010020A4000020CA
:1042B0007E0200201400002000C05A4500C0DA45EC
:1042C0000050C3C7007C12488001002000A08C452C
:1042D0000403002000004843000048C30000B4432A
:1042E0007B14AE47E17A843F0080BB450080BB452C
:1042F0000000614500006145000070C20000BE433F
:1043000000001143000039433C0000200000B4C20B
:104310000000AF4300000000010203040102030497
:104320000607080900061016000610164C43000880
:10433000000000204C0000008E390008984300085F
:104340004C000020740B00009E39000800000000A3
:104350000024F40001000000000000000000000044
:10436000000000000000000000000000000000004D
:10437000320000000000000000000000000000000B
:10438000000000000000000000000000000000002D
:08439000000000000000000025
:04000005080001AD41
:00000001FF
