:020000040800F2
:1000000020060020C1010008291F0008691C000803
:10001000151F000809020008E92700080000000079
:10002000000000000000000000000000BD200008EB
:1000300091040008000000004B1F0008BF200008CA
:10004000DB010008DB010008DB010008DB01000820
:10005000DB010008DB010008DB010008DB01000810
:10006000DB010008DB010008DB010008DB01000800
:10007000DB010008DB010008DB010008DB010008F0
:10008000DB010008DB010008DB01000819020008A1
:100090000D020008DB010008DB010008DB0100089D
:1000A000DB010008DB010008DB010008DB010008C0
:1000B000DB010008C1210008DB010008DB010008AA
:1000C000DB010008DB010008DB010008DB010008A0
:1000D000DB010008E5270008DB010008DB01000860
:1000E000DB010008DB010008DB010008DB01000880
:1000F000DB010008DB010008DB010008DB01000870
:10010000DB010008DB010008DB010008DB0100085F
:10011000DB010008DB010008DB010008DB0100084F
:10012000DB010008DB010008E1030008DB01000837
:10013000DB010008DB010008DB010008DB0100082F
:10014000DB010008DB010008DB010008DB0100081F
:10015000DB010008DB010008DB010008DB0100080F
:10016000DB010008DB010008DB010008DB010008FF
:10017000DB010008DB010008DB01000800000000D3
:10018000DB010008DB010008DB010008DB010008DF
:10019000DB010008DB010008DB010008DB010008CF
:1001A0000000000000000000DB010008DFF80CD0B8
:1001B00000F018F8004800470D280008200600202D
:1001C0000648804706480047FEE7FEE7FEE7FEE7F1
:1001D000FEE7FEE7FEE7FEE7FEE7FEE76D2100082B
:1001E000AD010008064C074D06E0E06840F0010351
:1001F00094E8070098471034AC42F6D3FFF7DAFFD3
:100200007428000894280008FEE70000014800F068
:10021000B5B9000050000020014800F0AFB900005F
:100220005000002000B58BB000210122CDE906125C
:10023000039108920491019102910E220591099275
:10024000044901631C314163694600F023F90BB096
:1002500000BD00001000002010B54FF4D8720368F4
:1002600002EB01129B5813F00404436B9C6004687A
:10027000436BA45854D0E4085C6003689A58436BFD
:1002800002F00202DA604FF4DA72036802EB011244
:100290009B58446B03F00F03236103689A58436B28
:1002A000C2F30722DA614FF4DC72036802EB011239
:1002B0009B58446B237503689B58446B1B0A6375FA
:1002C00003689B58446B1B0CA37503689A58436BD7
:1002D000120EDA754FF4DE72036802EB01129B58BE
:1002E000446B237603689B58446B1B0A6376036850
:1002F0009B58446B1B0CA37603689A58436B120EF1
:10030000DA762022002901680DD00A6101684A6965
:1003100022F010024A6190F83810222909D021E019
:10032000640D1C60A9E7CA6001684A6922F00202F4
:10033000F0E701684A6922F480724A6101684A69FB
:1003400022F400724A6101684A6922F480624A61BB
:1003500001684A6922F400624A6101684A6922F42C
:1003600000424A6190F83810322907D05FF001014D
:1003700080F8381000F098FA002010BD1221F7E73D
:1003800010B501684A6922F001024A6190F83810FC
:10039000122918D101684A6922F480724A61016801
:1003A0004A6922F400724A6101684A6922F4806253
:1003B0004A6101684A6922F400624A6101684A6937
:1003C00022F400424A6190F83810322906D0012107
:1003D00080F8381000F084FA002010BD2221F7E7E1
:1003E000014800F0C5BA0000100100200168182380
:1003F000CAB2103AB2FBF3F2054B6FF30901032ABC
:100400009B5CC36500D9091D8165084670470000E3
:100410006C28000810B5014600208B698A6A4FF0ED
:10042000C07453B1B3F5005F15D072B1012A0CD07E
:10043000022A0AD0032A09D104E01AB1012A06D0FF
:10044000022A03D1C96AC90100D5012010BDC96AB9
:10045000A142FAD010BD002AF7D0012AF2D0022A18
:10046000F3D0032AF3D010BD30B50468256825F415
:1004700080252560046863608368402B036803D08F
:1004800099600068C26030BD9A600068C16030BD8C
:1004900070470000F0B50A7D01209040344A13688F
:1004A00043F001031360136823F47C531360136853
:1004B0004C6A43EA042313602D4B1C331C688443AD
:1004C0001C602B4D2B4CCE690C35A6B92E6886438B
:1004D0002E608F894E6867F31F464F6904EBC7078C
:1004E000C7F840660F890E6867F31F464F6904EB33
:1004F000C707C7F84466CE69012E14D12E6806439B
:100500002E600E884D6866F31F454E6904EBC606E3
:10051000C6F840560E89CD6866F31F454E6904EB58
:10052000C604C4F84456124C8D69241D002D25685C
:1005300006D0054325600E4C0D69143415B104E056
:100540008543F7E72568854325600D69012D02D1B4
:10055000256805432560096A012902D1196801430C
:100560001960106820F0010010600020F0BD00004C
:1005700000660040006000407047000010B504466F
:1005800000684169C943C90714D182685849914339
:1005900068D000218368574A9A4365D00022836857
:1005A0005548984362D000201143014302D02046B1
:1005B000FFF7E6FE2068C168406911F0030FC0F341
:1005C000400004D018B100212046FFF745FE216805
:1005D0000869496910F0030FC1F3001104D019B183
:1005E00001212046FFF738FE20688169426911F039
:1005F000010FC2F300234269C2F3C03205D023B118
:100600001AB1E16B41F00101E1638169C1F340037B
:1006100041694269C1F34021C2F3C0322BB121B11B
:100620001AB1E16B41F00201E16381694269C1F3F2
:100630008001C2F380234269C2F3C03229B123B1E1
:100640001AB1E16B41F00401E163816911F0700FAF
:100650000ED0002142694369C2F3C022C3F3C03304
:1006600041B127E0012195E7012298E701209BE7AE
:100670000121EFE7F2B1EBB1816901F0700140298E
:1006800029D006DC102909D020290BD030290DD122
:100690001DE0502923D0602908D124E0E16B41F00E
:1006A000080102E0E16B41F01001E163816921F092
:1006B00070018161E06B002808D021680420486047
:1006C000012084F838002046FFF756FF10BDE16B8B
:1006D00041F02001E9E7E16B41F04001E5E7E16B22
:1006E00041F08001E1E7E16B41F48071DDE700005A
:1006F0000300000400030008000003102DE9F0418E
:10070000040004D094F83800002518B107E0012057
:10071000BDE8F08184F83950204600F093F80220BB
:1007200084F838002068016821F002010160206827
:10073000016841F00101016000F084FB07460326D7
:1007400005E000BF00F07EFBC01B0A2863D82068CC
:100750004068C007F6D020684168C90768D0A16921
:10076000012901683FD021F080010160E069012882
:10077000206801683AD021F040010160206A012818
:100780002068016835D021F020010160606A0128ED
:100790002068016830D021F010010160A06A0128B2
:1007A000206801682BD021F008010160E06A01286F
:1007B0002068016826D021F004010160D4E902011B
:1007C0000843D4E90412114308436168491E0843F1
:1007D0002168C8612068016821F00101016000F012
:1007E00031FB07461CE041F08001BEE741F04001CB
:1007F000C3E741F02001C8E741F01001CDE741F027
:100800000801D2E741F00401D7E700BF00F01AFB6E
:10081000C01B0A2804D904F8386F0320657077E7F5
:1008200020684068C007F1D120684068C00703D045
:10083000042084F838006AE7E563012084F8380072
:10084000002065E710B504460068144986B0884268
:1008500022D113480021026842F000720260006851
:10086000022200F0007005900320CDE90210CDE9CE
:1008700000020920049069460A4800F0FDF90222AE
:100880001146142000F0AEFB142000F0A0FB2068FD
:10089000416941F00201416106B010BD00640040B1
:1008A00040380240000C02400B49884212D1416B93
:1008B0008A6852B9C96841B908490A78521C52B2CB
:1008C0000A701E2A01DB00220A700068416941F0AB
:1008D000020141617047000050000020000000202C
:1008E00070472DE9F0410446876D00F0ABFA0646EB
:1008F00094F835000025022806D08020606584F831
:1009000034500120BDE8F0812068016821F0160113
:1009100001602068416921F080014161206C08B9C3
:10092000A06C20B12068016821F0080101602068F6
:10093000016821F0010101600BE000F083FA801BE7
:10094000052806D92020606504F8345F0320607014
:10095000D8E720680068C007EFD194F85C103F200A
:100960008840B86004F8345F012060700020C9E757
:100970002DE9F84304464FF00008CDF800806448A4
:100980004FF41651A56D0068B0FBF1F72E6894F88E
:100990005C10082000FA01F131420FD021680A688A
:1009A00052070BD50A6822F004020A6094F85C1022
:1009B0008840A860606D40F00100606594F85C10AC
:1009C00054488840304208D021684969090604D556
:1009D000A860606D40F0020060654E4894F85C10BD
:1009E000C01C8840304208D021680968890704D5B6
:1009F000A860606D40F00400606594F85C10102001
:100A00008840304218D021680968090714D5A860C9
:100A100020680168490304D50068000308D5A16C6B
:100A200007E00168C90503D4016821F008010160ED
:100A3000216C09B12046884794F85C10202088403A
:100A400030424FF0010631D021680968C9062DD522
:100A5000A86094F8350005282068016806D049038D
:100A600047D5006800031DD4616C1CE021F016011D
:100A700001602068416921F080014161206C08B962
:100A8000A06C20B12068016821F00801016094F891
:100A90005C103F208840A86084F8348084F835607A
:100AA000216D1FE0E16B09B120468847606D002889
:100AB0002BD0606DC00714D0052084F83500206865
:100AC000016821F0010101600098401C0090B842CB
:100AD00003D820680068C007F6D184F8348084F811
:100AE0003560E16C002910D001B02046BDE8F0432C
:100AF00008470168C905D5D4016821F010010160DB
:100B000084F8348084F83560CCE7BDE8F8830000D1
:100B100008000020010080002DE9F041044600F0AB
:100B200091F906465CB1002584F83450022084F81F
:100B300035002068016821F0010101600DE001200D
:100B4000BDE8F08100F07EF9801B052805D9202042
:100B50006065032084F83500F2E720680068C0076C
:100B6000F0D1226811681F480140D4E901031843FD
:100B7000D4E903363343184363691843A369184320
:100B8000E3691843236A18430843616A042903D1BF
:100B9000D4E90B1319430843106020684069666A62
:100BA00020F0070130460E43012704280AD1A06A2D
:100BB00006432046FFF72EFC20B14020606584F8F4
:100BC0003570BCE7206846612046FFF70FFC94F8BB
:100BD0005C203F2191408160656584F8357000207C
:100BE000AEE700003F8010F02DE9F0410446866D2D
:100BF00090F83400002501280DD0012084F834003D
:100C000094F835700020012F07D084F834000225B5
:100C10002846BDE8F0810220FBE7022784F8357002
:100C200060652046FFF720FC94F85C103F20884068
:100C3000B0602068016841F01601016020684169D8
:100C400041F080014161206C20B12068016841F0D1
:100C5000080101602068016841F001010160D7E7E7
:100C600031B500F0EFF8044600F0ECF80099001BF5
:100C70008842F9D338BD00002DE9F84FDFF890B174
:100C800000224FF001084FF0030A4FF00F090BF15B
:100C9000040E00BF0B6808FA02F42340A3426ED191
:100CA0004D68022D01D0122D0ED1D50800EB850C18
:100CB000DCF820505607F70E09FA07F6B5430E691F
:100CC000BE402E43CCF82060066855000F790AFA22
:100CD00005FC07F0030726EA0C06AF403743076020
:100CE0004E68012E05D0022E03D0112E01D0122EF7
:100CF0000ED18768CE6827EA0C07AE403E43866077
:100D00004668A6430C79C4F300149440344344600D
:100D1000C4688E6824EA0C04AE402643C6604C6862
:100D2000E4006FD53B4C256845F480452560246878
:100D300022F0030504F480440094374C2E19D6F8B1
:100D4000084895072F0F09FA07F5AC43334DA84221
:100D500001D100252EE0324DA84201D1012529E024
:100D6000304DA84201D1022524E02F4DA84201D1E7
:100D700003251FE02D4DA84202D104251AE041E0D1
:100D80002B4DA84201D1052514E02A4DA84201D1DE
:100D900006250FE0284DA84201D107250AE0274D7E
:100DA000A84201D1082505E0254DA84201D1092519
:100DB00000E00A25BD402543C6F80858DBF800408E
:100DC0005D464E689C43F60300D51C432C60DEF85C
:100DD000004075464E689C43B60300D51C432C600A
:100DE0000B4D08352C684E689C43F60200D51C4319
:100DF0002C60074D0C352C684E689C43B60200D51C
:100E00001C432C60521C102AFFF444AFBDE8F88F3D
:100E1000003C0140443802400030014000000240E4
:100E20000004024000080240000C02400010024092
:100E30000014024000180240001C02400020024042
:100E400000240240014800687047000004000020B0
:100E500002480168491C016070470000040000203E
:100E60000B4810B5016841F400710160016841F45C
:100E700080610160016841F480710160032000F02D
:100E8000D1F8002000F006F800F018F8002010BD9E
:100E9000003C024010B5044607484FF47A710068E0
:100EA000B0FBF1F000F07DFB00222146501E00F067
:100EB00099F8002010BD0000080000201F4808B568
:100EC000016841F480410160006800F480400090B6
:100ED0001A48001F016841F080510160006800F06D
:100EE00080500090052000F09DF8002211466FF020
:100EF0000B0000F077F8002211466FF00A0000F0B6
:100F000071F8002211466FF0090000F06BF8002222
:100F10001146501F00F066F800221146101F00F025
:100F200061F800221146901E00F05CF80022BDE836
:100F300008401146501E00F055B8000044380240E9
:100F40002DE9F04116460F46040004D094F839000C
:100F5000002518B107E00120BDE8F08184F8385081
:100F6000204600F0C9FD242084F839002068C168BB
:100F700021F40051C160204601F0DEFA20680169C9
:100F800021F4904101612068416921F02A01416109
:100F90002068016921F00F0101612068016939436E
:100FA00001612068C16821F40061C1602068C168E6
:100FB0003143C1602068C16841F40051C160E563FC
:100FC000202084F8390084F83A000020C4E700F0BB
:100FD0001F02012191404009800000F1E020C0F88B
:100FE00000117047F0B40E4B1B680C46C3F302238C
:100FF000C3F10705042D00D90425191D072901D2C5
:10100000002300E0DB1E012606FA05F1491E2140FF
:1010100099409E40761E16403143F0BC00F085BFDB
:101020000CED00E0064900F0070208684FF6FF03E8
:10103000184040EA0220034A10430860704700004D
:101040000CED00E00000FA052DE9F047DFF86491AF
:1010500005460F46D9F8000000F00F01F8B28046AF
:10106000B94208D2014689F80010D9F8000000F012
:101070000F00B84274D128784F4C800705D52068FE
:10108000A96820F0F000084320602878C00759D0F4
:1010900049496868083901281AD002281BD003285A
:1010A00019D00968890700295ADA216821F003015B
:1010B00001432160FFF7C6FE6968064641F28830A9
:1010C000012911D002291DD00329824627D035E0FD
:1010D00009688903E7E709688901E4E7FFF7B2FED9
:1010E000811B514501D926E082462068C0F381006A
:1010F0000128F3D126E000BFFFF7A4FE811B514574
:1011000001D918E082462068C0F381000228F3D19B
:1011100018E000BFFFF796FE811B51450BD82068F1
:10112000C0F381000328F5D10CE000BFFFF78AFE71
:10113000811B514502D90320BDE8F087206810F0DB
:101140000C0FF3D1D9F80010484601F00F01B94255
:1011500008D980F80080006800F00F00B84201D084
:101160000120E9E72878400705D52068E96820F4E0
:10117000E050084320602878000706D520682969D8
:1011800020F4604040EAC100206000F051F821687E
:10119000F02292FAA2F201F0F001B2FA82F2D1400A
:1011A000064A515CC840064908600020FFF772FEFD
:1011B0000020C1E7003C0240083802405C280008DB
:1011C0000800002001480068704700000800002067
:1011D00008480949006809684FF4E05292FAA2F2FF
:1011E00001F4E051B2FA82F2D140044A515CC840A5
:1011F0007047000008000020083802405C28000802
:1012000008480949006809684FF4604292FAA2F25E
:1012100001F46041B2FA82F2D140044A515CC84004
:101220007047000008000020083802405C280008D1
:1012300030B51948006810F00C01184812D0184C4D
:1012400004290ED008290DD11349091F0A6802F09C
:101250003F030A68550247F6C07204D5B4FBF3F0A9
:1012600003E0204630BDB0FBF3F00B680968134083
:1012700092FAA2F2B2FA82F2D34058434FF44032CB
:1012800092FAA2F201F44031B2FA82F2D140491C42
:101290004900B0FBF1F030BD083802400024F400F2
:1012A000001BB7002DE9F84F0446DFF8CC82007828
:1012B000A8F1040BC007ABF1040537D0D8F8001033
:1012C0004046C1F38101012908D00068C0F38100C4
:1012D00002280AD1DBF80000400206D52868800306
:1012E00024D56068002878D020E0A3492079891FA0
:1012F0000870606868B1FFF7A5FD064605E000BF0D
:10130000FFF7A0FD801B642868D828688003F7D504
:101310000CE0FFF797FD064605E000BFFFF792FDE2
:10132000801B6428F0D828688003F7D42078934E77
:1013300080074FF0010A4FF0000742D5D8F800109F
:10134000404611F00C0F08D00068C0F3810002285D
:101350000AD1DBF80000400206D42868800714D5C3
:10136000E068012839D110E0E068D8B1C6F800A0E3
:10137000FFF768FD814605E0FFF764FDA0EB09007B
:101380000228C1D828688007F6D52868F82292FA82
:10139000A2F22169B2FA82F220F0F80091400843EB
:1013A00028600EE03760FFF74DFD814606E000BF84
:1013B000FFF748FDA0EB090002280FD82868800736
:1013C000F6D42078000728D56D486169A1B1C0F82E
:1013D00000A0FFF737FD814608E0CAE079E000BFD2
:1013E000FFF730FDA0EB0900022872D862486C308C
:1013F00000688007F4D510E00760FFF723FD814601
:1014000006E000BFFFF71EFDA0EB0900022860D830
:1014100059486C3000688007F4D42078400749D5DB
:1014200055483830016841F080510160006800F093
:10143000805000905348016841F480710160FFF7CB
:1014400001FD814606E000BFFFF7FCFCA0EB0900B0
:1014500002283ED84B480068C005F5D5DFF8189142
:10146000207A09F1680989F80000A06888B1FFF7BF
:10147000E9FC009008E000BFFFF7E4FC0099411A86
:1014800041F2883081426CD8D9F800008007F3D54A
:1014900010E0FFF7D7FC009008E000BFFFF7D2FC98
:1014A0000099411A41F2883081425AD8D9F8000097
:1014B0008007F3D4A069E0B3D8F80010C1F381012C
:1014C000022956D00228376604D0FFF7BBFC044639
:1014D0004AE046E0FFF7B6FC074604E0FFF7B2FC3F
:1014E000C01B02283DD828688001F7D4D4E9070141
:1014F000084347F6C07292FAA2F2616AB2FA82F227
:101500009140A26A4FF0FF3303EB52024FF4403395
:1015100093FAA3F3B3FA83F39A40114308434FF0CD
:10152000706292FAA2F2E16AB2FA82F29140084342
:1015300000E01CE0CBF80000C6F860A0FFF782FCDA
:10154000044604E0FFF77EFC001B022809D8286847
:101550008001F7D50BE000BFFFF774FC001B0228E9
:1015600002D90320BDE8F88F28688001F4D4002058
:10157000F8E70120F6E70000083802400000474283
:10158000800E4742007000404FF0E02104280869B7
:1015900003D020F004000861704740F00400FAE72F
:1015A000704710B5401EB0F1807F01D3012010BDFF
:1015B0004FF0E02460610F21601700F0B6FC0020BE
:1015C000A06107202061002010BD10B5FFF7E8FFE3
:1015D00010BD7047704730B590F83820012A20D0F0
:1015E000012280F83820022380F8393003685C68D3
:1015F00024F070045C6003685C680D682C435C60D8
:1016000003689C6824F080049C6003689C684968B7
:101610000C439C6080F83920002180F8381008467F
:1016200030BD022030BD10B5040003D094F839005D
:1016300010B107E0012010BD002084F838002046DA
:1016400000F00CF8022084F83900211D206800F019
:10165000BDFD012084F83900002010BD08B50068E8
:101660000649884208D10648016841F0020101603C
:10167000006800F00200009008BD00000004004077
:10168000403802400168CA6842F00102CA6000683E
:10169000016841F0010101600020704770B5044607
:1016A00090F83800012817D0012584F8385002201E
:1016B00084F839002068826822F0770222F47F42A1
:1016C00082600868502837D00DDC202859D005DC0E
:1016D00088B3102841D151E0022070BD302853D08A
:1016E00040283AD13FE060282ED070280BD0B0F5CA
:1016F000805F03D0B0F5005F2FD110E020688168D3
:1017000021F0070115E0CB68D1E90121206800F044
:10171000C8FD2168886840F0770088601DE0CB68CC
:10172000D1E90121206800F0BCFD2068816841F406
:101730008041816011E01EE0CA684968206800F0BD
:1017400079FE5021206806E0CA684968206800F0E8
:1017500082FE6021206800F0AEFD84F83950002040
:1017600084F8380070BDCA684968206800F062FEDD
:1017700040212068EFE700212068ECE71021206875
:10178000E9E720212068E6E730212068E3E7704799
:1017900070B50446006801694FF00005C943890728
:1017A00015D4C168C943890711D4E91E016101201C
:1017B0002076206880698007204602D0FFF7E7FF87
:1017C00004E000F0B3F8204600F048F925762068E0
:1017D0000169C943490717D4C168C943490713D4EC
:1017E0006FF004010161022020762068806910F406
:1017F000407F204602D0FFF7CAFF04E000F096F8D1
:10180000204600F02BF9257620680169C9430907B5
:1018100016D4C168C943090712D46FF008010161E9
:10182000042020762068C0698007204602D0FFF798
:10183000AEFF04E000F07AF8204600F00FF92576BC
:1018400020680169C943C90617D4C168C943C906DC
:1018500013D46FF010010161082020762068C06960
:1018600010F4407F204602D0FFF791FF04E000F023
:101870005DF8204600F0F2F8257620680169C9433A
:10188000C90708D1C168C943C90704D1891E0161CC
:10189000204600F001F920680169C943090609D40E
:1018A000C168C943090605D46FF080010161204673
:1018B000FFF78FFE20680169C943490609D4C16852
:1018C000C943490605D46FF040010161204600F08C
:1018D000E4F820680169C94389060BD4C168C9438B
:1018E000890607D46FF0200101612046BDE87040F1
:1018F000FFF770BE70BD000000B50068094985B0F3
:1019000088420CD14FF44050009002200021CDE9D4
:101910000101CDE9031069460348FFF7ADF905B0B1
:1019200000BD000000080040000C0240704770B588
:10193000044690F838000D4601280DD0012684F8A1
:101940003860022084F8390042B1042A18D0082AED
:101950002AD00C2A4DD139E0022070BD206800F059
:10196000B3FC2068816941F00801816120688169C8
:1019700021F004018161206881692A69114311E025
:10198000206800F0CDFC2068816941F4006181612C
:101990002068816921F480618161206881692A69F8
:1019A00041EA0221816124E0206800F0EBFC20681C
:1019B000C16941F00801C1612068C16921F00401D9
:1019C000C1612068C1692A69114311E0206800F0F3
:1019D00009FD2068C16941F40061C1612068C169E5
:1019E00021F48061C1612068C1692A6941EA02214C
:1019F000C16184F83960002084F8380070BD10B5EA
:101A0000040003D094F8390010B107E0012010BDA4
:101A1000002084F83800204600F00CF8022084F8FA
:101A20003900211D206800F0D1FB012084F8390025
:101A3000002010BD08B500680649884208D1064854
:101A4000016841F004010160006800F004000090AA
:101A500008BD000000080040403802407047000008
:101A600010B504460068012200F010FC0849206807
:101A7000884202D00749884203D1416C41F40041B9
:101A800041642068016841F001010160002010BD3F
:101A900000000140000401407047704710B5044643
:101AA0000068416994F83920C1F3C011212A0BD193
:101AB00051B1416921F080014161206B08B1FEF70D
:101AC00010FF204600F02FFD2068416994F83A206D
:101AD000C1F38011222A0BD151B1416921F040019B
:101AE0004161606B08B1FEF7FCFE204600F00DFD81
:101AF000002010BD7047000070B5064600682A4BF4
:101B000000250221032286B0984214D12748036899
:101B100043F080430360006800F080400590D001EE
:101B20008DE823000820CDE9032069462048FFF70F
:101B3000A3F806B070BD1F4B9842FAD11B48001D98
:101B4000036843F010030360006800F01000059084
:101B5000C0208DE823000720CDE903206946164800
:101B6000FFF78AF8164C154820604FF00060C4E972
:101B700001054014C4E903506561A561E561256272
:101B800020466562FEF7C8FF18B198210DA000F04D
:101B90002CFE7463022201212520A663FFF722FA9E
:101BA0002520FFF714FAC4E70078004040380240CF
:101BB0000010024000100140000402404064024056
:101BC000100100202E2E2F5372632F7573617274D3
:101BD0002E63000070B5044690F83A00202839D1F1
:101BE000A9B3A2B394F83800012833D0012084F8B7
:101BF0003800A162A2850025E563222084F83A001E
:101C0000636B1548D863636B14481864636B14489E
:101C1000D864606B134605650846666B216802460A
:101C20003046091DFEF7E0FF2068C16841F480716D
:101C3000C1602068416941F001014161206841694A
:101C400041F04001416184F83850002070BDFFE749
:101C50000120FBE70220F9E7C52400080125000860
:101C60007B24000870477047FEE70000114810B55C
:101C70000F4901600221416000214FF45022816030
:101C8000C0E903124FF4A002C0E905210122C1619D
:101C9000C0E90812C0E90A12FEF730FD002805D09D
:101CA000BDE81040432104A000F09FBD10BD00001E
:101CB00000640040500000202E2E2F5372632F63CB
:101CC000616E2E6300000000094808B5016841F408
:101CD000800101600068022200F480000090012170
:101CE0003A20FFF77FF9BDE808403A20FFF76FB9C7
:101CF00030380240154808B5016841F00201016022
:101D0000016801F002010091016841F008010160E1
:101D1000016801F008010091016841F08001016053
:101D2000016801F080010091016841F0010101604A
:101D3000016801F001010091016841F010010160AA
:101D4000006800F01000009008BD0000303802402C
:101D500010B5184886B01649016042F2CF01002440
:101D6000C0E9011440F2E731C0E90314FFF75BFC5E
:101D700018B1142110A000F038FD4FF480500090ED
:101D800069460C48FFF78AFC18B11A210AA000F036
:101D90002CFD049404A907480594FFF71CFC0028B7
:101DA00003D0212104A000F020FD06B010BD0000EA
:101DB00000040040700100202E2E5C5372635C749E
:101DC000696D2E630000000010B524488AB02249D6
:101DD000016053210024C0E9011440F2CF71C0E931
:101DE0000314FFF70CFE18B132211DA000F0FDFC1A
:101DF000079407A919480894FFF7EDFB18B139219A
:101E000017A000F0F2FC602000904FF47A70CDE94A
:101E100001040022694611480494FFF788FD18B1B7
:101E200043210FA000F0E1FC042269460B48FFF7B4
:101E30007EFD18B148210AA000F0D7FC0748FFF743
:101E40005BFD00210548FFF70BFE04210348FFF767
:101E500007FE0AB010BD000000080040AC010020E1
:101E60002E2E5C5372635C74696D2E63000000005B
:101E70000E4810B50C4901604FF4E131416000217A
:101E800081600C22C160C0E9041281610A46C1610F
:101E9000FFF756F8002805D0BDE81040442104A003
:101EA00000F0A3BC10BD00000078004090000020AE
:101EB0002E2E2F5372632F75736172742E63000080
:101EC0000E4810B50C4901600D49416000214FF4E6
:101ED00080628160C0E903120422C0E905210A463C
:101EE000C161FFF72DF8002805D0BDE8104057214B
:101EF00004A000F07ABC10BD00100140D00000200A
:101F0000A08601002E2E2F5372632F757361727499
:101F10002E630000FEE7000002490860091D08600A
:101F2000704700003408004070470907090E002878
:101F300006DA00F00F0000F1E02080F8141D704771
:101F400000F1E02080F8001470477047002834D07A
:101F50000188C1F30A0219490A8042788378D208BD
:101F600042EA4312C2F30A024A808278C378920995
:101F700042EA8302037942EA8322C2F30A028A8098
:101F800002794379520842EAC312C2F30A02CA80B4
:101F9000427992090A724279C2F301124A72C288E6
:101FA0004A8102898A814289CA81027B0A74427B02
:101FB0004A74C089488200F05BB87047060200206E
:101FC00038B51D49012008701C4800680168C943E4
:101FD000C9062FD401684068194C0090194A21683D
:101FE0004FF40010914202D916494C3904E0164AC8
:101FF000914203D913495039086008E0124B124A44
:10200000603BB83A994201D9D06000E090600B483B
:10201000FFF744FD206840681E22C0F11E040B49F2
:102020000648FFF7D7FD122C04D1BDE83840074819
:10203000FFF78CBF38BD00000E000020D00000204C
:102040001001002058640240B8600240E8010020FE
:1020500005480068C16841F01001C1601E220349B3
:102060000148FFF7B7BD0000D0000020E8010020C4
:102070000F4A10B514780F4B0F4800213CB11C7A61
:10208000012C09D0022C07D0032C06D102E0032238
:10209000027003E0017000E0047011705A7A012AA6
:1020A00003D0022A01D0032A00D1417010BD0000E4
:1020B0000E000020060200200C000020704710B522
:1020C000FEF7C6FEBDE81040FFF77FBA30B52548E1
:1020D00093B00025016841F080510160006800F074
:1020E000805011902048016841F44041016000682F
:1020F000022400F4404011900120009001908005DE
:10210000CDE906400C2008904FF4A870CDE90904F1
:1021100004200B906846FFF7C5F800B1FEE70CA954
:102120000F2081E831004FF4A0500F904FF4805001
:10213000109005210CA8FEF787FF00B1FEE7FFF71E
:1021400041F84FF47A71B0FBF1F0FFF72AFA04205E
:10215000FFF71AFA00221146501EFEF743FF13B094
:1021600030BD000040380240007000401048016857
:1021700041F4700101600F48016841F00101016004
:102180000C4A00210832116002680B4B1A400260B1
:10219000031D0A4A1A60026822F480220260054880
:1021A0000C30016002495806803908607047000011
:1021B00088ED00E000380240FFFFF6FE10300024FA
:1021C0000148FFF7E5BA000070010020F0B5026891
:1021D000234B244D244E254F254C4FF0804C9842E4
:1021E00009D0604507D0A84205D0B04203D0B8421C
:1021F00001D0A04204D122F0700E4A6842EA0E02D9
:1022000098421BD0604519D0A84217D0B04215D0D3
:10221000B84213D0A04211D0164DA8420ED0164D90
:10222000A8420BD0154DA84208D0154DA84205D0A4
:10223000144DA84202D0144DA84203D122F4407597
:10224000CA682A4302608A68C2620A688262984247
:1022500001D0A04201D10969016301214161F0BDB2
:10226000000001400004004000080040000C004055
:10227000000401400040014000440140004801408A
:1022800000180040001C00400020004010B5012351
:10229000046A8B409C430462036A8A4013430362CE
:1022A00010BD10B5846842EA032224F47F440A4337
:1022B0002243826010BD826822F070020A4342F01D
:1022C000070181607047000030B5026A22F0010208
:1022D0000262026A436884690D6824F0730425432E
:1022E00022F002048A6822430B4CA04202D00B4C1D
:1022F000A0420BD122F00804CA6823F440732243A1
:102300004C6922F004021C438B69234343608561BE
:1023100049684163026230BD000001400004014091
:1023200030B5026A22F010020262026A43688469D0
:102330000D6824F4E64444EA05248D6822F0200266
:1023400042EA05120D4DA84202D00D4DA8420ED111
:10235000CD6822F0800242EA05124D6923F4406301
:1023600043EA85038D6922F0400243EA8503436016
:10237000846149688163026230BD00000000014051
:102380000004014030B5026A22F480720262036ADE
:102390004268C46923F4007324F073050C682C436D
:1023A0008D6843EA05230D4DA84202D00C4DA8428A
:1023B0000ED1CD6823F4006343EA05234D6922F46E
:1023C000405242EA05128D6923F4806342EA051205
:1023D0004260C4614968C163036230BD00000140CE
:1023E0000004014030B5026A22F480520262046A9D
:1023F0004268C3690D6823F4E64343EA05238D6808
:1024000024F4005444EA0534084DA84202D0084D93
:10241000A84204D14D6922F4804242EA851242600A
:10242000C36149680164046230BD000000000140DE
:102430000004014010B5036A046A24F00104046238
:10244000846924F0F00444EA021423F00A020A43E7
:102450008461026210BD10B5036A23F010030362A9
:102460008369046A23F4704343EA023224F0A00330
:1024700043EA01118261016210BD70B5846B20686E
:10248000406994F83910C0F3C0100025212904D107
:1024900018B1E584204600F046F82068406994F8B9
:1024A0003A10C0F38010222904D118B1E5852046E6
:1024B00000F02BF8E06B40F01000E0632046FFF7DF
:1024C00019FB70BD10B50146806B09680968C90524
:1024D00013D40021C1850168CA6822F48072CA60E1
:1024E00001684A6922F001024A6101684A6922F0E2
:1024F00040024A61202180F83A10FFF7B3FB10BD7B
:1025000010B5806BFFF7AFFB10BD0168CA6822F4FD
:102510009072CA6001684A6922F001024A61202172
:1025200080F83A1070470168CA6822F0C002CA6099
:10253000202180F8391070472DE9F04104460068E9
:10254000016921F44052E168114301612168C868C2
:1025500049F20C6290432369A268E5691A436369F2
:102560002B431A430243CA602168486920F4407231
:10257000A06910434861E1696425B1F5004F9748AF
:10258000974A21684FF032083FD0914201D08142F2
:102590007CD1FEF735FE00EBC00101EB0010616855
:1025A0008900B0FBF1F6FEF72BFE00EBC00101EB5A
:1025B000001061688900B0FBF1F0B0FBF5F06FF03E
:1025C0001801484306EB800108EB0110B0FBF5F061
:1025D00000F0F006FEF714FE00EBC00101EB001066
:1025E00061688900B0FBF1F0B0FBF5F006EB001676
:1025F000FEF706FE00EBC00101EB001061688900E8
:10260000B0FBF1F7FEF7FCFDD2E0914201D0814230
:102610003DD1FEF7F5FD00EBC00101EB0010616854
:102620004900B0FBF1F0B0FBF5F00601FEF7E8FD64
:1026300000EBC00101EB001061684900B0FBF1F74D
:10264000FEF7DEFD00EBC00101EB00106168490000
:10265000B0FBF1F0B0FBF5F06FF01801484307EB69
:10266000800108EBC100B0FBF5F000F0F80006EBCC
:102670004006FEF7C5FD00EBC00101EB00106168EC
:102680004900B0FBF1F7FEF7BBFD3CE055E0FEF77B
:102690009FFD00EBC00101EB001061684900B0FB39
:1026A000F1F0B0FBF5F00601FEF792FD00EBC00182
:1026B00001EB001061684900B0FBF1F7FEF788FDFF
:1026C00000EBC00101EB001061684900B0FBF1F0C4
:1026D000B0FBF5F06FF01801484307EB800108EB01
:1026E000C100B0FBF5F000F0F80006EB4006FEF785
:1026F0006FFD00EBC00101EB001061684900B0FB09
:10270000F1F7FEF765FD00EBC00101EB0010616819
:102710004900B0FBF1F0B0FBF5F06FF01801484351
:1027200007EB800108EBC100B0FBF5F000F00700FB
:10273000216830448860BDE8F081FEF749FD00EB78
:10274000C00101EB001061688900B0FBF1F6FEF7F3
:102750003FFD00EBC00101EB001061688900B0FB98
:10276000F1F0B0FBF5F06FF01801484306EB800183
:1027700008EB0110B0FBF5F000F0F006FEF728FDC5
:1027800000EBC00101EB001061688900B0FBF1F0C3
:10279000B0FBF5F006EB0016FEF71AFD00EBC001EA
:1027A00001EB001061688900B0FBF1F7FEF710FD46
:1027B00000EBC00101EB001061688900B0FBF1F093
:1027C000B0FBF5F06FF01801484307EB800108EB10
:1027D0000110B0FBF5F000F00F00A9E70014014074
:1027E00000100140FFF7ECBBFEE7FEE702E008C87F
:1027F000121F08C1002AFAD170477047002001E07B
:1028000001C1121F002AFBD170470000FEF728FB10
:10281000FFF75CFCFFF76EFAFFF756FAFFF726FAB0
:10282000FFF74EFBFFF724FBFFF7CEFAFFF790FA16
:102830000848FEF727FFFFF70BFC0748FDF7F2FCFF
:102840004FF47A70FEF70CFA4FF49660FFF764FBD2
:10285000FEE7000070010020500000200000000092
:10286000010203040102030406070809000610160A
:102870000006101694280008000000201000000038
:10288000EC270008A4280008100000201006000013
:10289000FC27000800000000000000000024F400F5
:0428A0000000000034
:04000005080001AD41
:00000001FF
